{
  "contractName": "FarmerRegistration",
  "abi": [
    {
      "inputs": [],
      "stateMutability": "nonpayable",
      "type": "constructor"
    },
    {
      "inputs": [
        {
          "internalType": "address",
          "name": "",
          "type": "address"
        }
      ],
      "name": "farmers",
      "outputs": [
        {
          "internalType": "string",
          "name": "name",
          "type": "string"
        },
        {
          "internalType": "string",
          "name": "location",
          "type": "string"
        },
        {
          "internalType": "uint256",
          "name": "landSize",
          "type": "uint256"
        },
        {
          "internalType": "bool",
          "name": "registered",
          "type": "bool"
        }
      ],
      "stateMutability": "view",
      "type": "function",
      "constant": true
    },
    {
      "inputs": [],
      "name": "inspector",
      "outputs": [
        {
          "internalType": "address",
          "name": "",
          "type": "address"
        }
      ],
      "stateMutability": "view",
      "type": "function",
      "constant": true
    },
    {
      "inputs": [
        {
          "internalType": "address",
          "name": "",
          "type": "address"
        }
      ],
      "name": "journeys",
      "outputs": [
        {
          "internalType": "string",
          "name": "cropName",
          "type": "string"
        },
        {
          "internalType": "string",
          "name": "sowingDate",
          "type": "string"
        },
        {
          "internalType": "string",
          "name": "monitoringNotes",
          "type": "string"
        },
        {
          "internalType": "string",
          "name": "pesticideUsed",
          "type": "string"
        },
        {
          "internalType": "string",
          "name": "pesticideDate",
          "type": "string"
        },
        {
          "internalType": "bool",
          "name": "inspected",
          "type": "bool"
        },
        {
          "internalType": "bool",
          "name": "approved",
          "type": "bool"
        },
        {
          "internalType": "string",
          "name": "yieldDate",
          "type": "string"
        },
        {
          "internalType": "bool",
          "name": "badgeGenerated",
          "type": "bool"
        }
      ],
      "stateMutability": "view",
      "type": "function",
      "constant": true
    },
    {
      "inputs": [
        {
          "internalType": "string",
          "name": "_name",
          "type": "string"
        },
        {
          "internalType": "string",
          "name": "_location",
          "type": "string"
        },
        {
          "internalType": "uint256",
          "name": "_landSize",
          "type": "uint256"
        }
      ],
      "name": "registerFarmer",
      "outputs": [],
      "stateMutability": "nonpayable",
      "type": "function"
    },
    {
      "inputs": [
        {
          "internalType": "string",
          "name": "_cropName",
          "type": "string"
        },
        {
          "internalType": "string",
          "name": "_sowingDate",
          "type": "string"
        }
      ],
      "name": "addSowingData",
      "outputs": [],
      "stateMutability": "nonpayable",
      "type": "function"
    },
    {
      "inputs": [
        {
          "internalType": "string",
          "name": "_notes",
          "type": "string"
        }
      ],
      "name": "addMonitoringNotes",
      "outputs": [],
      "stateMutability": "nonpayable",
      "type": "function"
    },
    {
      "inputs": [
        {
          "internalType": "string",
          "name": "_pesticideUsed",
          "type": "string"
        },
        {
          "internalType": "string",
          "name": "_date",
          "type": "string"
        }
      ],
      "name": "addPesticideData",
      "outputs": [],
      "stateMutability": "nonpayable",
      "type": "function"
    },
    {
      "inputs": [
        {
          "internalType": "address",
          "name": "farmerAddress",
          "type": "address"
        },
        {
          "internalType": "bool",
          "name": "_approved",
          "type": "bool"
        }
      ],
      "name": "inspectCrop",
      "outputs": [],
      "stateMutability": "nonpayable",
      "type": "function"
    },
    {
      "inputs": [
        {
          "internalType": "string",
          "name": "_yieldDate",
          "type": "string"
        }
      ],
      "name": "addYieldData",
      "outputs": [],
      "stateMutability": "nonpayable",
      "type": "function"
    },
    {
      "inputs": [],
      "name": "generateBadge",
      "outputs": [],
      "stateMutability": "nonpayable",
      "type": "function"
    },
    {
      "inputs": [
        {
          "internalType": "address",
          "name": "farmerAddress",
          "type": "address"
        }
      ],
      "name": "getCropJourney",
      "outputs": [
        {
          "internalType": "string",
          "name": "",
          "type": "string"
        },
        {
          "internalType": "string",
          "name": "",
          "type": "string"
        },
        {
          "internalType": "string",
          "name": "",
          "type": "string"
        },
        {
          "internalType": "string",
          "name": "",
          "type": "string"
        },
        {
          "internalType": "string",
          "name": "",
          "type": "string"
        },
        {
          "internalType": "bool",
          "name": "",
          "type": "bool"
        },
        {
          "internalType": "bool",
          "name": "",
          "type": "bool"
        },
        {
          "internalType": "string",
          "name": "",
          "type": "string"
        },
        {
          "internalType": "bool",
          "name": "",
          "type": "bool"
        }
      ],
      "stateMutability": "view",
      "type": "function",
      "constant": true
    },
    {
      "inputs": [
        {
          "internalType": "address",
          "name": "_farmerAddress",
          "type": "address"
        }
      ],
      "name": "getFarmer",
      "outputs": [
        {
          "internalType": "string",
          "name": "",
          "type": "string"
        },
        {
          "internalType": "string",
          "name": "",
          "type": "string"
        },
        {
          "internalType": "uint256",
          "name": "",
          "type": "uint256"
        },
        {
          "internalType": "bool",
          "name": "",
          "type": "bool"
        }
      ],
      "stateMutability": "view",
      "type": "function",
      "constant": true
    }
  ],
  "bytecode": "0x608060405234801561001057600080fd5b5033600260006101000a81548173ffffffffffffffffffffffffffffffffffffffff021916908373ffffffffffffffffffffffffffffffffffffffff1602179055506120e6806100616000396000f3fe608060405234801561001057600080fd5b50600436106100b45760003560e01c8063a5c0bbea11610071578063a5c0bbea146101b0578063a6b80bcc146101cc578063c0e25145146101e8578063d9b332c6146101f2578063e7609c161461020e578063ed2cee9e14610241576100b4565b80631efa5311146100b95780633301f3df146100d5578063401b2168146100f157806354a614f914610124578063723ce7ae1461015c57806387cce2b114610194575b600080fd5b6100d360048036038101906100ce91906119ad565b61025f565b005b6100ef60048036038101906100ea919061196c565b61039f565b005b61010b60048036038101906101069190611907565b610516565b60405161011b9493929190611d90565b60405180910390f35b61013e60048036038101906101399190611907565b610663565b60405161015399989796959493929190611cd9565b60405180910390f35b61017660048036038101906101719190611907565b610acb565b60405161018b99989796959493929190611cd9565b60405180910390f35b6101ae60048036038101906101a99190611930565b610e70565b005b6101ca60048036038101906101c5919061196c565b610fb8565b005b6101e660048036038101906101e191906119ad565b6110a0565b005b6101f06111e0565b005b61020c60048036038101906102079190611a19565b61147a565b005b61022860048036038101906102239190611907565b6115d7565b6040516102389493929190611d90565b60405180910390f35b610249611797565b6040516102569190611cbe565b60405180910390f35b6000803373ffffffffffffffffffffffffffffffffffffffff1673ffffffffffffffffffffffffffffffffffffffff16815260200190815260200160002060030160009054906101000a900460ff166102ed576040517f08c379a00000000000000000000000000000000000000000000000000000000081526004016102e490611e23565b60405180910390fd5b81600160003373ffffffffffffffffffffffffffffffffffffffff1673ffffffffffffffffffffffffffffffffffffffff16815260200190815260200160002060000190805190602001906103439291906117bd565b5080600160003373ffffffffffffffffffffffffffffffffffffffff1673ffffffffffffffffffffffffffffffffffffffff168152602001908152602001600020600101908051906020019061039a9291906117bd565b505050565b6000803373ffffffffffffffffffffffffffffffffffffffff1673ffffffffffffffffffffffffffffffffffffffff16815260200190815260200160002060030160009054906101000a900460ff1661042d576040517f08c379a000000000000000000000000000000000000000000000000000000000815260040161042490611e23565b60405180910390fd5b600160003373ffffffffffffffffffffffffffffffffffffffff1673ffffffffffffffffffffffffffffffffffffffff16815260200190815260200160002060050160019054906101000a900460ff166104bc576040517f08c379a00000000000000000000000000000000000000000000000000000000081526004016104b390611ea3565b60405180910390fd5b80600160003373ffffffffffffffffffffffffffffffffffffffff1673ffffffffffffffffffffffffffffffffffffffff16815260200190815260200160002060060190805190602001906105129291906117bd565b5050565b600060205280600052604060002060009150905080600001805461053990611fca565b80601f016020809104026020016040519081016040528092919081815260200182805461056590611fca565b80156105b25780601f10610587576101008083540402835291602001916105b2565b820191906000526020600020905b81548152906001019060200180831161059557829003601f168201915b5050505050908060010180546105c790611fca565b80601f01602080910402602001604051908101604052809291908181526020018280546105f390611fca565b80156106405780601f1061061557610100808354040283529160200191610640565b820191906000526020600020905b81548152906001019060200180831161062357829003601f168201915b5050505050908060020154908060030160009054906101000a900460ff16905084565b60608060608060606000806060600080600160008c73ffffffffffffffffffffffffffffffffffffffff1673ffffffffffffffffffffffffffffffffffffffff168152602001908152602001600020604051806101200160405290816000820180546106ce90611fca565b80601f01602080910402602001604051908101604052809291908181526020018280546106fa90611fca565b80156107475780601f1061071c57610100808354040283529160200191610747565b820191906000526020600020905b81548152906001019060200180831161072a57829003601f168201915b5050505050815260200160018201805461076090611fca565b80601f016020809104026020016040519081016040528092919081815260200182805461078c90611fca565b80156107d95780601f106107ae576101008083540402835291602001916107d9565b820191906000526020600020905b8154815290600101906020018083116107bc57829003601f168201915b505050505081526020016002820180546107f290611fca565b80601f016020809104026020016040519081016040528092919081815260200182805461081e90611fca565b801561086b5780601f106108405761010080835404028352916020019161086b565b820191906000526020600020905b81548152906001019060200180831161084e57829003601f168201915b5050505050815260200160038201805461088490611fca565b80601f01602080910402602001604051908101604052809291908181526020018280546108b090611fca565b80156108fd5780601f106108d2576101008083540402835291602001916108fd565b820191906000526020600020905b8154815290600101906020018083116108e057829003601f168201915b5050505050815260200160048201805461091690611fca565b80601f016020809104026020016040519081016040528092919081815260200182805461094290611fca565b801561098f5780601f106109645761010080835404028352916020019161098f565b820191906000526020600020905b81548152906001019060200180831161097257829003601f168201915b505050505081526020016005820160009054906101000a900460ff161515151581526020016005820160019054906101000a900460ff161515151581526020016006820180546109de90611fca565b80601f0160208091040260200160405190810160405280929190818152602001828054610a0a90611fca565b8015610a575780601f10610a2c57610100808354040283529160200191610a57565b820191906000526020600020905b815481529060010190602001808311610a3a57829003601f168201915b505050505081526020016007820160009054906101000a900460ff1615151515815250509050806000015181602001518260400151836060015184608001518560a001518660c001518760e00151886101000151995099509950995099509950995099509950509193959799909294969850565b6001602052806000526040600020600091509050806000018054610aee90611fca565b80601f0160208091040260200160405190810160405280929190818152602001828054610b1a90611fca565b8015610b675780601f10610b3c57610100808354040283529160200191610b67565b820191906000526020600020905b815481529060010190602001808311610b4a57829003601f168201915b505050505090806001018054610b7c90611fca565b80601f0160208091040260200160405190810160405280929190818152602001828054610ba890611fca565b8015610bf55780601f10610bca57610100808354040283529160200191610bf5565b820191906000526020600020905b815481529060010190602001808311610bd857829003601f168201915b505050505090806002018054610c0a90611fca565b80601f0160208091040260200160405190810160405280929190818152602001828054610c3690611fca565b8015610c835780601f10610c5857610100808354040283529160200191610c83565b820191906000526020600020905b815481529060010190602001808311610c6657829003601f168201915b505050505090806003018054610c9890611fca565b80601f0160208091040260200160405190810160405280929190818152602001828054610cc490611fca565b8015610d115780601f10610ce657610100808354040283529160200191610d11565b820191906000526020600020905b815481529060010190602001808311610cf457829003601f168201915b505050505090806004018054610d2690611fca565b80601f0160208091040260200160405190810160405280929190818152602001828054610d5290611fca565b8015610d9f5780601f10610d7457610100808354040283529160200191610d9f565b820191906000526020600020905b815481529060010190602001808311610d8257829003601f168201915b5050505050908060050160009054906101000a900460ff16908060050160019054906101000a900460ff1690806006018054610dda90611fca565b80601f0160208091040260200160405190810160405280929190818152602001828054610e0690611fca565b8015610e535780601f10610e2857610100808354040283529160200191610e53565b820191906000526020600020905b815481529060010190602001808311610e3657829003601f168201915b5050505050908060070160009054906101000a900460ff16905089565b600260009054906101000a900473ffffffffffffffffffffffffffffffffffffffff1673ffffffffffffffffffffffffffffffffffffffff163373ffffffffffffffffffffffffffffffffffffffff1614610f00576040517f08c379a0000000000000000000000000000000000000000000000000000000008152600401610ef790611e83565b60405180910390fd5b60018060008473ffffffffffffffffffffffffffffffffffffffff1673ffffffffffffffffffffffffffffffffffffffff16815260200190815260200160002060050160006101000a81548160ff02191690831515021790555080600160008473ffffffffffffffffffffffffffffffffffffffff1673ffffffffffffffffffffffffffffffffffffffff16815260200190815260200160002060050160016101000a81548160ff0219169083151502179055505050565b6000803373ffffffffffffffffffffffffffffffffffffffff1673ffffffffffffffffffffffffffffffffffffffff16815260200190815260200160002060030160009054906101000a900460ff16611046576040517f08c379a000000000000000000000000000000000000000000000000000000000815260040161103d90611e23565b60405180910390fd5b80600160003373ffffffffffffffffffffffffffffffffffffffff1673ffffffffffffffffffffffffffffffffffffffff168152602001908152602001600020600201908051906020019061109c9291906117bd565b5050565b6000803373ffffffffffffffffffffffffffffffffffffffff1673ffffffffffffffffffffffffffffffffffffffff16815260200190815260200160002060030160009054906101000a900460ff1661112e576040517f08c379a000000000000000000000000000000000000000000000000000000000815260040161112590611e23565b60405180910390fd5b81600160003373ffffffffffffffffffffffffffffffffffffffff1673ffffffffffffffffffffffffffffffffffffffff16815260200190815260200160002060030190805190602001906111849291906117bd565b5080600160003373ffffffffffffffffffffffffffffffffffffffff1673ffffffffffffffffffffffffffffffffffffffff16815260200190815260200160002060040190805190602001906111db9291906117bd565b505050565b6000803373ffffffffffffffffffffffffffffffffffffffff1673ffffffffffffffffffffffffffffffffffffffff16815260200190815260200160002060030160009054906101000a900460ff1661126e576040517f08c379a000000000000000000000000000000000000000000000000000000000815260040161126590611e23565b60405180910390fd5b600160003373ffffffffffffffffffffffffffffffffffffffff1673ffffffffffffffffffffffffffffffffffffffff16815260200190815260200160002060050160019054906101000a900460ff166112fd576040517f08c379a00000000000000000000000000000000000000000000000000000000081526004016112f490611e43565b60405180910390fd5b6000600160003373ffffffffffffffffffffffffffffffffffffffff1673ffffffffffffffffffffffffffffffffffffffff168152602001908152602001600020600601805461134c90611fca565b90501161138e576040517f08c379a000000000000000000000000000000000000000000000000000000000815260040161138590611e63565b60405180910390fd5b600160003373ffffffffffffffffffffffffffffffffffffffff1673ffffffffffffffffffffffffffffffffffffffff16815260200190815260200160002060070160009054906101000a900460ff161561141e576040517f08c379a000000000000000000000000000000000000000000000000000000000815260040161141590611e03565b60405180910390fd5b60018060003373ffffffffffffffffffffffffffffffffffffffff1673ffffffffffffffffffffffffffffffffffffffff16815260200190815260200160002060070160006101000a81548160ff021916908315150217905550565b6000803373ffffffffffffffffffffffffffffffffffffffff1673ffffffffffffffffffffffffffffffffffffffff16815260200190815260200160002060030160009054906101000a900460ff1615611509576040517f08c379a000000000000000000000000000000000000000000000000000000000815260040161150090611de3565b60405180910390fd5b6040518060800160405280848152602001838152602001828152602001600115158152506000803373ffffffffffffffffffffffffffffffffffffffff1673ffffffffffffffffffffffffffffffffffffffff16815260200190815260200160002060008201518160000190805190602001906115879291906117bd565b5060208201518160010190805190602001906115a49291906117bd565b506040820151816002015560608201518160030160006101000a81548160ff021916908315150217905550905050505050565b60608060008060008060008773ffffffffffffffffffffffffffffffffffffffff1673ffffffffffffffffffffffffffffffffffffffff16815260200190815260200160002060405180608001604052908160008201805461163890611fca565b80601f016020809104026020016040519081016040528092919081815260200182805461166490611fca565b80156116b15780601f10611686576101008083540402835291602001916116b1565b820191906000526020600020905b81548152906001019060200180831161169457829003601f168201915b505050505081526020016001820180546116ca90611fca565b80601f01602080910402602001604051908101604052809291908181526020018280546116f690611fca565b80156117435780601f1061171857610100808354040283529160200191611743565b820191906000526020600020905b81548152906001019060200180831161172657829003601f168201915b50505050508152602001600282015481526020016003820160009054906101000a900460ff161515151581525050905080600001518160200151826040015183606001519450945094509450509193509193565b600260009054906101000a900473ffffffffffffffffffffffffffffffffffffffff1681565b8280546117c990611fca565b90600052602060002090601f0160209004810192826117eb5760008555611832565b82601f1061180457805160ff1916838001178555611832565b82800160010185558215611832579182015b82811115611831578251825591602001919060010190611816565b5b50905061183f9190611843565b5090565b5b8082111561185c576000816000905550600101611844565b5090565b600061187361186e84611ef4565b611ec3565b90508281526020810184848401111561188b57600080fd5b611896848285611f88565b509392505050565b6000813590506118ad8161206b565b92915050565b6000813590506118c281612082565b92915050565b600082601f8301126118d957600080fd5b81356118e9848260208601611860565b91505092915050565b60008135905061190181612099565b92915050565b60006020828403121561191957600080fd5b60006119278482850161189e565b91505092915050565b6000806040838503121561194357600080fd5b60006119518582860161189e565b9250506020611962858286016118b3565b9150509250929050565b60006020828403121561197e57600080fd5b600082013567ffffffffffffffff81111561199857600080fd5b6119a4848285016118c8565b91505092915050565b600080604083850312156119c057600080fd5b600083013567ffffffffffffffff8111156119da57600080fd5b6119e6858286016118c8565b925050602083013567ffffffffffffffff811115611a0357600080fd5b611a0f858286016118c8565b9150509250929050565b600080600060608486031215611a2e57600080fd5b600084013567ffffffffffffffff811115611a4857600080fd5b611a54868287016118c8565b935050602084013567ffffffffffffffff811115611a7157600080fd5b611a7d868287016118c8565b9250506040611a8e868287016118f2565b9150509250925092565b611aa181611f40565b82525050565b611ab081611f52565b82525050565b6000611ac182611f24565b611acb8185611f2f565b9350611adb818560208601611f97565b611ae48161205a565b840191505092915050565b6000611afc601983611f2f565b91507f4661726d657220616c72656164792072656769737465726564000000000000006000830152602082019050919050565b6000611b3c601783611f2f565b91507f426164676520616c72656164792067656e6572617465640000000000000000006000830152602082019050919050565b6000611b7c601583611f2f565b91507f4661726d6572206e6f74207265676973746572656400000000000000000000006000830152602082019050919050565b6000611bbc601183611f2f565b91507f43726f70206e6f7420617070726f7665640000000000000000000000000000006000830152602082019050919050565b6000611bfc601283611f2f565b91507f5969656c642064617461206d697373696e6700000000000000000000000000006000830152602082019050919050565b6000611c3c601683611f2f565b91507f4f6e6c7920696e73706563746f7220616c6c6f776564000000000000000000006000830152602082019050919050565b6000611c7c601e83611f2f565b91507f43726f70206e6f7420617070726f76656420627920696e73706563746f7200006000830152602082019050919050565b611cb881611f7e565b82525050565b6000602082019050611cd36000830184611a98565b92915050565b6000610120820190508181036000830152611cf4818c611ab6565b90508181036020830152611d08818b611ab6565b90508181036040830152611d1c818a611ab6565b90508181036060830152611d308189611ab6565b90508181036080830152611d448188611ab6565b9050611d5360a0830187611aa7565b611d6060c0830186611aa7565b81810360e0830152611d728185611ab6565b9050611d82610100830184611aa7565b9a9950505050505050505050565b60006080820190508181036000830152611daa8187611ab6565b90508181036020830152611dbe8186611ab6565b9050611dcd6040830185611caf565b611dda6060830184611aa7565b95945050505050565b60006020820190508181036000830152611dfc81611aef565b9050919050565b60006020820190508181036000830152611e1c81611b2f565b9050919050565b60006020820190508181036000830152611e3c81611b6f565b9050919050565b60006020820190508181036000830152611e5c81611baf565b9050919050565b60006020820190508181036000830152611e7c81611bef565b9050919050565b60006020820190508181036000830152611e9c81611c2f565b9050919050565b60006020820190508181036000830152611ebc81611c6f565b9050919050565b6000604051905081810181811067ffffffffffffffff82111715611eea57611ee961202b565b5b8060405250919050565b600067ffffffffffffffff821115611f0f57611f0e61202b565b5b601f19601f8301169050602081019050919050565b600081519050919050565b600082825260208201905092915050565b6000611f4b82611f5e565b9050919050565b60008115159050919050565b600073ffffffffffffffffffffffffffffffffffffffff82169050919050565b6000819050919050565b82818337600083830152505050565b60005b83811015611fb5578082015181840152602081019050611f9a565b83811115611fc4576000848401525b50505050565b60006002820490506001821680611fe257607f821691505b60208210811415611ff657611ff5611ffc565b5b50919050565b7f4e487b7100000000000000000000000000000000000000000000000000000000600052602260045260246000fd5b7f4e487b7100000000000000000000000000000000000000000000000000000000600052604160045260246000fd5b6000601f19601f8301169050919050565b61207481611f40565b811461207f57600080fd5b50565b61208b81611f52565b811461209657600080fd5b50565b6120a281611f7e565b81146120ad57600080fd5b5056fea26469706673582212208111fed6270c2c34c7d0114c918485c6a184abdaa3b0a838b45151d064ed483e64736f6c63430008000033",
  "immutableReferences": {},
  "source": "// SPDX-License-Identifier: MIT\r\npragma solidity ^0.8.0;\r\n\r\ncontract FarmerRegistration {\r\n    struct Farmer {\r\n        string name;\r\n        string location;\r\n        uint256 landSize;\r\n        bool registered;\r\n    }\r\n\r\n    struct CropJourney {\r\n        string cropName;\r\n        string sowingDate;\r\n        string monitoringNotes;\r\n        string pesticideUsed;\r\n        string pesticideDate;\r\n        bool inspected;\r\n        bool approved;\r\n        string yieldDate;\r\n        bool badgeGenerated;\r\n    }\r\n\r\n    mapping(address => Farmer) public farmers;\r\n    mapping(address => CropJourney) public journeys;\r\n\r\n    address public inspector;\r\n\r\n    constructor() {\r\n        inspector = msg.sender; // Contract deployer is the inspector\r\n    }\r\n\r\n    modifier onlyInspector() {\r\n        require(msg.sender == inspector, \"Only inspector allowed\");\r\n        _;\r\n    }\r\n\r\n    modifier onlyRegisteredFarmer() {\r\n        require(farmers[msg.sender].registered, \"Farmer not registered\");\r\n        _;\r\n    }\r\n\r\n    //  Step 1: Register Farmer\r\n    function registerFarmer(string memory _name, string memory _location, uint256 _landSize) public {\r\n        require(!farmers[msg.sender].registered, \"Farmer already registered\");\r\n        farmers[msg.sender] = Farmer(_name, _location, _landSize, true);\r\n    }\r\n\r\n    //  Step 2: Add Crop Sowing Data\r\n    function addSowingData(string memory _cropName, string memory _sowingDate) public onlyRegisteredFarmer {\r\n        journeys[msg.sender].cropName = _cropName;\r\n        journeys[msg.sender].sowingDate = _sowingDate;\r\n    }\r\n\r\n    //  Step 3: Add Monitoring Notes\r\n    function addMonitoringNotes(string memory _notes) public onlyRegisteredFarmer {\r\n        journeys[msg.sender].monitoringNotes = _notes;\r\n    }\r\n\r\n    //  Step 4: Add Pesticide Info\r\n    function addPesticideData(string memory _pesticideUsed, string memory _date) public onlyRegisteredFarmer {\r\n        journeys[msg.sender].pesticideUsed = _pesticideUsed;\r\n        journeys[msg.sender].pesticideDate = _date;\r\n    }\r\n\r\n    //  Step 5: Inspector Approves/Rejects Crop\r\n    function inspectCrop(address farmerAddress, bool _approved) public onlyInspector {\r\n        journeys[farmerAddress].inspected = true;\r\n        journeys[farmerAddress].approved = _approved;\r\n    }\r\n\r\n    //  Step 6: Add Yield Data\r\n    function addYieldData(string memory _yieldDate) public onlyRegisteredFarmer {\r\n        require(journeys[msg.sender].approved, \"Crop not approved by inspector\");\r\n        journeys[msg.sender].yieldDate = _yieldDate;\r\n    }\r\n\r\n    //  Step 7: Generate Badge\r\n    function generateBadge() public onlyRegisteredFarmer {\r\n        require(journeys[msg.sender].approved, \"Crop not approved\");\r\n        require(bytes(journeys[msg.sender].yieldDate).length > 0, \"Yield data missing\");\r\n        require(!journeys[msg.sender].badgeGenerated, \"Badge already generated\");\r\n        journeys[msg.sender].badgeGenerated = true;\r\n    }\r\n\r\n    //  View Full Crop Journey\r\n    function getCropJourney(address farmerAddress) public view returns (\r\n        string memory, string memory, string memory,\r\n        string memory, string memory, bool,\r\n        bool, string memory, bool\r\n    ) {\r\n        CropJourney memory j = journeys[farmerAddress];\r\n        return (\r\n            j.cropName,\r\n            j.sowingDate,\r\n            j.monitoringNotes,\r\n            j.pesticideUsed,\r\n            j.pesticideDate,\r\n            j.inspected,\r\n            j.approved,\r\n            j.yieldDate,\r\n            j.badgeGenerated\r\n        );\r\n    }\r\n\r\n    //  View Farmer Info\r\n    function getFarmer(address _farmerAddress) public view returns (string memory, string memory, uint256, bool) {\r\n        Farmer memory farmer = farmers[_farmerAddress];\r\n        return (farmer.name, farmer.location, farmer.landSize, farmer.registered);\r\n    }\r\n}\r\n",
  "sourcePath": "C:\\users\\saman\\CropSync_Blockchain\\contracts\\FarmerRegistration.sol",
  "compiler": {
    "name": "solc",
    "version": "0.8.0+commit.c7dfd78e.Emscripten.clang"
  },
  "schemaVersion": "3.4.16",
  "updatedAt": "2025-04-21T16:53:16.150Z",
  "networkType": "ethereum",
  "devdoc": {
    "kind": "dev",
    "methods": {},
    "version": 1
  },
  "userdoc": {
    "kind": "user",
    "methods": {},
    "version": 1
  }
}