{
  "abi": [
    {
      "inputs": [
        {
          "internalType": "address",
          "name": "_owner",
          "type": "address"
        },
        {
          "internalType": "string",
          "name": "_name",
          "type": "string"
        },
        {
          "internalType": "string",
          "name": "_description",
          "type": "string"
        },
        {
          "internalType": "uint256",
          "name": "_goal",
          "type": "uint256"
        },
        {
          "internalType": "uint256",
          "name": "_duratyionInDays",
          "type": "uint256"
        }
      ],
      "stateMutability": "nonpayable",
      "type": "constructor"
    },
    {
      "inputs": [
        {
          "internalType": "string",
          "name": "_name",
          "type": "string"
        },
        {
          "internalType": "uint256",
          "name": "_amount",
          "type": "uint256"
        }
      ],
      "name": "addTier",
      "outputs": [],
      "stateMutability": "nonpayable",
      "type": "function"
    },
    {
      "inputs": [
        {
          "internalType": "address",
          "name": "",
          "type": "address"
        }
      ],
      "name": "backers",
      "outputs": [
        {
          "internalType": "uint256",
          "name": "totalContribution",
          "type": "uint256"
        }
      ],
      "stateMutability": "view",
      "type": "function"
    },
    {
      "inputs": [],
      "name": "deadline",
      "outputs": [
        {
          "internalType": "uint256",
          "name": "",
          "type": "uint256"
        }
      ],
      "stateMutability": "view",
      "type": "function"
    },
    {
      "inputs": [],
      "name": "description",
      "outputs": [
        {
          "internalType": "string",
          "name": "",
          "type": "string"
        }
      ],
      "stateMutability": "view",
      "type": "function"
    },
    {
      "inputs": [
        {
          "internalType": "uint256",
          "name": "_daysToAdd",
          "type": "uint256"
        }
      ],
      "name": "extendDeadline",
      "outputs": [],
      "stateMutability": "nonpayable",
      "type": "function"
    },
    {
      "inputs": [
        {
          "internalType": "uint256",
          "name": "_tierIndex",
          "type": "uint256"
        }
      ],
      "name": "fund",
      "outputs": [],
      "stateMutability": "payable",
      "type": "function"
    },
    {
      "inputs": [],
      "name": "getCampaignStatus",
      "outputs": [
        {
          "internalType": "enum EtherFund.CampaignState",
          "name": "",
          "type": "uint8"
        }
      ],
      "stateMutability": "view",
      "type": "function"
    },
    {
      "inputs": [],
      "name": "getContractBalance",
      "outputs": [
        {
          "internalType": "uint256",
          "name": "",
          "type": "uint256"
        }
      ],
      "stateMutability": "view",
      "type": "function"
    },
    {
      "inputs": [],
      "name": "getTiers",
      "outputs": [
        {
          "components": [
            {
              "internalType": "string",
              "name": "name",
              "type": "string"
            },
            {
              "internalType": "uint256",
              "name": "amount",
              "type": "uint256"
            },
            {
              "internalType": "uint256",
              "name": "backers",
              "type": "uint256"
            }
          ],
          "internalType": "struct EtherFund.Tier[]",
          "name": "",
          "type": "tuple[]"
        }
      ],
      "stateMutability": "view",
      "type": "function"
    },
    {
      "inputs": [],
      "name": "goal",
      "outputs": [
        {
          "internalType": "uint256",
          "name": "",
          "type": "uint256"
        }
      ],
      "stateMutability": "view",
      "type": "function"
    },
    {
      "inputs": [
        {
          "internalType": "address",
          "name": "_backer",
          "type": "address"
        },
        {
          "internalType": "uint256",
          "name": "_tierIndex",
          "type": "uint256"
        }
      ],
      "name": "hasFundedTier",
      "outputs": [
        {
          "internalType": "bool",
          "name": "",
          "type": "bool"
        }
      ],
      "stateMutability": "view",
      "type": "function"
    },
    {
      "inputs": [],
      "name": "name",
      "outputs": [
        {
          "internalType": "string",
          "name": "",
          "type": "string"
        }
      ],
      "stateMutability": "view",
      "type": "function"
    },
    {
      "inputs": [],
      "name": "owner",
      "outputs": [
        {
          "internalType": "address",
          "name": "",
          "type": "address"
        }
      ],
      "stateMutability": "view",
      "type": "function"
    },
    {
      "inputs": [],
      "name": "paused",
      "outputs": [
        {
          "internalType": "bool",
          "name": "",
          "type": "bool"
        }
      ],
      "stateMutability": "view",
      "type": "function"
    },
    {
      "inputs": [],
      "name": "refund",
      "outputs": [],
      "stateMutability": "nonpayable",
      "type": "function"
    },
    {
      "inputs": [
        {
          "internalType": "uint256",
          "name": "_index",
          "type": "uint256"
        }
      ],
      "name": "removeTier",
      "outputs": [],
      "stateMutability": "nonpayable",
      "type": "function"
    },
    {
      "inputs": [],
      "name": "state",
      "outputs": [
        {
          "internalType": "enum EtherFund.CampaignState",
          "name": "",
          "type": "uint8"
        }
      ],
      "stateMutability": "view",
      "type": "function"
    },
    {
      "inputs": [
        {
          "internalType": "uint256",
          "name": "",
          "type": "uint256"
        }
      ],
      "name": "tiers",
      "outputs": [
        {
          "internalType": "string",
          "name": "name",
          "type": "string"
        },
        {
          "internalType": "uint256",
          "name": "amount",
          "type": "uint256"
        },
        {
          "internalType": "uint256",
          "name": "backers",
          "type": "uint256"
        }
      ],
      "stateMutability": "view",
      "type": "function"
    },
    {
      "inputs": [],
      "name": "togglePause",
      "outputs": [],
      "stateMutability": "nonpayable",
      "type": "function"
    },
    {
      "inputs": [],
      "name": "withdraw",
      "outputs": [],
      "stateMutability": "nonpayable",
      "type": "function"
    }
  ],
  "devdoc": {
    "kind": "dev",
    "methods": {},
    "version": 1
  },
  "evm": {
    "assembly": "    /* \"EtherFund.sol\":60:4240  contract EtherFund {... */\n  mstore(0x40, 0x80)\n    /* \"EtherFund.sol\":969:1361  constructor(... */\n  callvalue\n  dup1\n  iszero\n  tag_1\n  jumpi\n  0x00\n  dup1\n  revert\ntag_1:\n  pop\n  mload(0x40)\n  sub(codesize, bytecodeSize)\n  dup1\n  bytecodeSize\n  dup4\n  codecopy\n  dup2\n  add\n  0x40\n  dup2\n  swap1\n  mstore\n  tag_2\n  swap2\n  tag_3\n  jump\t// in\ntag_2:\n    /* \"EtherFund.sol\":1150:1154  name */\n  0x00\n    /* \"EtherFund.sol\":1150:1162  name = _name */\n  tag_6\n    /* \"EtherFund.sol\":1157:1162  _name */\n  dup6\n    /* \"EtherFund.sol\":1150:1154  name */\n  dup3\n    /* \"EtherFund.sol\":1150:1162  name = _name */\n  tag_7\n  jump\t// in\ntag_6:\n  pop\n    /* \"EtherFund.sol\":1173:1184  description */\n  0x01\n    /* \"EtherFund.sol\":1173:1199  description = _description */\n  tag_8\n    /* \"EtherFund.sol\":1187:1199  _description */\n  dup5\n    /* \"EtherFund.sol\":1173:1184  description */\n  dup3\n    /* \"EtherFund.sol\":1173:1199  description = _description */\n  tag_7\n  jump\t// in\ntag_8:\n  pop\n    /* \"EtherFund.sol\":1210:1214  goal */\n  0x02\n    /* \"EtherFund.sol\":1210:1222  goal = _goal */\n  dup3\n  swap1\n  sstore\n    /* \"EtherFund.sol\":1263:1288  _duratyionInDays * 1 days */\n  tag_9\n    /* \"EtherFund.sol\":1263:1279  _duratyionInDays */\n  dup2\n    /* \"EtherFund.sol\":1282:1288  1 days */\n  0x015180\n    /* \"EtherFund.sol\":1263:1288  _duratyionInDays * 1 days */\n  tag_10\n  jump\t// in\ntag_9:\n    /* \"EtherFund.sol\":1244:1289  block.timestamp + (_duratyionInDays * 1 days) */\n  tag_11\n  swap1\n    /* \"EtherFund.sol\":1244:1259  block.timestamp */\n  timestamp\n    /* \"EtherFund.sol\":1244:1289  block.timestamp + (_duratyionInDays * 1 days) */\n  tag_12\n  jump\t// in\ntag_11:\n    /* \"EtherFund.sol\":1233:1241  deadline */\n  0x03\n    /* \"EtherFund.sol\":1233:1289  deadline = block.timestamp + (_duratyionInDays * 1 days) */\n  sstore\n  pop\n  pop\n    /* \"EtherFund.sol\":1300:1305  owner */\n  0x04\n    /* \"EtherFund.sol\":1300:1314  owner = _owner */\n  dup1\n  sload\n  not(sub(shl(0xa0, 0xff01), 0x01))\n    /* \"EtherFund.sol\":1325:1353  state = CampaignState.Active */\n  and\n  sub(shl(0xa0, 0x01), 0x01)\n    /* \"EtherFund.sol\":1300:1314  owner = _owner */\n  swap5\n  swap1\n  swap5\n  and\n    /* \"EtherFund.sol\":1325:1353  state = CampaignState.Active */\n  swap4\n  swap1\n  swap4\n  or\n  swap1\n  swap3\n  sstore\n  pop\n    /* \"EtherFund.sol\":60:4240  contract EtherFund {... */\n  tag_24\n  swap1\n  pop\n  jump\n    /* \"#utility.yul\":14:141   */\ntag_17:\n    /* \"#utility.yul\":75:85   */\n  0x4e487b71\n    /* \"#utility.yul\":70:73   */\n  0xe0\n    /* \"#utility.yul\":66:86   */\n  shl\n    /* \"#utility.yul\":63:64   */\n  0x00\n    /* \"#utility.yul\":56:87   */\n  mstore\n    /* \"#utility.yul\":106:110   */\n  0x41\n    /* \"#utility.yul\":103:104   */\n  0x04\n    /* \"#utility.yul\":96:111   */\n  mstore\n    /* \"#utility.yul\":130:134   */\n  0x24\n    /* \"#utility.yul\":127:128   */\n  0x00\n    /* \"#utility.yul\":120:135   */\n  revert\n    /* \"#utility.yul\":146:862   */\ntag_18:\n    /* \"#utility.yul\":200:205   */\n  0x00\n    /* \"#utility.yul\":253:256   */\n  dup3\n    /* \"#utility.yul\":246:250   */\n  0x1f\n    /* \"#utility.yul\":238:244   */\n  dup4\n    /* \"#utility.yul\":234:251   */\n  add\n    /* \"#utility.yul\":230:257   */\n  slt\n    /* \"#utility.yul\":220:275   */\n  tag_27\n  jumpi\n    /* \"#utility.yul\":271:272   */\n  0x00\n    /* \"#utility.yul\":268:269   */\n  dup1\n    /* \"#utility.yul\":261:273   */\n  revert\n    /* \"#utility.yul\":220:275   */\ntag_27:\n    /* \"#utility.yul\":294:307   */\n  dup2\n  mload\n  sub(shl(0x40, 0x01), 0x01)\n    /* \"#utility.yul\":356:366   */\n  dup1\n  dup3\n  gt\n    /* \"#utility.yul\":353:389   */\n  iszero\n  tag_29\n  jumpi\n    /* \"#utility.yul\":369:387   */\n  tag_29\n  tag_17\n  jump\t// in\ntag_29:\n    /* \"#utility.yul\":444:446   */\n  0x40\n    /* \"#utility.yul\":438:447   */\n  mload\n    /* \"#utility.yul\":412:414   */\n  0x1f\n    /* \"#utility.yul\":498:511   */\n  dup4\n  add\n  not(0x1f)\n    /* \"#utility.yul\":494:516   */\n  swap1\n  dup2\n  and\n    /* \"#utility.yul\":518:520   */\n  0x3f\n    /* \"#utility.yul\":490:521   */\n  add\n    /* \"#utility.yul\":486:526   */\n  and\n    /* \"#utility.yul\":474:527   */\n  dup2\n  add\n  swap1\n    /* \"#utility.yul\":542:560   */\n  dup3\n  dup3\n  gt\n    /* \"#utility.yul\":562:584   */\n  dup2\n  dup4\n  lt\n    /* \"#utility.yul\":539:585   */\n  or\n    /* \"#utility.yul\":536:608   */\n  iszero\n  tag_31\n  jumpi\n    /* \"#utility.yul\":588:606   */\n  tag_31\n  tag_17\n  jump\t// in\ntag_31:\n    /* \"#utility.yul\":628:638   */\n  dup2\n    /* \"#utility.yul\":624:626   */\n  0x40\n    /* \"#utility.yul\":617:639   */\n  mstore\n    /* \"#utility.yul\":663:665   */\n  dup4\n    /* \"#utility.yul\":655:661   */\n  dup2\n    /* \"#utility.yul\":648:666   */\n  mstore\n    /* \"#utility.yul\":709:712   */\n  dup7\n    /* \"#utility.yul\":702:706   */\n  0x20\n    /* \"#utility.yul\":697:699   */\n  dup6\n    /* \"#utility.yul\":689:695   */\n  dup9\n    /* \"#utility.yul\":685:700   */\n  add\n    /* \"#utility.yul\":681:707   */\n  add\n    /* \"#utility.yul\":678:713   */\n  gt\n    /* \"#utility.yul\":675:730   */\n  iszero\n  tag_32\n  jumpi\n    /* \"#utility.yul\":726:727   */\n  0x00\n    /* \"#utility.yul\":723:724   */\n  dup1\n    /* \"#utility.yul\":716:728   */\n  revert\n    /* \"#utility.yul\":675:730   */\ntag_32:\n    /* \"#utility.yul\":783:785   */\n  dup4\n    /* \"#utility.yul\":776:780   */\n  0x20\n    /* \"#utility.yul\":768:774   */\n  dup8\n    /* \"#utility.yul\":764:781   */\n  add\n    /* \"#utility.yul\":757:761   */\n  0x20\n    /* \"#utility.yul\":749:755   */\n  dup4\n    /* \"#utility.yul\":745:762   */\n  add\n    /* \"#utility.yul\":739:786   */\n  mcopy\n    /* \"#utility.yul\":830:831   */\n  0x00\n    /* \"#utility.yul\":823:827   */\n  0x20\n    /* \"#utility.yul\":818:820   */\n  dup6\n    /* \"#utility.yul\":810:816   */\n  dup4\n    /* \"#utility.yul\":806:821   */\n  add\n    /* \"#utility.yul\":802:828   */\n  add\n    /* \"#utility.yul\":795:832   */\n  mstore\n    /* \"#utility.yul\":850:856   */\n  dup1\n    /* \"#utility.yul\":841:856   */\n  swap5\n  pop\n  pop\n  pop\n  pop\n  pop\n    /* \"#utility.yul\":146:862   */\n  swap3\n  swap2\n  pop\n  pop\n  jump\t// out\n    /* \"#utility.yul\":867:1720   */\ntag_3:\n    /* \"#utility.yul\":993:999   */\n  0x00\n    /* \"#utility.yul\":1001:1007   */\n  dup1\n    /* \"#utility.yul\":1009:1015   */\n  0x00\n    /* \"#utility.yul\":1017:1023   */\n  dup1\n    /* \"#utility.yul\":1025:1031   */\n  0x00\n    /* \"#utility.yul\":1078:1081   */\n  0xa0\n    /* \"#utility.yul\":1066:1075   */\n  dup7\n    /* \"#utility.yul\":1057:1064   */\n  dup9\n    /* \"#utility.yul\":1053:1076   */\n  sub\n    /* \"#utility.yul\":1049:1082   */\n  slt\n    /* \"#utility.yul\":1046:1099   */\n  iszero\n  tag_34\n  jumpi\n    /* \"#utility.yul\":1095:1096   */\n  0x00\n    /* \"#utility.yul\":1092:1093   */\n  dup1\n    /* \"#utility.yul\":1085:1097   */\n  revert\n    /* \"#utility.yul\":1046:1099   */\ntag_34:\n    /* \"#utility.yul\":1121:1137   */\n  dup6\n  mload\n  sub(shl(0xa0, 0x01), 0x01)\n    /* \"#utility.yul\":1166:1197   */\n  dup2\n  and\n    /* \"#utility.yul\":1156:1198   */\n  dup2\n  eq\n    /* \"#utility.yul\":1146:1216   */\n  tag_35\n  jumpi\n    /* \"#utility.yul\":1212:1213   */\n  0x00\n    /* \"#utility.yul\":1209:1210   */\n  dup1\n    /* \"#utility.yul\":1202:1214   */\n  revert\n    /* \"#utility.yul\":1146:1216   */\ntag_35:\n    /* \"#utility.yul\":1284:1286   */\n  0x20\n    /* \"#utility.yul\":1269:1287   */\n  dup8\n  add\n    /* \"#utility.yul\":1263:1288   */\n  mload\n    /* \"#utility.yul\":1235:1240   */\n  swap1\n  swap6\n  pop\n  sub(shl(0x40, 0x01), 0x01)\n    /* \"#utility.yul\":1337:1351   */\n  dup1\n  dup3\n  gt\n    /* \"#utility.yul\":1334:1368   */\n  iszero\n  tag_36\n  jumpi\n    /* \"#utility.yul\":1364:1365   */\n  0x00\n    /* \"#utility.yul\":1361:1362   */\n  dup1\n    /* \"#utility.yul\":1354:1366   */\n  revert\n    /* \"#utility.yul\":1334:1368   */\ntag_36:\n    /* \"#utility.yul\":1387:1448   */\n  tag_37\n    /* \"#utility.yul\":1440:1447   */\n  dup10\n    /* \"#utility.yul\":1431:1437   */\n  dup4\n    /* \"#utility.yul\":1420:1429   */\n  dup11\n    /* \"#utility.yul\":1416:1438   */\n  add\n    /* \"#utility.yul\":1387:1448   */\n  tag_18\n  jump\t// in\ntag_37:\n    /* \"#utility.yul\":1377:1448   */\n  swap6\n  pop\n    /* \"#utility.yul\":1494:1496   */\n  0x40\n    /* \"#utility.yul\":1483:1492   */\n  dup9\n    /* \"#utility.yul\":1479:1497   */\n  add\n    /* \"#utility.yul\":1473:1498   */\n  mload\n    /* \"#utility.yul\":1457:1498   */\n  swap2\n  pop\n    /* \"#utility.yul\":1523:1525   */\n  dup1\n    /* \"#utility.yul\":1513:1521   */\n  dup3\n    /* \"#utility.yul\":1510:1526   */\n  gt\n    /* \"#utility.yul\":1507:1543   */\n  iszero\n  tag_38\n  jumpi\n    /* \"#utility.yul\":1539:1540   */\n  0x00\n    /* \"#utility.yul\":1536:1537   */\n  dup1\n    /* \"#utility.yul\":1529:1541   */\n  revert\n    /* \"#utility.yul\":1507:1543   */\ntag_38:\n  pop\n    /* \"#utility.yul\":1562:1625   */\n  tag_39\n    /* \"#utility.yul\":1617:1624   */\n  dup9\n    /* \"#utility.yul\":1606:1614   */\n  dup3\n    /* \"#utility.yul\":1595:1604   */\n  dup10\n    /* \"#utility.yul\":1591:1615   */\n  add\n    /* \"#utility.yul\":1562:1625   */\n  tag_18\n  jump\t// in\ntag_39:\n    /* \"#utility.yul\":1665:1667   */\n  0x60\n    /* \"#utility.yul\":1650:1668   */\n  dup9\n  add\n    /* \"#utility.yul\":1644:1669   */\n  mload\n    /* \"#utility.yul\":1709:1712   */\n  0x80\n    /* \"#utility.yul\":1694:1713   */\n  swap1\n  swap9\n  add\n    /* \"#utility.yul\":1688:1714   */\n  mload\n    /* \"#utility.yul\":867:1720   */\n  swap7\n  swap10\n  swap6\n  swap9\n  pop\n    /* \"#utility.yul\":1552:1625   */\n  swap7\n    /* \"#utility.yul\":1644:1669   */\n  swap6\n    /* \"#utility.yul\":1688:1714   */\n  swap5\n    /* \"#utility.yul\":867:1720   */\n  swap4\n  pop\n  pop\n  pop\n  pop\n  jump\t// out\n    /* \"#utility.yul\":1725:2105   */\ntag_19:\n    /* \"#utility.yul\":1804:1805   */\n  0x01\n    /* \"#utility.yul\":1800:1812   */\n  dup2\n  dup2\n  shr\n  swap1\n    /* \"#utility.yul\":1847:1859   */\n  dup3\n  and\n  dup1\n    /* \"#utility.yul\":1868:1929   */\n  tag_41\n  jumpi\n    /* \"#utility.yul\":1922:1926   */\n  0x7f\n    /* \"#utility.yul\":1914:1920   */\n  dup3\n    /* \"#utility.yul\":1910:1927   */\n  and\n    /* \"#utility.yul\":1900:1927   */\n  swap2\n  pop\n    /* \"#utility.yul\":1868:1929   */\ntag_41:\n    /* \"#utility.yul\":1975:1977   */\n  0x20\n    /* \"#utility.yul\":1967:1973   */\n  dup3\n    /* \"#utility.yul\":1964:1978   */\n  lt\n    /* \"#utility.yul\":1944:1962   */\n  dup2\n    /* \"#utility.yul\":1941:1979   */\n  sub\n    /* \"#utility.yul\":1938:2099   */\n  tag_42\n  jumpi\n    /* \"#utility.yul\":2021:2031   */\n  0x4e487b71\n    /* \"#utility.yul\":2016:2019   */\n  0xe0\n    /* \"#utility.yul\":2012:2032   */\n  shl\n    /* \"#utility.yul\":2009:2010   */\n  0x00\n    /* \"#utility.yul\":2002:2033   */\n  mstore\n    /* \"#utility.yul\":2056:2060   */\n  0x22\n    /* \"#utility.yul\":2053:2054   */\n  0x04\n    /* \"#utility.yul\":2046:2061   */\n  mstore\n    /* \"#utility.yul\":2084:2088   */\n  0x24\n    /* \"#utility.yul\":2081:2082   */\n  0x00\n    /* \"#utility.yul\":2074:2089   */\n  revert\n    /* \"#utility.yul\":1938:2099   */\ntag_42:\n  pop\n    /* \"#utility.yul\":1725:2105   */\n  swap2\n  swap1\n  pop\n  jump\t// out\n    /* \"#utility.yul\":2236:2754   */\ntag_21:\n    /* \"#utility.yul\":2338:2340   */\n  0x1f\n    /* \"#utility.yul\":2333:2336   */\n  dup3\n    /* \"#utility.yul\":2330:2341   */\n  gt\n    /* \"#utility.yul\":2327:2748   */\n  iszero\n  tag_45\n  jumpi\n    /* \"#utility.yul\":2374:2379   */\n  dup1\n    /* \"#utility.yul\":2371:2372   */\n  0x00\n    /* \"#utility.yul\":2364:2380   */\n  mstore\n    /* \"#utility.yul\":2418:2422   */\n  0x20\n    /* \"#utility.yul\":2415:2416   */\n  0x00\n    /* \"#utility.yul\":2405:2423   */\n  keccak256\n    /* \"#utility.yul\":2488:2490   */\n  0x1f\n    /* \"#utility.yul\":2476:2486   */\n  dup5\n    /* \"#utility.yul\":2472:2491   */\n  add\n    /* \"#utility.yul\":2469:2470   */\n  0x05\n    /* \"#utility.yul\":2465:2492   */\n  shr\n    /* \"#utility.yul\":2459:2463   */\n  dup2\n    /* \"#utility.yul\":2455:2493   */\n  add\n    /* \"#utility.yul\":2524:2528   */\n  0x20\n    /* \"#utility.yul\":2512:2522   */\n  dup6\n    /* \"#utility.yul\":2509:2529   */\n  lt\n    /* \"#utility.yul\":2506:2553   */\n  iszero\n  tag_46\n  jumpi\n  pop\n    /* \"#utility.yul\":2547:2551   */\n  dup1\n    /* \"#utility.yul\":2506:2553   */\ntag_46:\n    /* \"#utility.yul\":2602:2604   */\n  0x1f\n    /* \"#utility.yul\":2597:2600   */\n  dup5\n    /* \"#utility.yul\":2593:2605   */\n  add\n    /* \"#utility.yul\":2590:2591   */\n  0x05\n    /* \"#utility.yul\":2586:2606   */\n  shr\n    /* \"#utility.yul\":2580:2584   */\n  dup3\n    /* \"#utility.yul\":2576:2607   */\n  add\n    /* \"#utility.yul\":2566:2607   */\n  swap2\n  pop\n    /* \"#utility.yul\":2657:2738   */\ntag_47:\n    /* \"#utility.yul\":2675:2677   */\n  dup2\n    /* \"#utility.yul\":2668:2673   */\n  dup2\n    /* \"#utility.yul\":2665:2678   */\n  lt\n    /* \"#utility.yul\":2657:2738   */\n  iszero\n  tag_49\n  jumpi\n    /* \"#utility.yul\":2734:2735   */\n  0x00\n    /* \"#utility.yul\":2720:2736   */\n  dup2\n  sstore\n    /* \"#utility.yul\":2701:2702   */\n  0x01\n    /* \"#utility.yul\":2690:2703   */\n  add\n    /* \"#utility.yul\":2657:2738   */\n  jump(tag_47)\ntag_49:\n    /* \"#utility.yul\":2661:2664   */\n  pop\n  pop\n    /* \"#utility.yul\":2327:2748   */\ntag_45:\n    /* \"#utility.yul\":2236:2754   */\n  pop\n  pop\n  pop\n  jump\t// out\n    /* \"#utility.yul\":2930:4275   */\ntag_7:\n    /* \"#utility.yul\":3050:3060   */\n  dup2\n  mload\n  sub(shl(0x40, 0x01), 0x01)\n    /* \"#utility.yul\":3072:3102   */\n  dup2\n  gt\n    /* \"#utility.yul\":3069:3125   */\n  iszero\n  tag_53\n  jumpi\n    /* \"#utility.yul\":3105:3123   */\n  tag_53\n  tag_17\n  jump\t// in\ntag_53:\n    /* \"#utility.yul\":3134:3231   */\n  tag_54\n    /* \"#utility.yul\":3224:3230   */\n  dup2\n    /* \"#utility.yul\":3184:3222   */\n  tag_55\n    /* \"#utility.yul\":3216:3220   */\n  dup5\n    /* \"#utility.yul\":3210:3221   */\n  sload\n    /* \"#utility.yul\":3184:3222   */\n  tag_19\n  jump\t// in\ntag_55:\n    /* \"#utility.yul\":3178:3182   */\n  dup5\n    /* \"#utility.yul\":3134:3231   */\n  tag_21\n  jump\t// in\ntag_54:\n    /* \"#utility.yul\":3286:3290   */\n  0x20\n  dup1\n    /* \"#utility.yul\":3343:3345   */\n  0x1f\n    /* \"#utility.yul\":3332:3346   */\n  dup4\n  gt\n    /* \"#utility.yul\":3360:3361   */\n  0x01\n    /* \"#utility.yul\":3355:4018   */\n  dup2\n  eq\n  tag_57\n  jumpi\n    /* \"#utility.yul\":4062:4063   */\n  0x00\n    /* \"#utility.yul\":4079:4085   */\n  dup5\n    /* \"#utility.yul\":4076:4165   */\n  iszero\n  tag_58\n  jumpi\n  pop\n    /* \"#utility.yul\":4131:4150   */\n  dup6\n  dup4\n  add\n    /* \"#utility.yul\":4125:4151   */\n  mload\n    /* \"#utility.yul\":4076:4165   */\ntag_58:\n  not(0x00)\n    /* \"#utility.yul\":2887:2888   */\n  0x03\n    /* \"#utility.yul\":2883:2894   */\n  dup7\n  swap1\n  shl\n    /* \"#utility.yul\":2879:2903   */\n  shr\n    /* \"#utility.yul\":2875:2904   */\n  not\n    /* \"#utility.yul\":2865:2905   */\n  and\n    /* \"#utility.yul\":2911:2912   */\n  0x01\n    /* \"#utility.yul\":2907:2918   */\n  dup6\n  swap1\n  shl\n    /* \"#utility.yul\":2862:2919   */\n  or\n    /* \"#utility.yul\":4178:4259   */\n  dup6\n  sstore\n    /* \"#utility.yul\":3325:4269   */\n  jump(tag_56)\n    /* \"#utility.yul\":3355:4018   */\ntag_57:\n    /* \"#utility.yul\":2183:2184   */\n  0x00\n    /* \"#utility.yul\":2176:2190   */\n  dup6\n  dup2\n  mstore\n    /* \"#utility.yul\":2220:2224   */\n  0x20\n    /* \"#utility.yul\":2207:2225   */\n  dup2\n  keccak256\n  not(0x1f)\n    /* \"#utility.yul\":3391:3411   */\n  dup7\n  and\n  swap2\n    /* \"#utility.yul\":3509:3745   */\ntag_61:\n    /* \"#utility.yul\":3523:3530   */\n  dup3\n    /* \"#utility.yul\":3520:3521   */\n  dup2\n    /* \"#utility.yul\":3517:3531   */\n  lt\n    /* \"#utility.yul\":3509:3745   */\n  iszero\n  tag_63\n  jumpi\n    /* \"#utility.yul\":3612:3631   */\n  dup9\n  dup7\n  add\n    /* \"#utility.yul\":3606:3632   */\n  mload\n    /* \"#utility.yul\":3591:3633   */\n  dup3\n  sstore\n    /* \"#utility.yul\":3704:3731   */\n  swap5\n  dup5\n  add\n  swap5\n    /* \"#utility.yul\":3672:3673   */\n  0x01\n    /* \"#utility.yul\":3660:3674   */\n  swap1\n  swap2\n  add\n  swap1\n    /* \"#utility.yul\":3539:3558   */\n  dup5\n  add\n    /* \"#utility.yul\":3509:3745   */\n  jump(tag_61)\ntag_63:\n    /* \"#utility.yul\":3513:3516   */\n  pop\n    /* \"#utility.yul\":3773:3779   */\n  dup6\n    /* \"#utility.yul\":3764:3771   */\n  dup3\n    /* \"#utility.yul\":3761:3780   */\n  lt\n    /* \"#utility.yul\":3758:3959   */\n  iszero\n  tag_64\n  jumpi\n    /* \"#utility.yul\":3834:3853   */\n  dup8\n  dup6\n  add\n    /* \"#utility.yul\":3828:3854   */\n  mload\n  not(0x00)\n    /* \"#utility.yul\":3917:3918   */\n  0x03\n    /* \"#utility.yul\":3913:3927   */\n  dup9\n  swap1\n  shl\n    /* \"#utility.yul\":3929:3932   */\n  0xf8\n    /* \"#utility.yul\":3909:3933   */\n  and\n    /* \"#utility.yul\":3905:3942   */\n  shr\n    /* \"#utility.yul\":3901:3943   */\n  not\n    /* \"#utility.yul\":3886:3944   */\n  and\n    /* \"#utility.yul\":3871:3945   */\n  dup2\n  sstore\n    /* \"#utility.yul\":3758:3959   */\ntag_64:\n  pop\n  pop\n    /* \"#utility.yul\":4005:4006   */\n  0x01\n    /* \"#utility.yul\":3996:4002   */\n  dup5\n    /* \"#utility.yul\":3993:3994   */\n  0x01\n    /* \"#utility.yul\":3989:4003   */\n  shl\n    /* \"#utility.yul\":3985:4007   */\n  add\n    /* \"#utility.yul\":3979:3983   */\n  dup6\n    /* \"#utility.yul\":3972:4008   */\n  sstore\n    /* \"#utility.yul\":3325:4269   */\ntag_56:\n  pop\n  pop\n  pop\n  pop\n    /* \"#utility.yul\":2930:4275   */\n  pop\n  pop\n  jump\t// out\n    /* \"#utility.yul\":4280:4407   */\ntag_23:\n    /* \"#utility.yul\":4341:4351   */\n  0x4e487b71\n    /* \"#utility.yul\":4336:4339   */\n  0xe0\n    /* \"#utility.yul\":4332:4352   */\n  shl\n    /* \"#utility.yul\":4329:4330   */\n  0x00\n    /* \"#utility.yul\":4322:4353   */\n  mstore\n    /* \"#utility.yul\":4372:4376   */\n  0x11\n    /* \"#utility.yul\":4369:4370   */\n  0x04\n    /* \"#utility.yul\":4362:4377   */\n  mstore\n    /* \"#utility.yul\":4396:4400   */\n  0x24\n    /* \"#utility.yul\":4393:4394   */\n  0x00\n    /* \"#utility.yul\":4386:4401   */\n  revert\n    /* \"#utility.yul\":4412:4580   */\ntag_10:\n    /* \"#utility.yul\":4485:4494   */\n  dup1\n  dup3\n  mul\n    /* \"#utility.yul\":4516:4525   */\n  dup2\n  iszero\n    /* \"#utility.yul\":4533:4548   */\n  dup3\n  dup3\n  div\n    /* \"#utility.yul\":4527:4549   */\n  dup5\n  eq\n    /* \"#utility.yul\":4513:4550   */\n  or\n    /* \"#utility.yul\":4503:4574   */\n  tag_68\n  jumpi\n    /* \"#utility.yul\":4554:4572   */\n  tag_68\n  tag_23\n  jump\t// in\ntag_68:\n    /* \"#utility.yul\":4412:4580   */\n  swap3\n  swap2\n  pop\n  pop\n  jump\t// out\n    /* \"#utility.yul\":4585:4710   */\ntag_12:\n    /* \"#utility.yul\":4650:4659   */\n  dup1\n  dup3\n  add\n    /* \"#utility.yul\":4671:4681   */\n  dup1\n  dup3\n  gt\n    /* \"#utility.yul\":4668:4704   */\n  iszero\n  tag_68\n  jumpi\n    /* \"#utility.yul\":4684:4702   */\n  tag_68\n  tag_23\n  jump\t// in\n    /* \"#utility.yul\":4715:4842   */\ntag_24:\n    /* \"EtherFund.sol\":60:4240  contract EtherFund {... */\n  dataSize(sub_0)\n  dup1\n  dataOffset(sub_0)\n  0x00\n  codecopy\n  0x00\n  return\nstop\n\nsub_0: assembly {\n        /* \"EtherFund.sol\":60:4240  contract EtherFund {... */\n      mstore(0x40, 0x80)\n      jumpi(tag_1, lt(calldatasize, 0x04))\n      shr(0xe0, calldataload(0x00))\n      dup1\n      0x7284e416\n      gt\n      tag_22\n      jumpi\n      dup1\n      0xb85dfb80\n      gt\n      tag_23\n      jumpi\n      dup1\n      0xc4ae3168\n      gt\n      tag_24\n      jumpi\n      dup1\n      0xc4ae3168\n      eq\n      tag_19\n      jumpi\n      dup1\n      0xca1d209d\n      eq\n      tag_20\n      jumpi\n      dup1\n      0xde170570\n      eq\n      tag_21\n      jumpi\n      0x00\n      dup1\n      revert\n    tag_24:\n      dup1\n      0xb85dfb80\n      eq\n      tag_17\n      jumpi\n      dup1\n      0xc19d93fb\n      eq\n      tag_18\n      jumpi\n      0x00\n      dup1\n      revert\n    tag_23:\n      dup1\n      0x7adba527\n      gt\n      tag_25\n      jumpi\n      dup1\n      0x7adba527\n      eq\n      tag_14\n      jumpi\n      dup1\n      0x8da5cb5b\n      eq\n      tag_15\n      jumpi\n      dup1\n      0x8ece7b91\n      eq\n      tag_16\n      jumpi\n      0x00\n      dup1\n      revert\n    tag_25:\n      dup1\n      0x7284e416\n      eq\n      tag_12\n      jumpi\n      dup1\n      0x7497211b\n      eq\n      tag_13\n      jumpi\n      0x00\n      dup1\n      revert\n    tag_22:\n      dup1\n      0x3ccfd60b\n      gt\n      tag_26\n      jumpi\n      dup1\n      0x590e1ae3\n      gt\n      tag_27\n      jumpi\n      dup1\n      0x590e1ae3\n      eq\n      tag_9\n      jumpi\n      dup1\n      0x5c975abb\n      eq\n      tag_10\n      jumpi\n      dup1\n      0x6f9fb98a\n      eq\n      tag_11\n      jumpi\n      0x00\n      dup1\n      revert\n    tag_27:\n      dup1\n      0x3ccfd60b\n      eq\n      tag_7\n      jumpi\n      dup1\n      0x40193883\n      eq\n      tag_8\n      jumpi\n      0x00\n      dup1\n      revert\n    tag_26:\n      dup1\n      0x10550515\n      gt\n      tag_28\n      jumpi\n      dup1\n      0x10550515\n      eq\n      tag_4\n      jumpi\n      dup1\n      0x29dcb0cf\n      eq\n      tag_5\n      jumpi\n      dup1\n      0x389b7533\n      eq\n      tag_6\n      jumpi\n      0x00\n      dup1\n      revert\n    tag_28:\n      dup1\n      0x039af9eb\n      eq\n      tag_2\n      jumpi\n      dup1\n      0x06fdde03\n      eq\n      tag_3\n      jumpi\n    tag_1:\n      0x00\n      dup1\n      revert\n        /* \"EtherFund.sol\":557:576  Tier[] public tiers */\n    tag_2:\n      callvalue\n      dup1\n      iszero\n      tag_29\n      jumpi\n      0x00\n      dup1\n      revert\n    tag_29:\n      pop\n      tag_30\n      tag_31\n      calldatasize\n      0x04\n      tag_32\n      jump\t// in\n    tag_31:\n      tag_33\n      jump\t// in\n    tag_30:\n      mload(0x40)\n      tag_34\n      swap4\n      swap3\n      swap2\n      swap1\n      tag_35\n      jump\t// in\n    tag_34:\n      mload(0x40)\n      dup1\n      swap2\n      sub\n      swap1\n      return\n        /* \"EtherFund.sol\":86:104  string public name */\n    tag_3:\n      callvalue\n      dup1\n      iszero\n      tag_36\n      jumpi\n      0x00\n      dup1\n      revert\n    tag_36:\n      pop\n      tag_37\n      tag_38\n      jump\t// in\n    tag_37:\n      mload(0x40)\n      tag_34\n      swap2\n      swap1\n      tag_40\n      jump\t// in\n        /* \"EtherFund.sol\":3821:4105  function getCampaignStatus() public view returns (CampaignState) {... */\n    tag_4:\n      callvalue\n      dup1\n      iszero\n      tag_41\n      jumpi\n      0x00\n      dup1\n      revert\n    tag_41:\n      pop\n      tag_42\n      tag_43\n      jump\t// in\n    tag_42:\n      mload(0x40)\n      tag_34\n      swap2\n      swap1\n      tag_45\n      jump\t// in\n        /* \"EtherFund.sol\":169:192  uint256 public deadline */\n    tag_5:\n      callvalue\n      dup1\n      iszero\n      tag_46\n      jumpi\n      0x00\n      dup1\n      revert\n    tag_46:\n      pop\n      tag_47\n      sload(0x03)\n      dup2\n      jump\n    tag_47:\n      mload(0x40)\n        /* \"#utility.yul\":1714:1739   */\n      swap1\n      dup2\n      mstore\n        /* \"#utility.yul\":1702:1704   */\n      0x20\n        /* \"#utility.yul\":1687:1705   */\n      add\n        /* \"EtherFund.sol\":169:192  uint256 public deadline */\n      tag_34\n        /* \"#utility.yul\":1568:1745   */\n      jump\n        /* \"EtherFund.sol\":4113:4237  function extendDeadline(uint256 _daysToAdd) public onlyOwner campaignOpen {... */\n    tag_6:\n      callvalue\n      dup1\n      iszero\n      tag_51\n      jumpi\n      0x00\n      dup1\n      revert\n    tag_51:\n      pop\n      tag_52\n      tag_53\n      calldatasize\n      0x04\n      tag_32\n      jump\t// in\n    tag_53:\n      tag_54\n      jump\t// in\n    tag_52:\n      stop\n        /* \"EtherFund.sol\":2658:2978  function withdraw() public onlyOwner {... */\n    tag_7:\n      callvalue\n      dup1\n      iszero\n      tag_55\n      jumpi\n      0x00\n      dup1\n      revert\n    tag_55:\n      pop\n      tag_52\n      tag_57\n      jump\t// in\n        /* \"EtherFund.sol\":143:162  uint256 public goal */\n    tag_8:\n      callvalue\n      dup1\n      iszero\n      tag_58\n      jumpi\n      0x00\n      dup1\n      revert\n    tag_58:\n      pop\n      tag_47\n      sload(0x02)\n      dup2\n      jump\n        /* \"EtherFund.sol\":3101:3474  function refund() public {... */\n    tag_9:\n      callvalue\n      dup1\n      iszero\n      tag_62\n      jumpi\n      0x00\n      dup1\n      revert\n    tag_62:\n      pop\n      tag_52\n      tag_64\n      jump\t// in\n        /* \"EtherFund.sol\":226:244  bool public paused */\n    tag_10:\n      callvalue\n      dup1\n      iszero\n      tag_65\n      jumpi\n      0x00\n      dup1\n      revert\n    tag_65:\n      pop\n      sload(0x04)\n      tag_66\n      swap1\n      shl(0xa0, 0x01)\n      swap1\n      div\n      0xff\n      and\n      dup2\n      jump\n    tag_66:\n      mload(0x40)\n        /* \"#utility.yul\":1915:1929   */\n      swap1\n      iszero\n        /* \"#utility.yul\":1908:1930   */\n      iszero\n        /* \"#utility.yul\":1890:1931   */\n      dup2\n      mstore\n        /* \"#utility.yul\":1878:1880   */\n      0x20\n        /* \"#utility.yul\":1863:1881   */\n      add\n        /* \"EtherFund.sol\":226:244  bool public paused */\n      tag_34\n        /* \"#utility.yul\":1750:1937   */\n      jump\n        /* \"EtherFund.sol\":2986:3093  function getContractBalance() public view returns (uint256) {... */\n    tag_11:\n      callvalue\n      dup1\n      iszero\n      tag_70\n      jumpi\n      0x00\n      dup1\n      revert\n    tag_70:\n      pop\n        /* \"EtherFund.sol\":3064:3085  address(this).balance */\n      selfbalance\n        /* \"EtherFund.sol\":2986:3093  function getContractBalance() public view returns (uint256) {... */\n      jump(tag_47)\n        /* \"EtherFund.sol\":111:136  string public description */\n    tag_12:\n      callvalue\n      dup1\n      iszero\n      tag_74\n      jumpi\n      0x00\n      dup1\n      revert\n    tag_74:\n      pop\n      tag_37\n      tag_76\n      jump\t// in\n        /* \"EtherFund.sol\":2453:2650  function removeTier(uint256 _index) public onlyOwner {... */\n    tag_13:\n      callvalue\n      dup1\n      iszero\n      tag_78\n      jumpi\n      0x00\n      dup1\n      revert\n    tag_78:\n      pop\n      tag_52\n      tag_80\n      calldatasize\n      0x04\n      tag_32\n      jump\t// in\n    tag_80:\n      tag_81\n      jump\t// in\n        /* \"EtherFund.sol\":3482:3635  function hasFundedTier(address _backer, uint256 _tierIndex) public view returns (bool) {... */\n    tag_14:\n      callvalue\n      dup1\n      iszero\n      tag_82\n      jumpi\n      0x00\n      dup1\n      revert\n    tag_82:\n      pop\n      tag_66\n      tag_84\n      calldatasize\n      0x04\n      tag_85\n      jump\t// in\n    tag_84:\n      tag_86\n      jump\t// in\n        /* \"EtherFund.sol\":199:219  address public owner */\n    tag_15:\n      callvalue\n      dup1\n      iszero\n      tag_88\n      jumpi\n      0x00\n      dup1\n      revert\n    tag_88:\n      pop\n      sload(0x04)\n      tag_89\n      swap1\n      sub(shl(0xa0, 0x01), 0x01)\n      and\n      dup2\n      jump\n    tag_89:\n      mload(0x40)\n      sub(shl(0xa0, 0x01), 0x01)\n        /* \"#utility.yul\":2566:2621   */\n      swap1\n      swap2\n      and\n        /* \"#utility.yul\":2548:2622   */\n      dup2\n      mstore\n        /* \"#utility.yul\":2536:2538   */\n      0x20\n        /* \"#utility.yul\":2521:2539   */\n      add\n        /* \"EtherFund.sol\":199:219  address public owner */\n      tag_34\n        /* \"#utility.yul\":2402:2628   */\n      jump\n        /* \"EtherFund.sol\":2229:2445  function addTier(... */\n    tag_16:\n      callvalue\n      dup1\n      iszero\n      tag_93\n      jumpi\n      0x00\n      dup1\n      revert\n    tag_93:\n      pop\n      tag_52\n      tag_95\n      calldatasize\n      0x04\n      tag_96\n      jump\t// in\n    tag_95:\n      tag_97\n      jump\t// in\n        /* \"EtherFund.sol\":583:624  mapping(address => Backer) public backers */\n    tag_17:\n      callvalue\n      dup1\n      iszero\n      tag_98\n      jumpi\n      0x00\n      dup1\n      revert\n    tag_98:\n      pop\n      tag_47\n      tag_100\n      calldatasize\n      0x04\n      tag_101\n      jump\t// in\n    tag_100:\n      mstore(0x20, 0x06)\n      0x00\n      swap1\n      dup2\n      mstore\n      0x40\n      swap1\n      keccak256\n      sload\n      dup2\n      jump\n        /* \"EtherFund.sol\":308:334  CampaignState public state */\n    tag_18:\n      callvalue\n      dup1\n      iszero\n      tag_104\n      jumpi\n      0x00\n      dup1\n      revert\n    tag_104:\n      pop\n      sload(0x04)\n      tag_42\n      swap1\n      shl(0xa8, 0x01)\n      swap1\n      div\n      0xff\n      and\n      dup2\n      jump\n        /* \"EtherFund.sol\":3738:3813  function togglePause() public onlyOwner {... */\n    tag_19:\n      callvalue\n      dup1\n      iszero\n      tag_108\n      jumpi\n      0x00\n      dup1\n      revert\n    tag_108:\n      pop\n      tag_52\n      tag_110\n      jump\t// in\n        /* \"EtherFund.sol\":1797:2221  function fund(uint256 _tierIndex) public payable campaignOpen notPaused {... */\n    tag_20:\n      tag_52\n      tag_112\n      calldatasize\n      0x04\n      tag_32\n      jump\t// in\n    tag_112:\n      tag_113\n      jump\t// in\n        /* \"EtherFund.sol\":3643:3730  function getTiers() public view returns (Tier[] memory) {... */\n    tag_21:\n      callvalue\n      dup1\n      iszero\n      tag_114\n      jumpi\n      0x00\n      dup1\n      revert\n    tag_114:\n      pop\n      tag_115\n      tag_116\n      jump\t// in\n    tag_115:\n      mload(0x40)\n      tag_34\n      swap2\n      swap1\n      tag_118\n      jump\t// in\n        /* \"EtherFund.sol\":557:576  Tier[] public tiers */\n    tag_33:\n      0x05\n      dup2\n      dup2\n      sload\n      dup2\n      lt\n      tag_119\n      jumpi\n      0x00\n      dup1\n      revert\n    tag_119:\n      swap1\n      0x00\n      mstore\n      keccak256(0x00, 0x20)\n      swap1\n      0x03\n      mul\n      add\n      0x00\n      swap2\n      pop\n      swap1\n      pop\n      dup1\n      0x00\n      add\n      dup1\n      sload\n      tag_121\n      swap1\n      tag_122\n      jump\t// in\n    tag_121:\n      dup1\n      0x1f\n      add\n      0x20\n      dup1\n      swap2\n      div\n      mul\n      0x20\n      add\n      mload(0x40)\n      swap1\n      dup2\n      add\n      0x40\n      mstore\n      dup1\n      swap3\n      swap2\n      swap1\n      dup2\n      dup2\n      mstore\n      0x20\n      add\n      dup3\n      dup1\n      sload\n      tag_123\n      swap1\n      tag_122\n      jump\t// in\n    tag_123:\n      dup1\n      iszero\n      tag_124\n      jumpi\n      dup1\n      0x1f\n      lt\n      tag_125\n      jumpi\n      0x0100\n      dup1\n      dup4\n      sload\n      div\n      mul\n      dup4\n      mstore\n      swap2\n      0x20\n      add\n      swap2\n      jump(tag_124)\n    tag_125:\n      dup3\n      add\n      swap2\n      swap1\n      0x00\n      mstore\n      keccak256(0x00, 0x20)\n      swap1\n    tag_126:\n      dup2\n      sload\n      dup2\n      mstore\n      swap1\n      0x01\n      add\n      swap1\n      0x20\n      add\n      dup1\n      dup4\n      gt\n      tag_126\n      jumpi\n      dup3\n      swap1\n      sub\n      0x1f\n      and\n      dup3\n      add\n      swap2\n    tag_124:\n      pop\n      pop\n      pop\n      pop\n      pop\n      swap1\n      dup1\n      0x01\n      add\n      sload\n      swap1\n      dup1\n      0x02\n      add\n      sload\n      swap1\n      pop\n      dup4\n      jump\t// out\n        /* \"EtherFund.sol\":86:104  string public name */\n    tag_38:\n      0x00\n      dup1\n      sload\n      tag_127\n      swap1\n      tag_122\n      jump\t// in\n    tag_127:\n      dup1\n      0x1f\n      add\n      0x20\n      dup1\n      swap2\n      div\n      mul\n      0x20\n      add\n      mload(0x40)\n      swap1\n      dup2\n      add\n      0x40\n      mstore\n      dup1\n      swap3\n      swap2\n      swap1\n      dup2\n      dup2\n      mstore\n      0x20\n      add\n      dup3\n      dup1\n      sload\n      tag_128\n      swap1\n      tag_122\n      jump\t// in\n    tag_128:\n      dup1\n      iszero\n      tag_129\n      jumpi\n      dup1\n      0x1f\n      lt\n      tag_130\n      jumpi\n      0x0100\n      dup1\n      dup4\n      sload\n      div\n      mul\n      dup4\n      mstore\n      swap2\n      0x20\n      add\n      swap2\n      jump(tag_129)\n    tag_130:\n      dup3\n      add\n      swap2\n      swap1\n      0x00\n      mstore\n      keccak256(0x00, 0x20)\n      swap1\n    tag_131:\n      dup2\n      sload\n      dup2\n      mstore\n      swap1\n      0x01\n      add\n      swap1\n      0x20\n      add\n      dup1\n      dup4\n      gt\n      tag_131\n      jumpi\n      dup3\n      swap1\n      sub\n      0x1f\n      and\n      dup3\n      add\n      swap2\n    tag_129:\n      pop\n      pop\n      pop\n      pop\n      pop\n      dup2\n      jump\t// out\n        /* \"EtherFund.sol\":3821:4105  function getCampaignStatus() public view returns (CampaignState) {... */\n    tag_43:\n        /* \"EtherFund.sol\":3871:3884  CampaignState */\n      0x00\n      dup1\n        /* \"EtherFund.sol\":3901:3906  state */\n      sload(0x04)\n      shl(0xa8, 0x01)\n      swap1\n      div\n      0xff\n      and\n        /* \"EtherFund.sol\":3901:3930  state == CampaignState.Active */\n      0x02\n      dup2\n      gt\n      iszero\n      tag_137\n      jumpi\n      tag_137\n      tag_135\n      jump\t// in\n    tag_137:\n      eq\n        /* \"EtherFund.sol\":3901:3960  state == CampaignState.Active && block.timestamp > deadline */\n      dup1\n      iszero\n      tag_138\n      jumpi\n      pop\n        /* \"EtherFund.sol\":3952:3960  deadline */\n      sload(0x03)\n        /* \"EtherFund.sol\":3934:3949  block.timestamp */\n      timestamp\n        /* \"EtherFund.sol\":3934:3960  block.timestamp > deadline */\n      gt\n        /* \"EtherFund.sol\":3901:3960  state == CampaignState.Active && block.timestamp > deadline */\n    tag_138:\n        /* \"EtherFund.sol\":3897:4075  if (state == CampaignState.Active && block.timestamp > deadline) {... */\n      iszero\n      tag_139\n      jumpi\n        /* \"EtherFund.sol\":4009:4013  goal */\n      sload(0x02)\n        /* \"EtherFund.sol\":3984:4005  address(this).balance */\n      selfbalance\n        /* \"EtherFund.sol\":3984:4013  address(this).balance >= goal */\n      lt\n      iszero\n        /* \"EtherFund.sol\":3984:4063  address(this).balance >= goal ? CampaignState.Successful : CampaignState.Failed */\n      tag_140\n      jumpi\n      pop\n        /* \"EtherFund.sol\":4043:4063  CampaignState.Failed */\n      0x02\n      swap1\n        /* \"EtherFund.sol\":3821:4105  function getCampaignStatus() public view returns (CampaignState) {... */\n      jump\t// out\n        /* \"EtherFund.sol\":3984:4063  address(this).balance >= goal ? CampaignState.Successful : CampaignState.Failed */\n    tag_140:\n      pop\n        /* \"EtherFund.sol\":4016:4040  CampaignState.Successful */\n      0x01\n      swap1\n        /* \"EtherFund.sol\":3821:4105  function getCampaignStatus() public view returns (CampaignState) {... */\n      jump\t// out\n        /* \"EtherFund.sol\":3897:4075  if (state == CampaignState.Active && block.timestamp > deadline) {... */\n    tag_139:\n      pop\n        /* \"EtherFund.sol\":4092:4097  state */\n      sload(0x04)\n      shl(0xa8, 0x01)\n      swap1\n      div\n      0xff\n      and\n      swap1\n        /* \"EtherFund.sol\":3821:4105  function getCampaignStatus() public view returns (CampaignState) {... */\n      jump\t// out\n        /* \"EtherFund.sol\":4113:4237  function extendDeadline(uint256 _daysToAdd) public onlyOwner campaignOpen {... */\n    tag_54:\n        /* \"EtherFund.sol\":687:692  owner */\n      and(sub(shl(0xa0, 0x01), 0x01), sload(0x04))\n        /* \"EtherFund.sol\":673:683  msg.sender */\n      caller\n        /* \"EtherFund.sol\":673:692  msg.sender == owner */\n      eq\n        /* \"EtherFund.sol\":665:710  require(msg.sender == owner, \"Not the owner\") */\n      tag_143\n      jumpi\n      mload(0x40)\n      shl(0xe5, 0x461bcd)\n      dup2\n      mstore\n        /* \"#utility.yul\":5690:5692   */\n      0x20\n        /* \"EtherFund.sol\":665:710  require(msg.sender == owner, \"Not the owner\") */\n      0x04\n      dup3\n      add\n        /* \"#utility.yul\":5672:5693   */\n      mstore\n        /* \"#utility.yul\":5729:5731   */\n      0x0d\n        /* \"#utility.yul\":5709:5727   */\n      0x24\n      dup3\n      add\n        /* \"#utility.yul\":5702:5732   */\n      mstore\n      shl(0x99, 0x2737ba103a34329037bbb732b9)\n        /* \"#utility.yul\":5748:5766   */\n      0x44\n      dup3\n      add\n        /* \"#utility.yul\":5741:5784   */\n      mstore\n        /* \"#utility.yul\":5801:5819   */\n      0x64\n      add\n        /* \"EtherFund.sol\":665:710  require(msg.sender == owner, \"Not the owner\") */\n    tag_144:\n      mload(0x40)\n      dup1\n      swap2\n      sub\n      swap1\n      revert\n    tag_143:\n        /* \"EtherFund.sol\":790:810  CampaignState.Active */\n      0x00\n        /* \"EtherFund.sol\":781:786  state */\n      sload(0x04)\n      shl(0xa8, 0x01)\n      swap1\n      div\n      0xff\n      and\n        /* \"EtherFund.sol\":781:810  state == CampaignState.Active */\n      0x02\n      dup2\n      gt\n      iszero\n      tag_150\n      jumpi\n      tag_150\n      tag_135\n      jump\t// in\n    tag_150:\n      eq\n        /* \"EtherFund.sol\":773:838  require(state == CampaignState.Active, \"Campaign is not active.\") */\n      tag_151\n      jumpi\n      mload(0x40)\n      shl(0xe5, 0x461bcd)\n      dup2\n      mstore\n        /* \"#utility.yul\":6032:6034   */\n      0x20\n        /* \"EtherFund.sol\":773:838  require(state == CampaignState.Active, \"Campaign is not active.\") */\n      0x04\n      dup3\n      add\n        /* \"#utility.yul\":6014:6035   */\n      mstore\n        /* \"#utility.yul\":6071:6073   */\n      0x17\n        /* \"#utility.yul\":6051:6069   */\n      0x24\n      dup3\n      add\n        /* \"#utility.yul\":6044:6074   */\n      mstore\n        /* \"#utility.yul\":6110:6135   */\n      0x43616d706169676e206973206e6f74206163746976652e000000000000000000\n        /* \"#utility.yul\":6090:6108   */\n      0x44\n      dup3\n      add\n        /* \"#utility.yul\":6083:6136   */\n      mstore\n        /* \"#utility.yul\":6153:6171   */\n      0x64\n      add\n        /* \"EtherFund.sol\":773:838  require(state == CampaignState.Active, \"Campaign is not active.\") */\n      tag_144\n        /* \"#utility.yul\":5830:6177   */\n      jump\n        /* \"EtherFund.sol\":773:838  require(state == CampaignState.Active, \"Campaign is not active.\") */\n    tag_151:\n        /* \"EtherFund.sol\":4210:4229  _daysToAdd * 1 days */\n      tag_155\n        /* \"EtherFund.sol\":4210:4220  _daysToAdd */\n      dup2\n        /* \"EtherFund.sol\":4223:4229  1 days */\n      0x015180\n        /* \"EtherFund.sol\":4210:4229  _daysToAdd * 1 days */\n      tag_156\n      jump\t// in\n    tag_155:\n        /* \"EtherFund.sol\":4198:4206  deadline */\n      0x03\n      0x00\n        /* \"EtherFund.sol\":4198:4229  deadline += _daysToAdd * 1 days */\n      dup3\n      dup3\n      sload\n      tag_157\n      swap2\n      swap1\n      tag_158\n      jump\t// in\n    tag_157:\n      swap1\n      swap2\n      sstore\n      pop\n      pop\n      pop\n        /* \"EtherFund.sol\":4113:4237  function extendDeadline(uint256 _daysToAdd) public onlyOwner campaignOpen {... */\n      jump\t// out\n        /* \"EtherFund.sol\":2658:2978  function withdraw() public onlyOwner {... */\n    tag_57:\n        /* \"EtherFund.sol\":687:692  owner */\n      and(sub(shl(0xa0, 0x01), 0x01), sload(0x04))\n        /* \"EtherFund.sol\":673:683  msg.sender */\n      caller\n        /* \"EtherFund.sol\":673:692  msg.sender == owner */\n      eq\n        /* \"EtherFund.sol\":665:710  require(msg.sender == owner, \"Not the owner\") */\n      tag_160\n      jumpi\n      mload(0x40)\n      shl(0xe5, 0x461bcd)\n      dup2\n      mstore\n        /* \"#utility.yul\":5690:5692   */\n      0x20\n        /* \"EtherFund.sol\":665:710  require(msg.sender == owner, \"Not the owner\") */\n      0x04\n      dup3\n      add\n        /* \"#utility.yul\":5672:5693   */\n      mstore\n        /* \"#utility.yul\":5729:5731   */\n      0x0d\n        /* \"#utility.yul\":5709:5727   */\n      0x24\n      dup3\n      add\n        /* \"#utility.yul\":5702:5732   */\n      mstore\n      shl(0x99, 0x2737ba103a34329037bbb732b9)\n        /* \"#utility.yul\":5748:5766   */\n      0x44\n      dup3\n      add\n        /* \"#utility.yul\":5741:5784   */\n      mstore\n        /* \"#utility.yul\":5801:5819   */\n      0x64\n      add\n        /* \"EtherFund.sol\":665:710  require(msg.sender == owner, \"Not the owner\") */\n      tag_144\n        /* \"#utility.yul\":5488:5825   */\n      jump\n        /* \"EtherFund.sol\":665:710  require(msg.sender == owner, \"Not the owner\") */\n    tag_160:\n        /* \"EtherFund.sol\":2706:2735  checkAndUpdateCampaignState() */\n      tag_163\n        /* \"EtherFund.sol\":2706:2733  checkAndUpdateCampaignState */\n      tag_164\n        /* \"EtherFund.sol\":2706:2735  checkAndUpdateCampaignState() */\n      jump\t// in\n    tag_163:\n        /* \"EtherFund.sol\":2763:2787  CampaignState.Successful */\n      0x01\n        /* \"EtherFund.sol\":2754:2759  state */\n      sload(0x04)\n      shl(0xa8, 0x01)\n      swap1\n      div\n      0xff\n      and\n        /* \"EtherFund.sol\":2754:2787  state == CampaignState.Successful */\n      0x02\n      dup2\n      gt\n      iszero\n      tag_168\n      jumpi\n      tag_168\n      tag_135\n      jump\t// in\n    tag_168:\n      eq\n        /* \"EtherFund.sol\":2746:2816  require(state == CampaignState.Successful, \"Campaign not successful.\") */\n      tag_169\n      jumpi\n      mload(0x40)\n      shl(0xe5, 0x461bcd)\n      dup2\n      mstore\n        /* \"#utility.yul\":6819:6821   */\n      0x20\n        /* \"EtherFund.sol\":2746:2816  require(state == CampaignState.Successful, \"Campaign not successful.\") */\n      0x04\n      dup3\n      add\n        /* \"#utility.yul\":6801:6822   */\n      mstore\n        /* \"#utility.yul\":6858:6860   */\n      0x18\n        /* \"#utility.yul\":6838:6856   */\n      0x24\n      dup3\n      add\n        /* \"#utility.yul\":6831:6861   */\n      mstore\n        /* \"#utility.yul\":6897:6923   */\n      0x43616d706169676e206e6f74207375636365737366756c2e0000000000000000\n        /* \"#utility.yul\":6877:6895   */\n      0x44\n      dup3\n      add\n        /* \"#utility.yul\":6870:6924   */\n      mstore\n        /* \"#utility.yul\":6941:6959   */\n      0x64\n      add\n        /* \"EtherFund.sol\":2746:2816  require(state == CampaignState.Successful, \"Campaign not successful.\") */\n      tag_144\n        /* \"#utility.yul\":6617:6965   */\n      jump\n        /* \"EtherFund.sol\":2746:2816  require(state == CampaignState.Successful, \"Campaign not successful.\") */\n    tag_169:\n        /* \"EtherFund.sol\":2847:2868  address(this).balance */\n      selfbalance\n        /* \"EtherFund.sol\":2887:2898  balance > 0 */\n      dup1\n        /* \"EtherFund.sol\":2879:2925  require(balance > 0, \"No balance to withdraw\") */\n      tag_172\n      jumpi\n      mload(0x40)\n      shl(0xe5, 0x461bcd)\n      dup2\n      mstore\n        /* \"#utility.yul\":7172:7174   */\n      0x20\n        /* \"EtherFund.sol\":2879:2925  require(balance > 0, \"No balance to withdraw\") */\n      0x04\n      dup3\n      add\n        /* \"#utility.yul\":7154:7175   */\n      mstore\n        /* \"#utility.yul\":7211:7213   */\n      0x16\n        /* \"#utility.yul\":7191:7209   */\n      0x24\n      dup3\n      add\n        /* \"#utility.yul\":7184:7214   */\n      mstore\n        /* \"#utility.yul\":7250:7274   */\n      0x4e6f2062616c616e636520746f20776974686472617700000000000000000000\n        /* \"#utility.yul\":7230:7248   */\n      0x44\n      dup3\n      add\n        /* \"#utility.yul\":7223:7275   */\n      mstore\n        /* \"#utility.yul\":7292:7310   */\n      0x64\n      add\n        /* \"EtherFund.sol\":2879:2925  require(balance > 0, \"No balance to withdraw\") */\n      tag_144\n        /* \"#utility.yul\":6970:7316   */\n      jump\n        /* \"EtherFund.sol\":2879:2925  require(balance > 0, \"No balance to withdraw\") */\n    tag_172:\n        /* \"EtherFund.sol\":2946:2951  owner */\n      sload(0x04)\n        /* \"EtherFund.sol\":2938:2970  payable(owner).transfer(balance) */\n      mload(0x40)\n      sub(shl(0xa0, 0x01), 0x01)\n        /* \"EtherFund.sol\":2946:2951  owner */\n      swap1\n      swap2\n      and\n      swap1\n        /* \"EtherFund.sol\":2938:2970  payable(owner).transfer(balance) */\n      dup3\n      iszero\n      0x08fc\n      mul\n      swap1\n        /* \"EtherFund.sol\":2962:2969  balance */\n      dup4\n      swap1\n        /* \"EtherFund.sol\":2946:2951  owner */\n      0x00\n        /* \"EtherFund.sol\":2938:2970  payable(owner).transfer(balance) */\n      dup2\n        /* \"EtherFund.sol\":2946:2951  owner */\n      dup2\n        /* \"EtherFund.sol\":2938:2970  payable(owner).transfer(balance) */\n      dup2\n        /* \"EtherFund.sol\":2962:2969  balance */\n      dup6\n        /* \"EtherFund.sol\":2946:2951  owner */\n      dup9\n        /* \"EtherFund.sol\":2938:2970  payable(owner).transfer(balance) */\n      dup9\n      call\n      swap4\n      pop\n      pop\n      pop\n      pop\n      iszero\n      dup1\n      iszero\n      tag_176\n      jumpi\n      returndatasize\n      0x00\n      dup1\n      returndatacopy\n      revert(0x00, returndatasize)\n    tag_176:\n      pop\n        /* \"EtherFund.sol\":2695:2978  {... */\n      pop\n        /* \"EtherFund.sol\":2658:2978  function withdraw() public onlyOwner {... */\n      jump\t// out\n        /* \"EtherFund.sol\":3101:3474  function refund() public {... */\n    tag_64:\n        /* \"EtherFund.sol\":3137:3166  checkAndUpdateCampaignState() */\n      tag_178\n        /* \"EtherFund.sol\":3137:3164  checkAndUpdateCampaignState */\n      tag_164\n        /* \"EtherFund.sol\":3137:3166  checkAndUpdateCampaignState() */\n      jump\t// in\n    tag_178:\n        /* \"EtherFund.sol\":3194:3214  CampaignState.Failed */\n      0x02\n        /* \"EtherFund.sol\":3185:3190  state */\n      sload(0x04)\n      shl(0xa8, 0x01)\n      swap1\n      div\n      0xff\n      and\n        /* \"EtherFund.sol\":3185:3214  state == CampaignState.Failed */\n      0x02\n      dup2\n      gt\n      iszero\n      tag_182\n      jumpi\n      tag_182\n      tag_135\n      jump\t// in\n    tag_182:\n      eq\n        /* \"EtherFund.sol\":3177:3241  require(state == CampaignState.Failed, \"Refunds not available.\") */\n      tag_183\n      jumpi\n      mload(0x40)\n      shl(0xe5, 0x461bcd)\n      dup2\n      mstore\n        /* \"#utility.yul\":7523:7525   */\n      0x20\n        /* \"EtherFund.sol\":3177:3241  require(state == CampaignState.Failed, \"Refunds not available.\") */\n      0x04\n      dup3\n      add\n        /* \"#utility.yul\":7505:7526   */\n      mstore\n        /* \"#utility.yul\":7562:7564   */\n      0x16\n        /* \"#utility.yul\":7542:7560   */\n      0x24\n      dup3\n      add\n        /* \"#utility.yul\":7535:7565   */\n      mstore\n        /* \"#utility.yul\":7601:7625   */\n      0x526566756e6473206e6f7420617661696c61626c652e00000000000000000000\n        /* \"#utility.yul\":7581:7599   */\n      0x44\n      dup3\n      add\n        /* \"#utility.yul\":7574:7626   */\n      mstore\n        /* \"#utility.yul\":7643:7661   */\n      0x64\n      add\n        /* \"EtherFund.sol\":3177:3241  require(state == CampaignState.Failed, \"Refunds not available.\") */\n      tag_144\n        /* \"#utility.yul\":7321:7667   */\n      jump\n        /* \"EtherFund.sol\":3177:3241  require(state == CampaignState.Failed, \"Refunds not available.\") */\n    tag_183:\n        /* \"EtherFund.sol\":3277:3287  msg.sender */\n      caller\n        /* \"EtherFund.sol\":3252:3266  uint256 amount */\n      0x00\n        /* \"EtherFund.sol\":3269:3288  backers[msg.sender] */\n      swap1\n      dup2\n      mstore\n        /* \"EtherFund.sol\":3269:3276  backers */\n      0x06\n        /* \"EtherFund.sol\":3269:3288  backers[msg.sender] */\n      0x20\n      mstore\n      0x40\n      swap1\n      keccak256\n        /* \"EtherFund.sol\":3269:3306  backers[msg.sender].totalContribution */\n      sload\n        /* \"EtherFund.sol\":3325:3335  amount > 0 */\n      dup1\n        /* \"EtherFund.sol\":3317:3365  require(amount > 0, \"No contribution to refund\") */\n      tag_186\n      jumpi\n      mload(0x40)\n      shl(0xe5, 0x461bcd)\n      dup2\n      mstore\n        /* \"#utility.yul\":7874:7876   */\n      0x20\n        /* \"EtherFund.sol\":3317:3365  require(amount > 0, \"No contribution to refund\") */\n      0x04\n      dup3\n      add\n        /* \"#utility.yul\":7856:7877   */\n      mstore\n        /* \"#utility.yul\":7913:7915   */\n      0x19\n        /* \"#utility.yul\":7893:7911   */\n      0x24\n      dup3\n      add\n        /* \"#utility.yul\":7886:7916   */\n      mstore\n        /* \"#utility.yul\":7952:7979   */\n      0x4e6f20636f6e747269627574696f6e20746f20726566756e6400000000000000\n        /* \"#utility.yul\":7932:7950   */\n      0x44\n      dup3\n      add\n        /* \"#utility.yul\":7925:7980   */\n      mstore\n        /* \"#utility.yul\":7997:8015   */\n      0x64\n      add\n        /* \"EtherFund.sol\":3317:3365  require(amount > 0, \"No contribution to refund\") */\n      tag_144\n        /* \"#utility.yul\":7672:8021   */\n      jump\n        /* \"EtherFund.sol\":3317:3365  require(amount > 0, \"No contribution to refund\") */\n    tag_186:\n        /* \"EtherFund.sol\":3386:3396  msg.sender */\n      caller\n        /* \"EtherFund.sol\":3418:3419  0 */\n      0x00\n        /* \"EtherFund.sol\":3378:3397  backers[msg.sender] */\n      dup2\n      dup2\n      mstore\n        /* \"EtherFund.sol\":3378:3385  backers */\n      0x06\n        /* \"EtherFund.sol\":3378:3397  backers[msg.sender] */\n      0x20\n      mstore\n      0x40\n      dup1\n      dup3\n      keccak256\n        /* \"EtherFund.sol\":3378:3419  backers[msg.sender].totalContribution = 0 */\n      dup3\n      swap1\n      sstore\n        /* \"EtherFund.sol\":3430:3466  payable(msg.sender).transfer(amount) */\n      mload\n      dup4\n      iszero\n      0x08fc\n      mul\n      swap2\n        /* \"EtherFund.sol\":3459:3465  amount */\n      dup5\n      swap2\n        /* \"EtherFund.sol\":3430:3466  payable(msg.sender).transfer(amount) */\n      swap1\n      dup2\n        /* \"EtherFund.sol\":3418:3419  0 */\n      dup2\n        /* \"EtherFund.sol\":3430:3466  payable(msg.sender).transfer(amount) */\n      dup2\n        /* \"EtherFund.sol\":3459:3465  amount */\n      dup6\n        /* \"EtherFund.sol\":3386:3396  msg.sender */\n      dup9\n        /* \"EtherFund.sol\":3430:3466  payable(msg.sender).transfer(amount) */\n      dup9\n      call\n      swap4\n      pop\n      pop\n      pop\n      pop\n      iszero\n      dup1\n      iszero\n      tag_176\n      jumpi\n      returndatasize\n      0x00\n      dup1\n      returndatacopy\n      revert(0x00, returndatasize)\n        /* \"EtherFund.sol\":111:136  string public description */\n    tag_76:\n      0x01\n      dup1\n      sload\n      tag_127\n      swap1\n      tag_122\n      jump\t// in\n        /* \"EtherFund.sol\":2453:2650  function removeTier(uint256 _index) public onlyOwner {... */\n    tag_81:\n        /* \"EtherFund.sol\":687:692  owner */\n      and(sub(shl(0xa0, 0x01), 0x01), sload(0x04))\n        /* \"EtherFund.sol\":673:683  msg.sender */\n      caller\n        /* \"EtherFund.sol\":673:692  msg.sender == owner */\n      eq\n        /* \"EtherFund.sol\":665:710  require(msg.sender == owner, \"Not the owner\") */\n      tag_198\n      jumpi\n      mload(0x40)\n      shl(0xe5, 0x461bcd)\n      dup2\n      mstore\n        /* \"#utility.yul\":5690:5692   */\n      0x20\n        /* \"EtherFund.sol\":665:710  require(msg.sender == owner, \"Not the owner\") */\n      0x04\n      dup3\n      add\n        /* \"#utility.yul\":5672:5693   */\n      mstore\n        /* \"#utility.yul\":5729:5731   */\n      0x0d\n        /* \"#utility.yul\":5709:5727   */\n      0x24\n      dup3\n      add\n        /* \"#utility.yul\":5702:5732   */\n      mstore\n      shl(0x99, 0x2737ba103a34329037bbb732b9)\n        /* \"#utility.yul\":5748:5766   */\n      0x44\n      dup3\n      add\n        /* \"#utility.yul\":5741:5784   */\n      mstore\n        /* \"#utility.yul\":5801:5819   */\n      0x64\n      add\n        /* \"EtherFund.sol\":665:710  require(msg.sender == owner, \"Not the owner\") */\n      tag_144\n        /* \"#utility.yul\":5488:5825   */\n      jump\n        /* \"EtherFund.sol\":665:710  require(msg.sender == owner, \"Not the owner\") */\n    tag_198:\n        /* \"EtherFund.sol\":2534:2539  tiers */\n      0x05\n        /* \"EtherFund.sol\":2534:2546  tiers.length */\n      sload\n        /* \"EtherFund.sol\":2525:2546  _index < tiers.length */\n      dup2\n      lt\n        /* \"EtherFund.sol\":2517:2571  require(_index < tiers.length, \"Tier does not exist.\") */\n      tag_201\n      jumpi\n      mload(0x40)\n      shl(0xe5, 0x461bcd)\n      dup2\n      mstore\n        /* \"#utility.yul\":8228:8230   */\n      0x20\n        /* \"EtherFund.sol\":2517:2571  require(_index < tiers.length, \"Tier does not exist.\") */\n      0x04\n      dup3\n      add\n        /* \"#utility.yul\":8210:8231   */\n      mstore\n        /* \"#utility.yul\":8267:8269   */\n      0x14\n        /* \"#utility.yul\":8247:8265   */\n      0x24\n      dup3\n      add\n        /* \"#utility.yul\":8240:8270   */\n      mstore\n        /* \"#utility.yul\":8306:8328   */\n      0x5469657220646f6573206e6f742065786973742e000000000000000000000000\n        /* \"#utility.yul\":8286:8304   */\n      0x44\n      dup3\n      add\n        /* \"#utility.yul\":8279:8329   */\n      mstore\n        /* \"#utility.yul\":8346:8364   */\n      0x64\n      add\n        /* \"EtherFund.sol\":2517:2571  require(_index < tiers.length, \"Tier does not exist.\") */\n      tag_144\n        /* \"#utility.yul\":8026:8370   */\n      jump\n        /* \"EtherFund.sol\":2517:2571  require(_index < tiers.length, \"Tier does not exist.\") */\n    tag_201:\n        /* \"EtherFund.sol\":2598:2603  tiers */\n      0x05\n        /* \"EtherFund.sol\":2604:2616  tiers.length */\n      dup1\n      sload\n        /* \"EtherFund.sol\":2604:2619  tiers.length -1 */\n      tag_204\n      swap1\n        /* \"EtherFund.sol\":2618:2619  1 */\n      0x01\n      swap1\n        /* \"EtherFund.sol\":2604:2619  tiers.length -1 */\n      tag_205\n      jump\t// in\n    tag_204:\n        /* \"EtherFund.sol\":2598:2620  tiers[tiers.length -1] */\n      dup2\n      sload\n      dup2\n      lt\n      tag_207\n      jumpi\n      tag_207\n      tag_208\n      jump\t// in\n    tag_207:\n      swap1\n      0x00\n      mstore\n      keccak256(0x00, 0x20)\n      swap1\n      0x03\n      mul\n      add\n        /* \"EtherFund.sol\":2582:2587  tiers */\n      0x05\n        /* \"EtherFund.sol\":2588:2594  _index */\n      dup3\n        /* \"EtherFund.sol\":2582:2595  tiers[_index] */\n      dup2\n      sload\n      dup2\n      lt\n      tag_211\n      jumpi\n      tag_211\n      tag_208\n      jump\t// in\n    tag_211:\n      0x00\n      swap2\n      dup3\n      mstore\n      0x20\n      swap1\n      swap2\n      keccak256\n      0x03\n      swap1\n      swap2\n      mul\n      add\n      dup1\n        /* \"EtherFund.sol\":2582:2620  tiers[_index] = tiers[tiers.length -1] */\n      tag_213\n      dup4\n        /* \"EtherFund.sol\":2582:2595  tiers[_index] */\n      dup3\n        /* \"EtherFund.sol\":2582:2620  tiers[_index] = tiers[tiers.length -1] */\n      tag_214\n      jump\t// in\n    tag_213:\n      pop\n      0x01\n      dup3\n      dup2\n      add\n      sload\n      swap1\n      dup3\n      add\n      sstore\n      0x02\n      swap2\n      dup3\n      add\n      sload\n      swap2\n      add\n      sstore\n        /* \"EtherFund.sol\":2631:2636  tiers */\n      0x05\n        /* \"EtherFund.sol\":2631:2642  tiers.pop() */\n      dup1\n      sload\n      dup1\n      tag_216\n      jumpi\n      tag_216\n      tag_217\n      jump\t// in\n    tag_216:\n      0x00\n      dup3\n      dup2\n      mstore\n      0x20\n      dup2\n      keccak256\n      not(0x00)\n      swap1\n      swap3\n      add\n      swap2\n      0x03\n      dup4\n      mul\n      add\n      swap1\n      tag_219\n      dup3\n      dup3\n      tag_220\n      jump\t// in\n    tag_219:\n      pop\n      0x00\n      0x01\n      dup3\n      add\n      dup2\n      swap1\n      sstore\n      0x02\n      swap1\n      swap2\n      add\n      sstore\n      swap1\n      sstore\n      pop\n        /* \"EtherFund.sol\":2453:2650  function removeTier(uint256 _index) public onlyOwner {... */\n      jump\t// out\n        /* \"EtherFund.sol\":3482:3635  function hasFundedTier(address _backer, uint256 _tierIndex) public view returns (bool) {... */\n    tag_86:\n      sub(shl(0xa0, 0x01), 0x01)\n        /* \"EtherFund.sol\":3587:3603  backers[_backer] */\n      dup3\n      and\n        /* \"EtherFund.sol\":3563:3567  bool */\n      0x00\n        /* \"EtherFund.sol\":3587:3603  backers[_backer] */\n      swap1\n      dup2\n      mstore\n        /* \"EtherFund.sol\":3587:3594  backers */\n      0x06\n        /* \"EtherFund.sol\":3587:3603  backers[_backer] */\n      0x20\n      swap1\n      dup2\n      mstore\n      0x40\n      dup1\n      dup4\n      keccak256\n        /* \"EtherFund.sol\":3587:3627  backers[_backer].fundedTiers[_tierIndex] */\n      dup5\n      dup5\n      mstore\n        /* \"EtherFund.sol\":3587:3615  backers[_backer].fundedTiers */\n      0x01\n      add\n        /* \"EtherFund.sol\":3587:3627  backers[_backer].fundedTiers[_tierIndex] */\n      swap1\n      swap2\n      mstore\n      swap1\n      keccak256\n      sload\n      0xff\n      and\n        /* \"EtherFund.sol\":3482:3635  function hasFundedTier(address _backer, uint256 _tierIndex) public view returns (bool) {... */\n    tag_221:\n      swap3\n      swap2\n      pop\n      pop\n      jump\t// out\n        /* \"EtherFund.sol\":2229:2445  function addTier(... */\n    tag_97:\n        /* \"EtherFund.sol\":687:692  owner */\n      and(sub(shl(0xa0, 0x01), 0x01), sload(0x04))\n        /* \"EtherFund.sol\":673:683  msg.sender */\n      caller\n        /* \"EtherFund.sol\":673:692  msg.sender == owner */\n      eq\n        /* \"EtherFund.sol\":665:710  require(msg.sender == owner, \"Not the owner\") */\n      tag_223\n      jumpi\n      mload(0x40)\n      shl(0xe5, 0x461bcd)\n      dup2\n      mstore\n        /* \"#utility.yul\":5690:5692   */\n      0x20\n        /* \"EtherFund.sol\":665:710  require(msg.sender == owner, \"Not the owner\") */\n      0x04\n      dup3\n      add\n        /* \"#utility.yul\":5672:5693   */\n      mstore\n        /* \"#utility.yul\":5729:5731   */\n      0x0d\n        /* \"#utility.yul\":5709:5727   */\n      0x24\n      dup3\n      add\n        /* \"#utility.yul\":5702:5732   */\n      mstore\n      shl(0x99, 0x2737ba103a34329037bbb732b9)\n        /* \"#utility.yul\":5748:5766   */\n      0x44\n      dup3\n      add\n        /* \"#utility.yul\":5741:5784   */\n      mstore\n        /* \"#utility.yul\":5801:5819   */\n      0x64\n      add\n        /* \"EtherFund.sol\":665:710  require(msg.sender == owner, \"Not the owner\") */\n      tag_144\n        /* \"#utility.yul\":5488:5825   */\n      jump\n        /* \"EtherFund.sol\":665:710  require(msg.sender == owner, \"Not the owner\") */\n    tag_223:\n        /* \"EtherFund.sol\":2355:2356  0 */\n      0x00\n        /* \"EtherFund.sol\":2345:2352  _amount */\n      dup2\n        /* \"EtherFund.sol\":2345:2356  _amount > 0 */\n      gt\n        /* \"EtherFund.sol\":2337:2391  require(_amount > 0, \"Amount must be greater than 0.\") */\n      tag_226\n      jumpi\n      mload(0x40)\n      shl(0xe5, 0x461bcd)\n      dup2\n      mstore\n        /* \"#utility.yul\":11222:11224   */\n      0x20\n        /* \"EtherFund.sol\":2337:2391  require(_amount > 0, \"Amount must be greater than 0.\") */\n      0x04\n      dup3\n      add\n        /* \"#utility.yul\":11204:11225   */\n      mstore\n        /* \"#utility.yul\":11261:11263   */\n      0x1e\n        /* \"#utility.yul\":11241:11259   */\n      0x24\n      dup3\n      add\n        /* \"#utility.yul\":11234:11264   */\n      mstore\n        /* \"#utility.yul\":11300:11332   */\n      0x416d6f756e74206d7573742062652067726561746572207468616e20302e0000\n        /* \"#utility.yul\":11280:11298   */\n      0x44\n      dup3\n      add\n        /* \"#utility.yul\":11273:11333   */\n      mstore\n        /* \"#utility.yul\":11350:11368   */\n      0x64\n      add\n        /* \"EtherFund.sol\":2337:2391  require(_amount > 0, \"Amount must be greater than 0.\") */\n      tag_144\n        /* \"#utility.yul\":11020:11374   */\n      jump\n        /* \"EtherFund.sol\":2337:2391  require(_amount > 0, \"Amount must be greater than 0.\") */\n    tag_226:\n        /* \"EtherFund.sol\":2413:2436  Tier(_name, _amount, 0) */\n      0x40\n      dup1\n      mload\n      0x60\n      dup2\n      add\n      dup3\n      mstore\n      dup4\n      dup2\n      mstore\n      0x20\n      dup2\n      add\n      dup4\n      swap1\n      mstore\n      0x00\n      swap2\n      dup2\n      add\n      dup3\n      swap1\n      mstore\n        /* \"EtherFund.sol\":2402:2407  tiers */\n      0x05\n        /* \"EtherFund.sol\":2402:2437  tiers.push(Tier(_name, _amount, 0)) */\n      dup1\n      sload\n      0x01\n      dup2\n      add\n      dup3\n      sstore\n      swap3\n      mstore\n      dup1\n      mload\n        /* \"EtherFund.sol\":2413:2436  Tier(_name, _amount, 0) */\n      swap1\n      swap2\n        /* \"EtherFund.sol\":2402:2437  tiers.push(Tier(_name, _amount, 0)) */\n      0x03\n      mul\n      0x036b6384b5eca791c62761152d0c79bb0604c104a5fb6f4eb0703f3154bb3db0\n      add\n      swap1\n      dup2\n      swap1\n      tag_230\n      swap1\n      dup3\n      tag_231\n      jump\t// in\n    tag_230:\n      pop\n      0x20\n      dup3\n      add\n      mload\n      dup2\n      0x01\n      add\n      sstore\n      0x40\n      dup3\n      add\n      mload\n      dup2\n      0x02\n      add\n      sstore\n      pop\n      pop\n        /* \"EtherFund.sol\":2229:2445  function addTier(... */\n      pop\n      pop\n      jump\t// out\n        /* \"EtherFund.sol\":3738:3813  function togglePause() public onlyOwner {... */\n    tag_110:\n        /* \"EtherFund.sol\":687:692  owner */\n      and(sub(shl(0xa0, 0x01), 0x01), sload(0x04))\n        /* \"EtherFund.sol\":673:683  msg.sender */\n      caller\n        /* \"EtherFund.sol\":673:692  msg.sender == owner */\n      eq\n        /* \"EtherFund.sol\":665:710  require(msg.sender == owner, \"Not the owner\") */\n      tag_233\n      jumpi\n      mload(0x40)\n      shl(0xe5, 0x461bcd)\n      dup2\n      mstore\n        /* \"#utility.yul\":5690:5692   */\n      0x20\n        /* \"EtherFund.sol\":665:710  require(msg.sender == owner, \"Not the owner\") */\n      0x04\n      dup3\n      add\n        /* \"#utility.yul\":5672:5693   */\n      mstore\n        /* \"#utility.yul\":5729:5731   */\n      0x0d\n        /* \"#utility.yul\":5709:5727   */\n      0x24\n      dup3\n      add\n        /* \"#utility.yul\":5702:5732   */\n      mstore\n      shl(0x99, 0x2737ba103a34329037bbb732b9)\n        /* \"#utility.yul\":5748:5766   */\n      0x44\n      dup3\n      add\n        /* \"#utility.yul\":5741:5784   */\n      mstore\n        /* \"#utility.yul\":5801:5819   */\n      0x64\n      add\n        /* \"EtherFund.sol\":665:710  require(msg.sender == owner, \"Not the owner\") */\n      tag_144\n        /* \"#utility.yul\":5488:5825   */\n      jump\n        /* \"EtherFund.sol\":665:710  require(msg.sender == owner, \"Not the owner\") */\n    tag_233:\n        /* \"EtherFund.sol\":3799:3805  paused */\n      0x04\n      dup1\n      sload\n        /* \"EtherFund.sol\":3789:3805  paused = !paused */\n      0xffffffffffffffffffffff00ffffffffffffffffffffffffffffffffffffffff\n      dup2\n      and\n      shl(0xa0, 0x01)\n        /* \"EtherFund.sol\":3799:3805  paused */\n      swap2\n      dup3\n      swap1\n      div\n      0xff\n      and\n        /* \"EtherFund.sol\":3798:3805  !paused */\n      iszero\n        /* \"EtherFund.sol\":3789:3805  paused = !paused */\n      swap1\n      swap2\n      mul\n      or\n      swap1\n      sstore\n        /* \"EtherFund.sol\":3738:3813  function togglePause() public onlyOwner {... */\n      jump\t// out\n        /* \"EtherFund.sol\":1797:2221  function fund(uint256 _tierIndex) public payable campaignOpen notPaused {... */\n    tag_113:\n        /* \"EtherFund.sol\":790:810  CampaignState.Active */\n      0x00\n        /* \"EtherFund.sol\":781:786  state */\n      sload(0x04)\n      shl(0xa8, 0x01)\n      swap1\n      div\n      0xff\n      and\n        /* \"EtherFund.sol\":781:810  state == CampaignState.Active */\n      0x02\n      dup2\n      gt\n      iszero\n      tag_240\n      jumpi\n      tag_240\n      tag_135\n      jump\t// in\n    tag_240:\n      eq\n        /* \"EtherFund.sol\":773:838  require(state == CampaignState.Active, \"Campaign is not active.\") */\n      tag_241\n      jumpi\n      mload(0x40)\n      shl(0xe5, 0x461bcd)\n      dup2\n      mstore\n        /* \"#utility.yul\":6032:6034   */\n      0x20\n        /* \"EtherFund.sol\":773:838  require(state == CampaignState.Active, \"Campaign is not active.\") */\n      0x04\n      dup3\n      add\n        /* \"#utility.yul\":6014:6035   */\n      mstore\n        /* \"#utility.yul\":6071:6073   */\n      0x17\n        /* \"#utility.yul\":6051:6069   */\n      0x24\n      dup3\n      add\n        /* \"#utility.yul\":6044:6074   */\n      mstore\n        /* \"#utility.yul\":6110:6135   */\n      0x43616d706169676e206973206e6f74206163746976652e000000000000000000\n        /* \"#utility.yul\":6090:6108   */\n      0x44\n      dup3\n      add\n        /* \"#utility.yul\":6083:6136   */\n      mstore\n        /* \"#utility.yul\":6153:6171   */\n      0x64\n      add\n        /* \"EtherFund.sol\":773:838  require(state == CampaignState.Active, \"Campaign is not active.\") */\n      tag_144\n        /* \"#utility.yul\":5830:6177   */\n      jump\n        /* \"EtherFund.sol\":773:838  require(state == CampaignState.Active, \"Campaign is not active.\") */\n    tag_241:\n        /* \"EtherFund.sol\":907:913  paused */\n      sload(0x04)\n      shl(0xa0, 0x01)\n      swap1\n      div\n      0xff\n      and\n        /* \"EtherFund.sol\":906:913  !paused */\n      iszero\n        /* \"EtherFund.sol\":898:937  require(!paused, \"Contract is paused.\") */\n      tag_244\n      jumpi\n      mload(0x40)\n      shl(0xe5, 0x461bcd)\n      dup2\n      mstore\n        /* \"#utility.yul\":12931:12933   */\n      0x20\n        /* \"EtherFund.sol\":898:937  require(!paused, \"Contract is paused.\") */\n      0x04\n      dup3\n      add\n        /* \"#utility.yul\":12913:12934   */\n      mstore\n        /* \"#utility.yul\":12970:12972   */\n      0x13\n        /* \"#utility.yul\":12950:12968   */\n      0x24\n      dup3\n      add\n        /* \"#utility.yul\":12943:12973   */\n      mstore\n        /* \"#utility.yul\":13009:13030   */\n      0x436f6e7472616374206973207061757365642e00000000000000000000000000\n        /* \"#utility.yul\":12989:13007   */\n      0x44\n      dup3\n      add\n        /* \"#utility.yul\":12982:13031   */\n      mstore\n        /* \"#utility.yul\":13048:13066   */\n      0x64\n      add\n        /* \"EtherFund.sol\":898:937  require(!paused, \"Contract is paused.\") */\n      tag_144\n        /* \"#utility.yul\":12729:13072   */\n      jump\n        /* \"EtherFund.sol\":898:937  require(!paused, \"Contract is paused.\") */\n    tag_244:\n        /* \"EtherFund.sol\":1901:1906  tiers */\n      0x05\n        /* \"EtherFund.sol\":1901:1913  tiers.length */\n      sload\n        /* \"EtherFund.sol\":1888:1913  _tierIndex < tiers.length */\n      dup2\n      lt\n        /* \"EtherFund.sol\":1880:1931  require(_tierIndex < tiers.length, \"Invalid tier.\") */\n      tag_248\n      jumpi\n      mload(0x40)\n      shl(0xe5, 0x461bcd)\n      dup2\n      mstore\n        /* \"#utility.yul\":13279:13281   */\n      0x20\n        /* \"EtherFund.sol\":1880:1931  require(_tierIndex < tiers.length, \"Invalid tier.\") */\n      0x04\n      dup3\n      add\n        /* \"#utility.yul\":13261:13282   */\n      mstore\n        /* \"#utility.yul\":13318:13320   */\n      0x0d\n        /* \"#utility.yul\":13298:13316   */\n      0x24\n      dup3\n      add\n        /* \"#utility.yul\":13291:13321   */\n      mstore\n        /* \"#utility.yul\":13357:13372   */\n      0x496e76616c696420746965722e00000000000000000000000000000000000000\n        /* \"#utility.yul\":13337:13355   */\n      0x44\n      dup3\n      add\n        /* \"#utility.yul\":13330:13373   */\n      mstore\n        /* \"#utility.yul\":13390:13408   */\n      0x64\n      add\n        /* \"EtherFund.sol\":1880:1931  require(_tierIndex < tiers.length, \"Invalid tier.\") */\n      tag_144\n        /* \"#utility.yul\":13077:13414   */\n      jump\n        /* \"EtherFund.sol\":1880:1931  require(_tierIndex < tiers.length, \"Invalid tier.\") */\n    tag_248:\n        /* \"EtherFund.sol\":1963:1968  tiers */\n      0x05\n        /* \"EtherFund.sol\":1969:1979  _tierIndex */\n      dup2\n        /* \"EtherFund.sol\":1963:1980  tiers[_tierIndex] */\n      dup2\n      sload\n      dup2\n      lt\n      tag_252\n      jumpi\n      tag_252\n      tag_208\n      jump\t// in\n    tag_252:\n      swap1\n      0x00\n      mstore\n      keccak256(0x00, 0x20)\n      swap1\n      0x03\n      mul\n      add\n        /* \"EtherFund.sol\":1963:1987  tiers[_tierIndex].amount */\n      0x01\n      add\n      sload\n        /* \"EtherFund.sol\":1950:1959  msg.value */\n      callvalue\n        /* \"EtherFund.sol\":1950:1987  msg.value == tiers[_tierIndex].amount */\n      eq\n        /* \"EtherFund.sol\":1942:2009  require(msg.value == tiers[_tierIndex].amount, \"Incorrect amount.\") */\n      tag_254\n      jumpi\n      mload(0x40)\n      shl(0xe5, 0x461bcd)\n      dup2\n      mstore\n        /* \"#utility.yul\":13621:13623   */\n      0x20\n        /* \"EtherFund.sol\":1942:2009  require(msg.value == tiers[_tierIndex].amount, \"Incorrect amount.\") */\n      0x04\n      dup3\n      add\n        /* \"#utility.yul\":13603:13624   */\n      mstore\n        /* \"#utility.yul\":13660:13662   */\n      0x11\n        /* \"#utility.yul\":13640:13658   */\n      0x24\n      dup3\n      add\n        /* \"#utility.yul\":13633:13663   */\n      mstore\n        /* \"#utility.yul\":13699:13718   */\n      0x496e636f727265637420616d6f756e742e000000000000000000000000000000\n        /* \"#utility.yul\":13679:13697   */\n      0x44\n      dup3\n      add\n        /* \"#utility.yul\":13672:13719   */\n      mstore\n        /* \"#utility.yul\":13736:13754   */\n      0x64\n      add\n        /* \"EtherFund.sol\":1942:2009  require(msg.value == tiers[_tierIndex].amount, \"Incorrect amount.\") */\n      tag_144\n        /* \"#utility.yul\":13419:13760   */\n      jump\n        /* \"EtherFund.sol\":1942:2009  require(msg.value == tiers[_tierIndex].amount, \"Incorrect amount.\") */\n    tag_254:\n        /* \"EtherFund.sol\":2022:2027  tiers */\n      0x05\n        /* \"EtherFund.sol\":2028:2038  _tierIndex */\n      dup2\n        /* \"EtherFund.sol\":2022:2039  tiers[_tierIndex] */\n      dup2\n      sload\n      dup2\n      lt\n      tag_258\n      jumpi\n      tag_258\n      tag_208\n      jump\t// in\n    tag_258:\n      0x00\n      swap2\n      dup3\n      mstore\n      0x20\n      dup3\n      keccak256\n        /* \"EtherFund.sol\":2022:2047  tiers[_tierIndex].backers */\n      0x02\n        /* \"EtherFund.sol\":2022:2039  tiers[_tierIndex] */\n      0x03\n      swap1\n      swap3\n      mul\n      add\n        /* \"EtherFund.sol\":2022:2047  tiers[_tierIndex].backers */\n      add\n        /* \"EtherFund.sol\":2022:2049  tiers[_tierIndex].backers++ */\n      dup1\n      sload\n      swap2\n      tag_260\n      dup4\n      tag_261\n      jump\t// in\n    tag_260:\n      swap1\n      swap2\n      sstore\n      pop\n      pop\n        /* \"EtherFund.sol\":2068:2078  msg.sender */\n      caller\n        /* \"EtherFund.sol\":2060:2079  backers[msg.sender] */\n      0x00\n      swap1\n      dup2\n      mstore\n        /* \"EtherFund.sol\":2060:2067  backers */\n      0x06\n        /* \"EtherFund.sol\":2060:2079  backers[msg.sender] */\n      0x20\n      mstore\n      0x40\n      dup2\n      keccak256\n        /* \"EtherFund.sol\":2060:2110  backers[msg.sender].totalContribution += msg.value */\n      dup1\n      sload\n        /* \"EtherFund.sol\":2101:2110  msg.value */\n      callvalue\n      swap3\n        /* \"EtherFund.sol\":2060:2079  backers[msg.sender] */\n      swap1\n        /* \"EtherFund.sol\":2060:2110  backers[msg.sender].totalContribution += msg.value */\n      tag_262\n      swap1\n        /* \"EtherFund.sol\":2101:2110  msg.value */\n      dup5\n      swap1\n        /* \"EtherFund.sol\":2060:2110  backers[msg.sender].totalContribution += msg.value */\n      tag_158\n      jump\t// in\n    tag_262:\n      swap1\n      swap2\n      sstore\n      pop\n      pop\n        /* \"EtherFund.sol\":2129:2139  msg.sender */\n      caller\n        /* \"EtherFund.sol\":2121:2140  backers[msg.sender] */\n      0x00\n      swap1\n      dup2\n      mstore\n        /* \"EtherFund.sol\":2121:2128  backers */\n      0x06\n        /* \"EtherFund.sol\":2121:2140  backers[msg.sender] */\n      0x20\n      swap1\n      dup2\n      mstore\n      0x40\n      dup1\n      dup4\n      keccak256\n        /* \"EtherFund.sol\":2121:2164  backers[msg.sender].fundedTiers[_tierIndex] */\n      dup5\n      dup5\n      mstore\n        /* \"EtherFund.sol\":2167:2171  true */\n      0x01\n        /* \"EtherFund.sol\":2121:2152  backers[msg.sender].fundedTiers */\n      swap1\n      dup2\n      add\n        /* \"EtherFund.sol\":2121:2164  backers[msg.sender].fundedTiers[_tierIndex] */\n      swap1\n      swap3\n      mstore\n      swap1\n      swap2\n      keccak256\n        /* \"EtherFund.sol\":2121:2171  backers[msg.sender].fundedTiers[_tierIndex] = true */\n      dup1\n      sload\n      not(0xff)\n      and\n      swap1\n      swap2\n      or\n      swap1\n      sstore\n        /* \"EtherFund.sol\":2184:2213  checkAndUpdateCampaignState() */\n      tag_263\n        /* \"EtherFund.sol\":2184:2211  checkAndUpdateCampaignState */\n      tag_164\n        /* \"EtherFund.sol\":2184:2213  checkAndUpdateCampaignState() */\n      jump\t// in\n    tag_263:\n        /* \"EtherFund.sol\":1797:2221  function fund(uint256 _tierIndex) public payable campaignOpen notPaused {... */\n      pop\n      jump\t// out\n        /* \"EtherFund.sol\":3643:3730  function getTiers() public view returns (Tier[] memory) {... */\n    tag_116:\n        /* \"EtherFund.sol\":3684:3697  Tier[] memory */\n      0x60\n        /* \"EtherFund.sol\":3717:3722  tiers */\n      0x05\n        /* \"EtherFund.sol\":3710:3722  return tiers */\n      dup1\n      sload\n      dup1\n      0x20\n      mul\n      0x20\n      add\n      mload(0x40)\n      swap1\n      dup2\n      add\n      0x40\n      mstore\n      dup1\n      swap3\n      swap2\n      swap1\n      dup2\n      dup2\n      mstore\n      0x20\n      add\n      0x00\n      swap1\n    tag_265:\n      dup3\n      dup3\n      lt\n      iszero\n      tag_266\n      jumpi\n      dup4\n      dup3\n      swap1\n      0x00\n      mstore\n      keccak256(0x00, 0x20)\n      swap1\n      0x03\n      mul\n      add\n      mload(0x40)\n      dup1\n      0x60\n      add\n      0x40\n      mstore\n      swap1\n      dup2\n      0x00\n      dup3\n      add\n      dup1\n      sload\n      tag_268\n      swap1\n      tag_122\n      jump\t// in\n    tag_268:\n      dup1\n      0x1f\n      add\n      0x20\n      dup1\n      swap2\n      div\n      mul\n      0x20\n      add\n      mload(0x40)\n      swap1\n      dup2\n      add\n      0x40\n      mstore\n      dup1\n      swap3\n      swap2\n      swap1\n      dup2\n      dup2\n      mstore\n      0x20\n      add\n      dup3\n      dup1\n      sload\n      tag_269\n      swap1\n      tag_122\n      jump\t// in\n    tag_269:\n      dup1\n      iszero\n      tag_270\n      jumpi\n      dup1\n      0x1f\n      lt\n      tag_271\n      jumpi\n      0x0100\n      dup1\n      dup4\n      sload\n      div\n      mul\n      dup4\n      mstore\n      swap2\n      0x20\n      add\n      swap2\n      jump(tag_270)\n    tag_271:\n      dup3\n      add\n      swap2\n      swap1\n      0x00\n      mstore\n      keccak256(0x00, 0x20)\n      swap1\n    tag_272:\n      dup2\n      sload\n      dup2\n      mstore\n      swap1\n      0x01\n      add\n      swap1\n      0x20\n      add\n      dup1\n      dup4\n      gt\n      tag_272\n      jumpi\n      dup3\n      swap1\n      sub\n      0x1f\n      and\n      dup3\n      add\n      swap2\n    tag_270:\n      pop\n      pop\n      pop\n      pop\n      pop\n      dup2\n      mstore\n      0x20\n      add\n      0x01\n      dup3\n      add\n      sload\n      dup2\n      mstore\n      0x20\n      add\n      0x02\n      dup3\n      add\n      sload\n      dup2\n      mstore\n      pop\n      pop\n      dup2\n      mstore\n      0x20\n      add\n      swap1\n      0x01\n      add\n      swap1\n      jump(tag_265)\n    tag_266:\n      pop\n      pop\n      pop\n      pop\n      swap1\n      pop\n        /* \"EtherFund.sol\":3643:3730  function getTiers() public view returns (Tier[] memory) {... */\n      swap1\n      jump\t// out\n        /* \"EtherFund.sol\":1369:1789  function checkAndUpdateCampaignState() internal {... */\n    tag_164:\n        /* \"EtherFund.sol\":1440:1460  CampaignState.Active */\n      0x00\n        /* \"EtherFund.sol\":1431:1436  state */\n      sload(0x04)\n      shl(0xa8, 0x01)\n      swap1\n      div\n      0xff\n      and\n        /* \"EtherFund.sol\":1431:1460  state == CampaignState.Active */\n      0x02\n      dup2\n      gt\n      iszero\n      tag_277\n      jumpi\n      tag_277\n      tag_135\n      jump\t// in\n    tag_277:\n      sub\n        /* \"EtherFund.sol\":1428:1782  if(state == CampaignState.Active) {... */\n      tag_284\n      jumpi\n        /* \"EtherFund.sol\":1499:1507  deadline */\n      sload(0x03)\n        /* \"EtherFund.sol\":1480:1495  block.timestamp */\n      timestamp\n        /* \"EtherFund.sol\":1480:1507  block.timestamp >= deadline */\n      lt\n        /* \"EtherFund.sol\":1477:1771  if(block.timestamp >= deadline) {... */\n      tag_279\n      jumpi\n        /* \"EtherFund.sol\":1561:1565  goal */\n      sload(0x02)\n        /* \"EtherFund.sol\":1536:1557  address(this).balance */\n      selfbalance\n        /* \"EtherFund.sol\":1536:1565  address(this).balance >= goal */\n      lt\n      iszero\n        /* \"EtherFund.sol\":1536:1615  address(this).balance >= goal ? CampaignState.Successful : CampaignState.Failed */\n      tag_280\n      jumpi\n        /* \"EtherFund.sol\":1595:1615  CampaignState.Failed */\n      0x02\n        /* \"EtherFund.sol\":1536:1615  address(this).balance >= goal ? CampaignState.Successful : CampaignState.Failed */\n      jump(tag_281)\n    tag_280:\n        /* \"EtherFund.sol\":1568:1592  CampaignState.Successful */\n      0x01\n        /* \"EtherFund.sol\":1536:1615  address(this).balance >= goal ? CampaignState.Successful : CampaignState.Failed */\n    tag_281:\n        /* \"EtherFund.sol\":1528:1533  state */\n      0x04\n        /* \"EtherFund.sol\":1528:1615  state = address(this).balance >= goal ? CampaignState.Successful : CampaignState.Failed */\n      dup1\n      sload\n      0xffffffffffffffffffff00ffffffffffffffffffffffffffffffffffffffffff\n      and\n      shl(0xa8, 0x01)\n      dup4\n      0x02\n      dup2\n      gt\n      iszero\n      tag_283\n      jumpi\n      tag_283\n      tag_135\n      jump\t// in\n    tag_283:\n      mul\n      or\n      swap1\n      sstore\n      pop\n        /* \"EtherFund.sol\":1369:1789  function checkAndUpdateCampaignState() internal {... */\n      jump\t// out\n        /* \"EtherFund.sol\":1477:1771  if(block.timestamp >= deadline) {... */\n    tag_279:\n        /* \"EtherFund.sol\":1701:1705  goal */\n      sload(0x02)\n        /* \"EtherFund.sol\":1676:1697  address(this).balance */\n      selfbalance\n        /* \"EtherFund.sol\":1676:1705  address(this).balance >= goal */\n      lt\n      iszero\n        /* \"EtherFund.sol\":1676:1755  address(this).balance >= goal ? CampaignState.Successful : CampaignState.Active */\n      tag_280\n      jumpi\n        /* \"EtherFund.sol\":1735:1755  CampaignState.Active */\n      0x00\n        /* \"EtherFund.sol\":1676:1755  address(this).balance >= goal ? CampaignState.Successful : CampaignState.Active */\n      jump(tag_281)\n        /* \"EtherFund.sol\":1477:1771  if(block.timestamp >= deadline) {... */\n    tag_284:\n        /* \"EtherFund.sol\":1369:1789  function checkAndUpdateCampaignState() internal {... */\n      jump\t// out\n    tag_220:\n      pop\n      dup1\n      sload\n      tag_289\n      swap1\n      tag_122\n      jump\t// in\n    tag_289:\n      0x00\n      dup3\n      sstore\n      dup1\n      0x1f\n      lt\n      tag_291\n      jumpi\n      pop\n      pop\n      jump\t// out\n    tag_291:\n      0x1f\n      add\n      0x20\n      swap1\n      div\n      swap1\n      0x00\n      mstore\n      keccak256(0x00, 0x20)\n      swap1\n      dup2\n      add\n      swap1\n      tag_263\n      swap2\n      swap1\n    tag_294:\n      dup1\n      dup3\n      gt\n      iszero\n      tag_295\n      jumpi\n      0x00\n      dup2\n      sstore\n      0x01\n      add\n      jump(tag_294)\n    tag_295:\n      pop\n      swap1\n      jump\t// out\n        /* \"#utility.yul\":14:194   */\n    tag_32:\n        /* \"#utility.yul\":73:79   */\n      0x00\n        /* \"#utility.yul\":126:128   */\n      0x20\n        /* \"#utility.yul\":114:123   */\n      dup3\n        /* \"#utility.yul\":105:112   */\n      dup5\n        /* \"#utility.yul\":101:124   */\n      sub\n        /* \"#utility.yul\":97:129   */\n      slt\n        /* \"#utility.yul\":94:146   */\n      iszero\n      tag_305\n      jumpi\n        /* \"#utility.yul\":142:143   */\n      0x00\n        /* \"#utility.yul\":139:140   */\n      dup1\n        /* \"#utility.yul\":132:144   */\n      revert\n        /* \"#utility.yul\":94:146   */\n    tag_305:\n      pop\n        /* \"#utility.yul\":165:188   */\n      calldataload\n      swap2\n        /* \"#utility.yul\":14:194   */\n      swap1\n      pop\n      jump\t// out\n        /* \"#utility.yul\":199:488   */\n    tag_296:\n        /* \"#utility.yul\":241:244   */\n      0x00\n        /* \"#utility.yul\":279:284   */\n      dup2\n        /* \"#utility.yul\":273:285   */\n      mload\n        /* \"#utility.yul\":306:312   */\n      dup1\n        /* \"#utility.yul\":301:304   */\n      dup5\n        /* \"#utility.yul\":294:313   */\n      mstore\n        /* \"#utility.yul\":362:368   */\n      dup1\n        /* \"#utility.yul\":355:359   */\n      0x20\n        /* \"#utility.yul\":348:353   */\n      dup5\n        /* \"#utility.yul\":344:360   */\n      add\n        /* \"#utility.yul\":337:341   */\n      0x20\n        /* \"#utility.yul\":332:335   */\n      dup7\n        /* \"#utility.yul\":328:342   */\n      add\n        /* \"#utility.yul\":322:369   */\n      mcopy\n        /* \"#utility.yul\":414:415   */\n      0x00\n        /* \"#utility.yul\":407:411   */\n      0x20\n        /* \"#utility.yul\":398:404   */\n      dup3\n        /* \"#utility.yul\":393:396   */\n      dup7\n        /* \"#utility.yul\":389:405   */\n      add\n        /* \"#utility.yul\":385:412   */\n      add\n        /* \"#utility.yul\":378:416   */\n      mstore\n        /* \"#utility.yul\":477:481   */\n      0x20\n        /* \"#utility.yul\":470:472   */\n      0x1f\n        /* \"#utility.yul\":466:473   */\n      not\n        /* \"#utility.yul\":461:463   */\n      0x1f\n        /* \"#utility.yul\":453:459   */\n      dup4\n        /* \"#utility.yul\":449:464   */\n      add\n        /* \"#utility.yul\":445:474   */\n      and\n        /* \"#utility.yul\":440:443   */\n      dup6\n        /* \"#utility.yul\":436:475   */\n      add\n        /* \"#utility.yul\":432:482   */\n      add\n        /* \"#utility.yul\":425:482   */\n      swap2\n      pop\n      pop\n        /* \"#utility.yul\":199:488   */\n      swap3\n      swap2\n      pop\n      pop\n      jump\t// out\n        /* \"#utility.yul\":493:855   */\n    tag_35:\n        /* \"#utility.yul\":698:700   */\n      0x60\n        /* \"#utility.yul\":687:696   */\n      dup2\n        /* \"#utility.yul\":680:701   */\n      mstore\n        /* \"#utility.yul\":661:665   */\n      0x00\n        /* \"#utility.yul\":718:763   */\n      tag_308\n        /* \"#utility.yul\":759:761   */\n      0x60\n        /* \"#utility.yul\":748:757   */\n      dup4\n        /* \"#utility.yul\":744:762   */\n      add\n        /* \"#utility.yul\":736:742   */\n      dup7\n        /* \"#utility.yul\":718:763   */\n      tag_296\n      jump\t// in\n    tag_308:\n        /* \"#utility.yul\":794:796   */\n      0x20\n        /* \"#utility.yul\":779:797   */\n      dup4\n      add\n        /* \"#utility.yul\":772:806   */\n      swap5\n      swap1\n      swap5\n      mstore\n      pop\n        /* \"#utility.yul\":837:839   */\n      0x40\n        /* \"#utility.yul\":822:840   */\n      add\n        /* \"#utility.yul\":815:849   */\n      mstore\n        /* \"#utility.yul\":710:763   */\n      swap2\n        /* \"#utility.yul\":493:855   */\n      swap1\n      pop\n      jump\t// out\n        /* \"#utility.yul\":860:1080   */\n    tag_40:\n        /* \"#utility.yul\":1009:1011   */\n      0x20\n        /* \"#utility.yul\":998:1007   */\n      dup2\n        /* \"#utility.yul\":991:1012   */\n      mstore\n        /* \"#utility.yul\":972:976   */\n      0x00\n        /* \"#utility.yul\":1029:1074   */\n      tag_310\n        /* \"#utility.yul\":1070:1072   */\n      0x20\n        /* \"#utility.yul\":1059:1068   */\n      dup4\n        /* \"#utility.yul\":1055:1073   */\n      add\n        /* \"#utility.yul\":1047:1053   */\n      dup5\n        /* \"#utility.yul\":1029:1074   */\n      tag_296\n      jump\t// in\n    tag_310:\n        /* \"#utility.yul\":1021:1074   */\n      swap4\n        /* \"#utility.yul\":860:1080   */\n      swap3\n      pop\n      pop\n      pop\n      jump\t// out\n        /* \"#utility.yul\":1085:1212   */\n    tag_135:\n        /* \"#utility.yul\":1146:1156   */\n      0x4e487b71\n        /* \"#utility.yul\":1141:1144   */\n      0xe0\n        /* \"#utility.yul\":1137:1157   */\n      shl\n        /* \"#utility.yul\":1134:1135   */\n      0x00\n        /* \"#utility.yul\":1127:1158   */\n      mstore\n        /* \"#utility.yul\":1177:1181   */\n      0x21\n        /* \"#utility.yul\":1174:1175   */\n      0x04\n        /* \"#utility.yul\":1167:1182   */\n      mstore\n        /* \"#utility.yul\":1201:1205   */\n      0x24\n        /* \"#utility.yul\":1198:1199   */\n      0x00\n        /* \"#utility.yul\":1191:1206   */\n      revert\n        /* \"#utility.yul\":1217:1563   */\n    tag_45:\n        /* \"#utility.yul\":1367:1369   */\n      0x20\n        /* \"#utility.yul\":1352:1370   */\n      dup2\n      add\n        /* \"#utility.yul\":1400:1401   */\n      0x03\n        /* \"#utility.yul\":1389:1402   */\n      dup4\n      lt\n        /* \"#utility.yul\":1379:1523   */\n      tag_313\n      jumpi\n        /* \"#utility.yul\":1445:1455   */\n      0x4e487b71\n        /* \"#utility.yul\":1440:1443   */\n      0xe0\n        /* \"#utility.yul\":1436:1456   */\n      shl\n        /* \"#utility.yul\":1433:1434   */\n      0x00\n        /* \"#utility.yul\":1426:1457   */\n      mstore\n        /* \"#utility.yul\":1480:1484   */\n      0x21\n        /* \"#utility.yul\":1477:1478   */\n      0x04\n        /* \"#utility.yul\":1470:1485   */\n      mstore\n        /* \"#utility.yul\":1508:1512   */\n      0x24\n        /* \"#utility.yul\":1505:1506   */\n      0x00\n        /* \"#utility.yul\":1498:1513   */\n      revert\n        /* \"#utility.yul\":1379:1523   */\n    tag_313:\n        /* \"#utility.yul\":1532:1557   */\n      swap2\n      swap1\n      mstore\n        /* \"#utility.yul\":1217:1563   */\n      swap1\n      jump\t// out\n        /* \"#utility.yul\":1942:2138   */\n    tag_297:\n        /* \"#utility.yul\":2010:2030   */\n      dup1\n      calldataload\n      sub(shl(0xa0, 0x01), 0x01)\n        /* \"#utility.yul\":2059:2113   */\n      dup2\n      and\n        /* \"#utility.yul\":2049:2114   */\n      dup2\n      eq\n        /* \"#utility.yul\":2039:2132   */\n      tag_317\n      jumpi\n        /* \"#utility.yul\":2128:2129   */\n      0x00\n        /* \"#utility.yul\":2125:2126   */\n      dup1\n        /* \"#utility.yul\":2118:2130   */\n      revert\n        /* \"#utility.yul\":2039:2132   */\n    tag_317:\n        /* \"#utility.yul\":1942:2138   */\n      swap2\n      swap1\n      pop\n      jump\t// out\n        /* \"#utility.yul\":2143:2397   */\n    tag_85:\n        /* \"#utility.yul\":2211:2217   */\n      0x00\n        /* \"#utility.yul\":2219:2225   */\n      dup1\n        /* \"#utility.yul\":2272:2274   */\n      0x40\n        /* \"#utility.yul\":2260:2269   */\n      dup4\n        /* \"#utility.yul\":2251:2258   */\n      dup6\n        /* \"#utility.yul\":2247:2270   */\n      sub\n        /* \"#utility.yul\":2243:2275   */\n      slt\n        /* \"#utility.yul\":2240:2292   */\n      iszero\n      tag_319\n      jumpi\n        /* \"#utility.yul\":2288:2289   */\n      0x00\n        /* \"#utility.yul\":2285:2286   */\n      dup1\n        /* \"#utility.yul\":2278:2290   */\n      revert\n        /* \"#utility.yul\":2240:2292   */\n    tag_319:\n        /* \"#utility.yul\":2311:2340   */\n      tag_320\n        /* \"#utility.yul\":2330:2339   */\n      dup4\n        /* \"#utility.yul\":2311:2340   */\n      tag_297\n      jump\t// in\n    tag_320:\n        /* \"#utility.yul\":2301:2340   */\n      swap5\n        /* \"#utility.yul\":2387:2389   */\n      0x20\n        /* \"#utility.yul\":2372:2390   */\n      swap4\n      swap1\n      swap4\n      add\n        /* \"#utility.yul\":2359:2391   */\n      calldataload\n      swap4\n      pop\n      pop\n      pop\n        /* \"#utility.yul\":2143:2397   */\n      jump\t// out\n        /* \"#utility.yul\":2633:2760   */\n    tag_298:\n        /* \"#utility.yul\":2694:2704   */\n      0x4e487b71\n        /* \"#utility.yul\":2689:2692   */\n      0xe0\n        /* \"#utility.yul\":2685:2705   */\n      shl\n        /* \"#utility.yul\":2682:2683   */\n      0x00\n        /* \"#utility.yul\":2675:2706   */\n      mstore\n        /* \"#utility.yul\":2725:2729   */\n      0x41\n        /* \"#utility.yul\":2722:2723   */\n      0x04\n        /* \"#utility.yul\":2715:2730   */\n      mstore\n        /* \"#utility.yul\":2749:2753   */\n      0x24\n        /* \"#utility.yul\":2746:2747   */\n      0x00\n        /* \"#utility.yul\":2739:2754   */\n      revert\n        /* \"#utility.yul\":2765:3765   */\n    tag_96:\n        /* \"#utility.yul\":2843:2849   */\n      0x00\n        /* \"#utility.yul\":2851:2857   */\n      dup1\n        /* \"#utility.yul\":2904:2906   */\n      0x40\n        /* \"#utility.yul\":2892:2901   */\n      dup4\n        /* \"#utility.yul\":2883:2890   */\n      dup6\n        /* \"#utility.yul\":2879:2902   */\n      sub\n        /* \"#utility.yul\":2875:2907   */\n      slt\n        /* \"#utility.yul\":2872:2924   */\n      iszero\n      tag_324\n      jumpi\n        /* \"#utility.yul\":2920:2921   */\n      0x00\n        /* \"#utility.yul\":2917:2918   */\n      dup1\n        /* \"#utility.yul\":2910:2922   */\n      revert\n        /* \"#utility.yul\":2872:2924   */\n    tag_324:\n        /* \"#utility.yul\":2960:2969   */\n      dup3\n        /* \"#utility.yul\":2947:2970   */\n      calldataload\n        /* \"#utility.yul\":2989:3007   */\n      0xffffffffffffffff\n        /* \"#utility.yul\":3030:3032   */\n      dup1\n        /* \"#utility.yul\":3022:3028   */\n      dup3\n        /* \"#utility.yul\":3019:3033   */\n      gt\n        /* \"#utility.yul\":3016:3050   */\n      iszero\n      tag_325\n      jumpi\n        /* \"#utility.yul\":3046:3047   */\n      0x00\n        /* \"#utility.yul\":3043:3044   */\n      dup1\n        /* \"#utility.yul\":3036:3048   */\n      revert\n        /* \"#utility.yul\":3016:3050   */\n    tag_325:\n        /* \"#utility.yul\":3084:3090   */\n      dup2\n        /* \"#utility.yul\":3073:3082   */\n      dup6\n        /* \"#utility.yul\":3069:3091   */\n      add\n        /* \"#utility.yul\":3059:3091   */\n      swap2\n      pop\n        /* \"#utility.yul\":3129:3136   */\n      dup6\n        /* \"#utility.yul\":3122:3126   */\n      0x1f\n        /* \"#utility.yul\":3118:3120   */\n      dup4\n        /* \"#utility.yul\":3114:3127   */\n      add\n        /* \"#utility.yul\":3110:3137   */\n      slt\n        /* \"#utility.yul\":3100:3155   */\n      tag_326\n      jumpi\n        /* \"#utility.yul\":3151:3152   */\n      0x00\n        /* \"#utility.yul\":3148:3149   */\n      dup1\n        /* \"#utility.yul\":3141:3153   */\n      revert\n        /* \"#utility.yul\":3100:3155   */\n    tag_326:\n        /* \"#utility.yul\":3187:3189   */\n      dup2\n        /* \"#utility.yul\":3174:3190   */\n      calldataload\n        /* \"#utility.yul\":3209:3211   */\n      dup2\n        /* \"#utility.yul\":3205:3207   */\n      dup2\n        /* \"#utility.yul\":3202:3212   */\n      gt\n        /* \"#utility.yul\":3199:3235   */\n      iszero\n      tag_328\n      jumpi\n        /* \"#utility.yul\":3215:3233   */\n      tag_328\n      tag_298\n      jump\t// in\n    tag_328:\n        /* \"#utility.yul\":3290:3292   */\n      0x40\n        /* \"#utility.yul\":3284:3293   */\n      mload\n        /* \"#utility.yul\":3258:3260   */\n      0x1f\n        /* \"#utility.yul\":3344:3357   */\n      dup3\n      add\n      not(0x1f)\n        /* \"#utility.yul\":3340:3362   */\n      swap1\n      dup2\n      and\n        /* \"#utility.yul\":3364:3366   */\n      0x3f\n        /* \"#utility.yul\":3336:3367   */\n      add\n        /* \"#utility.yul\":3332:3372   */\n      and\n        /* \"#utility.yul\":3320:3373   */\n      dup2\n      add\n      swap1\n        /* \"#utility.yul\":3388:3406   */\n      dup4\n      dup3\n      gt\n        /* \"#utility.yul\":3408:3430   */\n      dup2\n      dup4\n      lt\n        /* \"#utility.yul\":3385:3431   */\n      or\n        /* \"#utility.yul\":3382:3454   */\n      iszero\n      tag_330\n      jumpi\n        /* \"#utility.yul\":3434:3452   */\n      tag_330\n      tag_298\n      jump\t// in\n    tag_330:\n        /* \"#utility.yul\":3474:3484   */\n      dup2\n        /* \"#utility.yul\":3470:3472   */\n      0x40\n        /* \"#utility.yul\":3463:3485   */\n      mstore\n        /* \"#utility.yul\":3509:3511   */\n      dup3\n        /* \"#utility.yul\":3501:3507   */\n      dup2\n        /* \"#utility.yul\":3494:3512   */\n      mstore\n        /* \"#utility.yul\":3551:3558   */\n      dup9\n        /* \"#utility.yul\":3544:3548   */\n      0x20\n        /* \"#utility.yul\":3539:3541   */\n      dup5\n        /* \"#utility.yul\":3535:3537   */\n      dup8\n        /* \"#utility.yul\":3531:3542   */\n      add\n        /* \"#utility.yul\":3527:3549   */\n      add\n        /* \"#utility.yul\":3524:3559   */\n      gt\n        /* \"#utility.yul\":3521:3576   */\n      iszero\n      tag_331\n      jumpi\n        /* \"#utility.yul\":3572:3573   */\n      0x00\n        /* \"#utility.yul\":3569:3570   */\n      dup1\n        /* \"#utility.yul\":3562:3574   */\n      revert\n        /* \"#utility.yul\":3521:3576   */\n    tag_331:\n        /* \"#utility.yul\":3632:3634   */\n      dup3\n        /* \"#utility.yul\":3625:3629   */\n      0x20\n        /* \"#utility.yul\":3621:3623   */\n      dup7\n        /* \"#utility.yul\":3617:3630   */\n      add\n        /* \"#utility.yul\":3610:3614   */\n      0x20\n        /* \"#utility.yul\":3602:3608   */\n      dup4\n        /* \"#utility.yul\":3598:3615   */\n      add\n        /* \"#utility.yul\":3585:3635   */\n      calldatacopy\n        /* \"#utility.yul\":3679:3680   */\n      0x00\n        /* \"#utility.yul\":3672:3676   */\n      0x20\n        /* \"#utility.yul\":3655:3670   */\n      swap4\n      dup3\n      add\n        /* \"#utility.yul\":3651:3677   */\n      dup5\n      add\n        /* \"#utility.yul\":3644:3681   */\n      mstore\n        /* \"#utility.yul\":3655:3670   */\n      swap9\n        /* \"#utility.yul\":3738:3758   */\n      swap7\n      swap1\n      swap2\n      add\n        /* \"#utility.yul\":3725:3759   */\n      calldataload\n      swap7\n      pop\n      pop\n      pop\n      pop\n      pop\n      pop\n        /* \"#utility.yul\":2765:3765   */\n      jump\t// out\n        /* \"#utility.yul\":3770:3956   */\n    tag_101:\n        /* \"#utility.yul\":3829:3835   */\n      0x00\n        /* \"#utility.yul\":3882:3884   */\n      0x20\n        /* \"#utility.yul\":3870:3879   */\n      dup3\n        /* \"#utility.yul\":3861:3868   */\n      dup5\n        /* \"#utility.yul\":3857:3880   */\n      sub\n        /* \"#utility.yul\":3853:3885   */\n      slt\n        /* \"#utility.yul\":3850:3902   */\n      iszero\n      tag_333\n      jumpi\n        /* \"#utility.yul\":3898:3899   */\n      0x00\n        /* \"#utility.yul\":3895:3896   */\n      dup1\n        /* \"#utility.yul\":3888:3900   */\n      revert\n        /* \"#utility.yul\":3850:3902   */\n    tag_333:\n        /* \"#utility.yul\":3921:3950   */\n      tag_310\n        /* \"#utility.yul\":3940:3949   */\n      dup3\n        /* \"#utility.yul\":3921:3950   */\n      tag_297\n      jump\t// in\n        /* \"#utility.yul\":3961:5098   */\n    tag_118:\n        /* \"#utility.yul\":4147:4151   */\n      0x00\n        /* \"#utility.yul\":4176:4178   */\n      0x20\n        /* \"#utility.yul\":4216:4218   */\n      dup1\n        /* \"#utility.yul\":4205:4214   */\n      dup4\n        /* \"#utility.yul\":4201:4219   */\n      add\n        /* \"#utility.yul\":4246:4248   */\n      dup2\n        /* \"#utility.yul\":4235:4244   */\n      dup5\n        /* \"#utility.yul\":4228:4249   */\n      mstore\n        /* \"#utility.yul\":4269:4275   */\n      dup1\n        /* \"#utility.yul\":4304:4310   */\n      dup6\n        /* \"#utility.yul\":4298:4311   */\n      mload\n        /* \"#utility.yul\":4335:4341   */\n      dup1\n        /* \"#utility.yul\":4327:4333   */\n      dup4\n        /* \"#utility.yul\":4320:4342   */\n      mstore\n        /* \"#utility.yul\":4361:4363   */\n      0x40\n        /* \"#utility.yul\":4351:4363   */\n      swap3\n      pop\n        /* \"#utility.yul\":4394:4396   */\n      0x40\n        /* \"#utility.yul\":4383:4392   */\n      dup7\n        /* \"#utility.yul\":4379:4397   */\n      add\n        /* \"#utility.yul\":4372:4397   */\n      swap2\n      pop\n        /* \"#utility.yul\":4456:4458   */\n      0x40\n        /* \"#utility.yul\":4446:4452   */\n      dup2\n        /* \"#utility.yul\":4443:4444   */\n      0x05\n        /* \"#utility.yul\":4439:4453   */\n      shl\n        /* \"#utility.yul\":4428:4437   */\n      dup8\n        /* \"#utility.yul\":4424:4454   */\n      add\n        /* \"#utility.yul\":4420:4459   */\n      add\n        /* \"#utility.yul\":4494:4496   */\n      dup5\n        /* \"#utility.yul\":4486:4492   */\n      dup9\n        /* \"#utility.yul\":4482:4497   */\n      add\n        /* \"#utility.yul\":4515:4516   */\n      0x00\n        /* \"#utility.yul\":4525:5069   */\n    tag_336:\n        /* \"#utility.yul\":4539:4545   */\n      dup4\n        /* \"#utility.yul\":4536:4537   */\n      dup2\n        /* \"#utility.yul\":4533:4546   */\n      lt\n        /* \"#utility.yul\":4525:5069   */\n      iszero\n      tag_338\n      jumpi\n        /* \"#utility.yul\":4632:4634   */\n      0x3f\n        /* \"#utility.yul\":4628:4635   */\n      not\n        /* \"#utility.yul\":4616:4625   */\n      dup10\n        /* \"#utility.yul\":4608:4614   */\n      dup5\n        /* \"#utility.yul\":4604:4626   */\n      sub\n        /* \"#utility.yul\":4600:4636   */\n      add\n        /* \"#utility.yul\":4595:4598   */\n      dup6\n        /* \"#utility.yul\":4588:4637   */\n      mstore\n        /* \"#utility.yul\":4666:4672   */\n      dup2\n        /* \"#utility.yul\":4660:4673   */\n      mload\n        /* \"#utility.yul\":4696:4700   */\n      0x60\n        /* \"#utility.yul\":4739:4741   */\n      dup2\n        /* \"#utility.yul\":4733:4742   */\n      mload\n        /* \"#utility.yul\":4770:4772   */\n      dup2\n        /* \"#utility.yul\":4762:4768   */\n      dup7\n        /* \"#utility.yul\":4755:4773   */\n      mstore\n        /* \"#utility.yul\":4800:4848   */\n      tag_339\n        /* \"#utility.yul\":4844:4846   */\n      dup3\n        /* \"#utility.yul\":4836:4842   */\n      dup8\n        /* \"#utility.yul\":4832:4847   */\n      add\n        /* \"#utility.yul\":4818:4830   */\n      dup3\n        /* \"#utility.yul\":4800:4848   */\n      tag_296\n      jump\t// in\n    tag_339:\n        /* \"#utility.yul\":4891:4902   */\n      dup4\n      dup12\n      add\n        /* \"#utility.yul\":4885:4903   */\n      mload\n        /* \"#utility.yul\":4868:4883   */\n      dup8\n      dup13\n      add\n        /* \"#utility.yul\":4861:4904   */\n      mstore\n        /* \"#utility.yul\":4947:4958   */\n      swap3\n      dup10\n      add\n        /* \"#utility.yul\":4941:4959   */\n      mload\n        /* \"#utility.yul\":4924:4939   */\n      swap6\n      dup10\n      add\n        /* \"#utility.yul\":4917:4960   */\n      swap6\n      swap1\n      swap6\n      mstore\n      pop\n        /* \"#utility.yul\":5047:5059   */\n      swap5\n      dup8\n      add\n      swap5\n        /* \"#utility.yul\":4786:4848   */\n      swap3\n      pop\n        /* \"#utility.yul\":5012:5027   */\n      swap1\n      dup7\n      add\n      swap1\n        /* \"#utility.yul\":4561:4562   */\n      0x01\n        /* \"#utility.yul\":4554:4563   */\n      add\n        /* \"#utility.yul\":4525:5069   */\n      jump(tag_336)\n    tag_338:\n      pop\n        /* \"#utility.yul\":5086:5092   */\n      swap1\n      swap9\n        /* \"#utility.yul\":3961:5098   */\n      swap8\n      pop\n      pop\n      pop\n      pop\n      pop\n      pop\n      pop\n      pop\n      jump\t// out\n        /* \"#utility.yul\":5103:5483   */\n    tag_122:\n        /* \"#utility.yul\":5182:5183   */\n      0x01\n        /* \"#utility.yul\":5178:5190   */\n      dup2\n      dup2\n      shr\n      swap1\n        /* \"#utility.yul\":5225:5237   */\n      dup3\n      and\n      dup1\n        /* \"#utility.yul\":5246:5307   */\n      tag_341\n      jumpi\n        /* \"#utility.yul\":5300:5304   */\n      0x7f\n        /* \"#utility.yul\":5292:5298   */\n      dup3\n        /* \"#utility.yul\":5288:5305   */\n      and\n        /* \"#utility.yul\":5278:5305   */\n      swap2\n      pop\n        /* \"#utility.yul\":5246:5307   */\n    tag_341:\n        /* \"#utility.yul\":5353:5355   */\n      0x20\n        /* \"#utility.yul\":5345:5351   */\n      dup3\n        /* \"#utility.yul\":5342:5356   */\n      lt\n        /* \"#utility.yul\":5322:5340   */\n      dup2\n        /* \"#utility.yul\":5319:5357   */\n      sub\n        /* \"#utility.yul\":5316:5477   */\n      tag_342\n      jumpi\n        /* \"#utility.yul\":5399:5409   */\n      0x4e487b71\n        /* \"#utility.yul\":5394:5397   */\n      0xe0\n        /* \"#utility.yul\":5390:5410   */\n      shl\n        /* \"#utility.yul\":5387:5388   */\n      0x00\n        /* \"#utility.yul\":5380:5411   */\n      mstore\n        /* \"#utility.yul\":5434:5438   */\n      0x22\n        /* \"#utility.yul\":5431:5432   */\n      0x04\n        /* \"#utility.yul\":5424:5439   */\n      mstore\n        /* \"#utility.yul\":5462:5466   */\n      0x24\n        /* \"#utility.yul\":5459:5460   */\n      0x00\n        /* \"#utility.yul\":5452:5467   */\n      revert\n        /* \"#utility.yul\":5316:5477   */\n    tag_342:\n      pop\n        /* \"#utility.yul\":5103:5483   */\n      swap2\n      swap1\n      pop\n      jump\t// out\n        /* \"#utility.yul\":6182:6309   */\n    tag_299:\n        /* \"#utility.yul\":6243:6253   */\n      0x4e487b71\n        /* \"#utility.yul\":6238:6241   */\n      0xe0\n        /* \"#utility.yul\":6234:6254   */\n      shl\n        /* \"#utility.yul\":6231:6232   */\n      0x00\n        /* \"#utility.yul\":6224:6255   */\n      mstore\n        /* \"#utility.yul\":6274:6278   */\n      0x11\n        /* \"#utility.yul\":6271:6272   */\n      0x04\n        /* \"#utility.yul\":6264:6279   */\n      mstore\n        /* \"#utility.yul\":6298:6302   */\n      0x24\n        /* \"#utility.yul\":6295:6296   */\n      0x00\n        /* \"#utility.yul\":6288:6303   */\n      revert\n        /* \"#utility.yul\":6314:6482   */\n    tag_156:\n        /* \"#utility.yul\":6387:6396   */\n      dup1\n      dup3\n      mul\n        /* \"#utility.yul\":6418:6427   */\n      dup2\n      iszero\n        /* \"#utility.yul\":6435:6450   */\n      dup3\n      dup3\n      div\n        /* \"#utility.yul\":6429:6451   */\n      dup5\n      eq\n        /* \"#utility.yul\":6415:6452   */\n      or\n        /* \"#utility.yul\":6405:6476   */\n      tag_221\n      jumpi\n        /* \"#utility.yul\":6456:6474   */\n      tag_221\n      tag_299\n      jump\t// in\n        /* \"#utility.yul\":6487:6612   */\n    tag_158:\n        /* \"#utility.yul\":6552:6561   */\n      dup1\n      dup3\n      add\n        /* \"#utility.yul\":6573:6583   */\n      dup1\n      dup3\n      gt\n        /* \"#utility.yul\":6570:6606   */\n      iszero\n      tag_221\n      jumpi\n        /* \"#utility.yul\":6586:6604   */\n      tag_221\n      tag_299\n      jump\t// in\n        /* \"#utility.yul\":8375:8503   */\n    tag_205:\n        /* \"#utility.yul\":8442:8451   */\n      dup2\n      dup2\n      sub\n        /* \"#utility.yul\":8463:8474   */\n      dup2\n      dup2\n      gt\n        /* \"#utility.yul\":8460:8497   */\n      iszero\n      tag_221\n      jumpi\n        /* \"#utility.yul\":8477:8495   */\n      tag_221\n      tag_299\n      jump\t// in\n        /* \"#utility.yul\":8508:8635   */\n    tag_208:\n        /* \"#utility.yul\":8569:8579   */\n      0x4e487b71\n        /* \"#utility.yul\":8564:8567   */\n      0xe0\n        /* \"#utility.yul\":8560:8580   */\n      shl\n        /* \"#utility.yul\":8557:8558   */\n      0x00\n        /* \"#utility.yul\":8550:8581   */\n      mstore\n        /* \"#utility.yul\":8600:8604   */\n      0x32\n        /* \"#utility.yul\":8597:8598   */\n      0x04\n        /* \"#utility.yul\":8590:8605   */\n      mstore\n        /* \"#utility.yul\":8624:8628   */\n      0x24\n        /* \"#utility.yul\":8621:8622   */\n      0x00\n        /* \"#utility.yul\":8614:8629   */\n      revert\n        /* \"#utility.yul\":8766:9284   */\n    tag_301:\n        /* \"#utility.yul\":8868:8870   */\n      0x1f\n        /* \"#utility.yul\":8863:8866   */\n      dup3\n        /* \"#utility.yul\":8860:8871   */\n      gt\n        /* \"#utility.yul\":8857:9278   */\n      iszero\n      tag_363\n      jumpi\n        /* \"#utility.yul\":8904:8909   */\n      dup1\n        /* \"#utility.yul\":8901:8902   */\n      0x00\n        /* \"#utility.yul\":8894:8910   */\n      mstore\n        /* \"#utility.yul\":8948:8952   */\n      0x20\n        /* \"#utility.yul\":8945:8946   */\n      0x00\n        /* \"#utility.yul\":8935:8953   */\n      keccak256\n        /* \"#utility.yul\":9018:9020   */\n      0x1f\n        /* \"#utility.yul\":9006:9016   */\n      dup5\n        /* \"#utility.yul\":9002:9021   */\n      add\n        /* \"#utility.yul\":8999:9000   */\n      0x05\n        /* \"#utility.yul\":8995:9022   */\n      shr\n        /* \"#utility.yul\":8989:8993   */\n      dup2\n        /* \"#utility.yul\":8985:9023   */\n      add\n        /* \"#utility.yul\":9054:9058   */\n      0x20\n        /* \"#utility.yul\":9042:9052   */\n      dup6\n        /* \"#utility.yul\":9039:9059   */\n      lt\n        /* \"#utility.yul\":9036:9083   */\n      iszero\n      tag_364\n      jumpi\n      pop\n        /* \"#utility.yul\":9077:9081   */\n      dup1\n        /* \"#utility.yul\":9036:9083   */\n    tag_364:\n        /* \"#utility.yul\":9132:9134   */\n      0x1f\n        /* \"#utility.yul\":9127:9130   */\n      dup5\n        /* \"#utility.yul\":9123:9135   */\n      add\n        /* \"#utility.yul\":9120:9121   */\n      0x05\n        /* \"#utility.yul\":9116:9136   */\n      shr\n        /* \"#utility.yul\":9110:9114   */\n      dup3\n        /* \"#utility.yul\":9106:9137   */\n      add\n        /* \"#utility.yul\":9096:9137   */\n      swap2\n      pop\n        /* \"#utility.yul\":9187:9268   */\n    tag_365:\n        /* \"#utility.yul\":9205:9207   */\n      dup2\n        /* \"#utility.yul\":9198:9203   */\n      dup2\n        /* \"#utility.yul\":9195:9208   */\n      lt\n        /* \"#utility.yul\":9187:9268   */\n      iszero\n      tag_367\n      jumpi\n        /* \"#utility.yul\":9264:9265   */\n      0x00\n        /* \"#utility.yul\":9250:9266   */\n      dup2\n      sstore\n        /* \"#utility.yul\":9231:9232   */\n      0x01\n        /* \"#utility.yul\":9220:9233   */\n      add\n        /* \"#utility.yul\":9187:9268   */\n      jump(tag_365)\n    tag_367:\n        /* \"#utility.yul\":9191:9194   */\n      pop\n      pop\n        /* \"#utility.yul\":8857:9278   */\n    tag_363:\n        /* \"#utility.yul\":8766:9284   */\n      pop\n      pop\n      pop\n      jump\t// out\n        /* \"#utility.yul\":9460:10883   */\n    tag_214:\n        /* \"#utility.yul\":9575:9578   */\n      dup2\n        /* \"#utility.yul\":9569:9573   */\n      dup2\n        /* \"#utility.yul\":9566:9579   */\n      sub\n        /* \"#utility.yul\":9563:9589   */\n      tag_370\n      jumpi\n        /* \"#utility.yul\":9582:9587   */\n      pop\n      pop\n        /* \"#utility.yul\":9460:10883   */\n      jump\t// out\n        /* \"#utility.yul\":9563:9589   */\n    tag_370:\n        /* \"#utility.yul\":9612:9649   */\n      tag_371\n        /* \"#utility.yul\":9644:9647   */\n      dup3\n        /* \"#utility.yul\":9638:9648   */\n      sload\n        /* \"#utility.yul\":9612:9649   */\n      tag_122\n      jump\t// in\n    tag_371:\n        /* \"#utility.yul\":9672:9690   */\n      0xffffffffffffffff\n        /* \"#utility.yul\":9664:9670   */\n      dup2\n        /* \"#utility.yul\":9661:9691   */\n      gt\n        /* \"#utility.yul\":9658:9714   */\n      iszero\n      tag_373\n      jumpi\n        /* \"#utility.yul\":9694:9712   */\n      tag_373\n      tag_298\n      jump\t// in\n    tag_373:\n        /* \"#utility.yul\":9723:9820   */\n      tag_374\n        /* \"#utility.yul\":9813:9819   */\n      dup2\n        /* \"#utility.yul\":9773:9811   */\n      tag_375\n        /* \"#utility.yul\":9805:9809   */\n      dup5\n        /* \"#utility.yul\":9799:9810   */\n      sload\n        /* \"#utility.yul\":9773:9811   */\n      tag_122\n      jump\t// in\n    tag_375:\n        /* \"#utility.yul\":9767:9771   */\n      dup5\n        /* \"#utility.yul\":9723:9820   */\n      tag_301\n      jump\t// in\n    tag_374:\n        /* \"#utility.yul\":9846:9847   */\n      0x00\n        /* \"#utility.yul\":9874:9876   */\n      0x1f\n        /* \"#utility.yul\":9866:9872   */\n      dup3\n        /* \"#utility.yul\":9863:9877   */\n      gt\n        /* \"#utility.yul\":9891:9892   */\n      0x01\n        /* \"#utility.yul\":9886:10626   */\n      dup2\n      eq\n      tag_377\n      jumpi\n        /* \"#utility.yul\":10670:10671   */\n      0x00\n        /* \"#utility.yul\":10687:10693   */\n      dup4\n        /* \"#utility.yul\":10684:10773   */\n      iszero\n      tag_378\n      jumpi\n      pop\n        /* \"#utility.yul\":10739:10758   */\n      dup5\n      dup3\n      add\n        /* \"#utility.yul\":10733:10759   */\n      sload\n        /* \"#utility.yul\":10684:10773   */\n    tag_378:\n      not(0x00)\n        /* \"#utility.yul\":9417:9418   */\n      0x03\n        /* \"#utility.yul\":9413:9424   */\n      dup6\n      swap1\n      shl\n        /* \"#utility.yul\":9409:9433   */\n      shr\n        /* \"#utility.yul\":9405:9434   */\n      not\n        /* \"#utility.yul\":9395:9435   */\n      and\n        /* \"#utility.yul\":9441:9442   */\n      0x01\n        /* \"#utility.yul\":9437:9448   */\n      dup5\n      swap1\n      shl\n        /* \"#utility.yul\":9392:9449   */\n      or\n        /* \"#utility.yul\":10786:10867   */\n      dup5\n      sstore\n        /* \"#utility.yul\":9856:10877   */\n      jump(tag_367)\n        /* \"#utility.yul\":9886:10626   */\n    tag_377:\n        /* \"#utility.yul\":8713:8714   */\n      0x00\n        /* \"#utility.yul\":8706:8720   */\n      dup6\n      dup2\n      mstore\n        /* \"#utility.yul\":8750:8754   */\n      0x20\n        /* \"#utility.yul\":8737:8755   */\n      dup1\n      dup3\n      keccak256\n        /* \"#utility.yul\":8706:8720   */\n      dup7\n      dup4\n      mstore\n        /* \"#utility.yul\":8737:8755   */\n      swap1\n      dup3\n      keccak256\n      not(0x1f)\n        /* \"#utility.yul\":9922:9942   */\n      dup7\n      and\n      swap3\n        /* \"#utility.yul\":10100:10351   */\n    tag_382:\n        /* \"#utility.yul\":10114:10121   */\n      dup4\n        /* \"#utility.yul\":10111:10112   */\n      dup2\n        /* \"#utility.yul\":10108:10122   */\n      lt\n        /* \"#utility.yul\":10100:10351   */\n      iszero\n      tag_384\n      jumpi\n        /* \"#utility.yul\":10196:10217   */\n      dup3\n      dup7\n      add\n        /* \"#utility.yul\":10190:10218   */\n      sload\n        /* \"#utility.yul\":10175:10219   */\n      dup3\n      sstore\n        /* \"#utility.yul\":10246:10247   */\n      0x01\n        /* \"#utility.yul\":10319:10337   */\n      swap6\n      dup7\n      add\n      swap6\n        /* \"#utility.yul\":10274:10289   */\n      swap1\n      swap2\n      add\n      swap1\n        /* \"#utility.yul\":10137:10141   */\n      0x20\n        /* \"#utility.yul\":10130:10142   */\n      add\n        /* \"#utility.yul\":10100:10351   */\n      jump(tag_382)\n    tag_384:\n        /* \"#utility.yul\":10104:10107   */\n      pop\n        /* \"#utility.yul\":10379:10385   */\n      dup6\n        /* \"#utility.yul\":10370:10377   */\n      dup4\n        /* \"#utility.yul\":10367:10386   */\n      lt\n        /* \"#utility.yul\":10364:10567   */\n      iszero\n      tag_385\n      jumpi\n        /* \"#utility.yul\":10440:10461   */\n      dup2\n      dup6\n      add\n        /* \"#utility.yul\":10434:10462   */\n      sload\n      not(0x00)\n        /* \"#utility.yul\":10525:10526   */\n      0x03\n        /* \"#utility.yul\":10521:10535   */\n      dup9\n      swap1\n      shl\n        /* \"#utility.yul\":10537:10540   */\n      0xf8\n        /* \"#utility.yul\":10517:10541   */\n      and\n        /* \"#utility.yul\":10513:10550   */\n      shr\n        /* \"#utility.yul\":10509:10551   */\n      not\n        /* \"#utility.yul\":10494:10552   */\n      and\n        /* \"#utility.yul\":10479:10553   */\n      dup2\n      sstore\n        /* \"#utility.yul\":10364:10567   */\n    tag_385:\n      pop\n      pop\n      pop\n      pop\n      pop\n        /* \"#utility.yul\":10613:10614   */\n      0x01\n        /* \"#utility.yul\":10597:10611   */\n      swap1\n      dup2\n      shl\n        /* \"#utility.yul\":10593:10615   */\n      add\n        /* \"#utility.yul\":10580:10616   */\n      swap1\n      sstore\n      pop\n        /* \"#utility.yul\":9460:10883   */\n      jump\t// out\n        /* \"#utility.yul\":10888:11015   */\n    tag_217:\n        /* \"#utility.yul\":10949:10959   */\n      0x4e487b71\n        /* \"#utility.yul\":10944:10947   */\n      0xe0\n        /* \"#utility.yul\":10940:10960   */\n      shl\n        /* \"#utility.yul\":10937:10938   */\n      0x00\n        /* \"#utility.yul\":10930:10961   */\n      mstore\n        /* \"#utility.yul\":10980:10984   */\n      0x31\n        /* \"#utility.yul\":10977:10978   */\n      0x04\n        /* \"#utility.yul\":10970:10985   */\n      mstore\n        /* \"#utility.yul\":11004:11008   */\n      0x24\n        /* \"#utility.yul\":11001:11002   */\n      0x00\n        /* \"#utility.yul\":10994:11009   */\n      revert\n        /* \"#utility.yul\":11379:12724   */\n    tag_231:\n        /* \"#utility.yul\":11505:11508   */\n      dup2\n        /* \"#utility.yul\":11499:11509   */\n      mload\n        /* \"#utility.yul\":11532:11550   */\n      0xffffffffffffffff\n        /* \"#utility.yul\":11524:11530   */\n      dup2\n        /* \"#utility.yul\":11521:11551   */\n      gt\n        /* \"#utility.yul\":11518:11574   */\n      iszero\n      tag_390\n      jumpi\n        /* \"#utility.yul\":11554:11572   */\n      tag_390\n      tag_298\n      jump\t// in\n    tag_390:\n        /* \"#utility.yul\":11583:11680   */\n      tag_391\n        /* \"#utility.yul\":11673:11679   */\n      dup2\n        /* \"#utility.yul\":11633:11671   */\n      tag_375\n        /* \"#utility.yul\":11665:11669   */\n      dup5\n        /* \"#utility.yul\":11659:11670   */\n      sload\n        /* \"#utility.yul\":11633:11671   */\n      tag_122\n      jump\t// in\n        /* \"#utility.yul\":11583:11680   */\n    tag_391:\n        /* \"#utility.yul\":11735:11739   */\n      0x20\n      dup1\n        /* \"#utility.yul\":11792:11794   */\n      0x1f\n        /* \"#utility.yul\":11781:11795   */\n      dup4\n      gt\n        /* \"#utility.yul\":11809:11810   */\n      0x01\n        /* \"#utility.yul\":11804:12467   */\n      dup2\n      eq\n      tag_394\n      jumpi\n        /* \"#utility.yul\":12511:12512   */\n      0x00\n        /* \"#utility.yul\":12528:12534   */\n      dup5\n        /* \"#utility.yul\":12525:12614   */\n      iszero\n      tag_395\n      jumpi\n      pop\n        /* \"#utility.yul\":12580:12599   */\n      dup6\n      dup4\n      add\n        /* \"#utility.yul\":12574:12600   */\n      mload\n        /* \"#utility.yul\":12525:12614   */\n    tag_395:\n      not(0x00)\n        /* \"#utility.yul\":9417:9418   */\n      0x03\n        /* \"#utility.yul\":9413:9424   */\n      dup7\n      swap1\n      shl\n        /* \"#utility.yul\":9409:9433   */\n      shr\n        /* \"#utility.yul\":9405:9434   */\n      not\n        /* \"#utility.yul\":9395:9435   */\n      and\n        /* \"#utility.yul\":9441:9442   */\n      0x01\n        /* \"#utility.yul\":9437:9448   */\n      dup6\n      swap1\n      shl\n        /* \"#utility.yul\":9392:9449   */\n      or\n        /* \"#utility.yul\":12627:12708   */\n      dup6\n      sstore\n        /* \"#utility.yul\":11774:12718   */\n      jump(tag_393)\n        /* \"#utility.yul\":11804:12467   */\n    tag_394:\n        /* \"#utility.yul\":8713:8714   */\n      0x00\n        /* \"#utility.yul\":8706:8720   */\n      dup6\n      dup2\n      mstore\n        /* \"#utility.yul\":8750:8754   */\n      0x20\n        /* \"#utility.yul\":8737:8755   */\n      dup2\n      keccak256\n      not(0x1f)\n        /* \"#utility.yul\":11840:11860   */\n      dup7\n      and\n      swap2\n        /* \"#utility.yul\":11958:12194   */\n    tag_398:\n        /* \"#utility.yul\":11972:11979   */\n      dup3\n        /* \"#utility.yul\":11969:11970   */\n      dup2\n        /* \"#utility.yul\":11966:11980   */\n      lt\n        /* \"#utility.yul\":11958:12194   */\n      iszero\n      tag_400\n      jumpi\n        /* \"#utility.yul\":12061:12080   */\n      dup9\n      dup7\n      add\n        /* \"#utility.yul\":12055:12081   */\n      mload\n        /* \"#utility.yul\":12040:12082   */\n      dup3\n      sstore\n        /* \"#utility.yul\":12153:12180   */\n      swap5\n      dup5\n      add\n      swap5\n        /* \"#utility.yul\":12121:12122   */\n      0x01\n        /* \"#utility.yul\":12109:12123   */\n      swap1\n      swap2\n      add\n      swap1\n        /* \"#utility.yul\":11988:12007   */\n      dup5\n      add\n        /* \"#utility.yul\":11958:12194   */\n      jump(tag_398)\n    tag_400:\n        /* \"#utility.yul\":11962:11965   */\n      pop\n        /* \"#utility.yul\":12222:12228   */\n      dup6\n        /* \"#utility.yul\":12213:12220   */\n      dup3\n        /* \"#utility.yul\":12210:12229   */\n      lt\n        /* \"#utility.yul\":12207:12408   */\n      iszero\n      tag_401\n      jumpi\n        /* \"#utility.yul\":12283:12302   */\n      dup8\n      dup6\n      add\n        /* \"#utility.yul\":12277:12303   */\n      mload\n      not(0x00)\n        /* \"#utility.yul\":12366:12367   */\n      0x03\n        /* \"#utility.yul\":12362:12376   */\n      dup9\n      swap1\n      shl\n        /* \"#utility.yul\":12378:12381   */\n      0xf8\n        /* \"#utility.yul\":12358:12382   */\n      and\n        /* \"#utility.yul\":12354:12391   */\n      shr\n        /* \"#utility.yul\":12350:12392   */\n      not\n        /* \"#utility.yul\":12335:12393   */\n      and\n        /* \"#utility.yul\":12320:12394   */\n      dup2\n      sstore\n        /* \"#utility.yul\":12207:12408   */\n    tag_401:\n      pop\n      pop\n        /* \"#utility.yul\":12454:12455   */\n      0x01\n        /* \"#utility.yul\":12445:12451   */\n      dup5\n        /* \"#utility.yul\":12442:12443   */\n      0x01\n        /* \"#utility.yul\":12438:12452   */\n      shl\n        /* \"#utility.yul\":12434:12456   */\n      add\n        /* \"#utility.yul\":12428:12432   */\n      dup6\n        /* \"#utility.yul\":12421:12457   */\n      sstore\n        /* \"#utility.yul\":11774:12718   */\n    tag_393:\n      pop\n      pop\n      pop\n      pop\n        /* \"#utility.yul\":11379:12724   */\n      pop\n      pop\n      jump\t// out\n        /* \"#utility.yul\":13765:13900   */\n    tag_261:\n        /* \"#utility.yul\":13804:13807   */\n      0x00\n        /* \"#utility.yul\":13825:13842   */\n      0x01\n      dup3\n      add\n        /* \"#utility.yul\":13822:13865   */\n      tag_407\n      jumpi\n        /* \"#utility.yul\":13845:13863   */\n      tag_407\n      tag_299\n      jump\t// in\n    tag_407:\n      pop\n        /* \"#utility.yul\":13892:13893   */\n      0x01\n        /* \"#utility.yul\":13881:13894   */\n      add\n      swap1\n        /* \"#utility.yul\":13765:13900   */\n      jump\t// out\n\n    auxdata: 0xa26469706673582212201a96b14f53ac88a69e0140dfc98db7ca694a5750e6210036edfd49f0e2c57f4d64736f6c63430008190033\n}\n",
    "bytecode": {
      "linkReferences": {},
      "object": "608060405234801561000f575f80fd5b5060405161183d38038061183d83398101604081905261002e9161012e565b5f6100398582610240565b5060016100468482610240565b5060028290556100598162015180610313565b6100639042610330565b600355505060048054600161ff0160a01b0319166001600160a01b039490941693909317909255506103439050565b634e487b7160e01b5f52604160045260245ffd5b5f82601f8301126100b5575f80fd5b81516001600160401b03808211156100cf576100cf610092565b604051601f8301601f19908116603f011681019082821181831017156100f7576100f7610092565b8160405283815286602085880101111561010f575f80fd5b8360208701602083015e5f602085830101528094505050505092915050565b5f805f805f60a08688031215610142575f80fd5b85516001600160a01b0381168114610158575f80fd5b60208701519095506001600160401b0380821115610174575f80fd5b61018089838a016100a6565b95506040880151915080821115610195575f80fd5b506101a2888289016100a6565b606088015160809098015196999598509695949350505050565b600181811c908216806101d057607f821691505b6020821081036101ee57634e487b7160e01b5f52602260045260245ffd5b50919050565b601f82111561023b57805f5260205f20601f840160051c810160208510156102195750805b601f840160051c820191505b81811015610238575f8155600101610225565b50505b505050565b81516001600160401b0381111561025957610259610092565b61026d8161026784546101bc565b846101f4565b602080601f8311600181146102a0575f84156102895750858301515b5f19600386901b1c1916600185901b1785556102f7565b5f85815260208120601f198616915b828110156102ce578886015182559484019460019091019084016102af565b50858210156102eb57878501515f19600388901b60f8161c191681555b505060018460011b0185555b505050505050565b634e487b7160e01b5f52601160045260245ffd5b808202811582820484141761032a5761032a6102ff565b92915050565b8082018082111561032a5761032a6102ff565b6114ed806103505f395ff3fe608060405260043610610157575f3560e01c80637284e416116100bb578063b85dfb8011610071578063c4ae316811610057578063c4ae31681461038a578063ca1d209d1461039e578063de170570146103b1575f80fd5b8063b85dfb801461033f578063c19d93fb1461036a575f80fd5b80637adba527116100a15780637adba527146102ca5780638da5cb5b146102e95780638ece7b9114610320575f80fd5b80637284e416146102975780637497211b146102ab575f80fd5b80633ccfd60b11610110578063590e1ae3116100f6578063590e1ae3146102415780635c975abb146102555780636f9fb98a14610285575f80fd5b80633ccfd60b14610218578063401938831461022c575f80fd5b8063105505151161014057806310550515146101b357806329dcb0cf146101d4578063389b7533146101f7575f80fd5b8063039af9eb1461015b57806306fdde0314610192575b5f80fd5b348015610166575f80fd5b5061017a610175366004610fb7565b6103d2565b60405161018993929190610ffc565b60405180910390f35b34801561019d575f80fd5b506101a661048d565b6040516101899190611020565b3480156101be575f80fd5b506101c7610518565b604051610189919061104d565b3480156101df575f80fd5b506101e960035481565b604051908152602001610189565b348015610202575f80fd5b50610216610211366004610fb7565b610572565b005b348015610223575f80fd5b50610216610652565b348015610237575f80fd5b506101e960025481565b34801561024c575f80fd5b5061021661079a565b348015610260575f80fd5b5060045461027590600160a01b900460ff1681565b6040519015158152602001610189565b348015610290575f80fd5b50476101e9565b3480156102a2575f80fd5b506101a66108a3565b3480156102b6575f80fd5b506102166102c5366004610fb7565b6108b0565b3480156102d5575f80fd5b506102756102e436600461108e565b6109fb565b3480156102f4575f80fd5b50600454610308906001600160a01b031681565b6040516001600160a01b039091168152602001610189565b34801561032b575f80fd5b5061021661033a3660046110ca565b610a2b565b34801561034a575f80fd5b506101e9610359366004611179565b60066020525f908152604090205481565b348015610375575f80fd5b506004546101c790600160a81b900460ff1681565b348015610395575f80fd5b50610216610b3c565b6102166103ac366004610fb7565b610bc2565b3480156103bc575f80fd5b506103c5610dd7565b6040516101899190611192565b600581815481106103e1575f80fd5b905f5260205f2090600302015f91509050805f01805461040090611213565b80601f016020809104026020016040519081016040528092919081815260200182805461042c90611213565b80156104775780601f1061044e57610100808354040283529160200191610477565b820191905f5260205f20905b81548152906001019060200180831161045a57829003601f168201915b5050505050908060010154908060020154905083565b5f805461049990611213565b80601f01602080910402602001604051908101604052809291908181526020018280546104c590611213565b80156105105780601f106104e757610100808354040283529160200191610510565b820191905f5260205f20905b8154815290600101906020018083116104f357829003601f168201915b505050505081565b5f80600454600160a81b900460ff16600281111561053857610538611039565b148015610546575060035442115b156105615760025447101561055b5750600290565b50600190565b50600454600160a81b900460ff1690565b6004546001600160a01b031633146105c15760405162461bcd60e51b815260206004820152600d60248201526c2737ba103a34329037bbb732b960991b60448201526064015b60405180910390fd5b5f600454600160a81b900460ff1660028111156105e0576105e0611039565b1461062d5760405162461bcd60e51b815260206004820152601760248201527f43616d706169676e206973206e6f74206163746976652e00000000000000000060448201526064016105b8565b61063a816201518061125f565b60035f82825461064a9190611276565b909155505050565b6004546001600160a01b0316331461069c5760405162461bcd60e51b815260206004820152600d60248201526c2737ba103a34329037bbb732b960991b60448201526064016105b8565b6106a4610ed6565b6001600454600160a81b900460ff1660028111156106c4576106c4611039565b146107115760405162461bcd60e51b815260206004820152601860248201527f43616d706169676e206e6f74207375636365737366756c2e000000000000000060448201526064016105b8565b478061075f5760405162461bcd60e51b815260206004820152601660248201527f4e6f2062616c616e636520746f2077697468647261770000000000000000000060448201526064016105b8565b6004546040516001600160a01b039091169082156108fc029083905f818181858888f19350505050158015610796573d5f803e3d5ffd5b5050565b6107a2610ed6565b6002600454600160a81b900460ff1660028111156107c2576107c2611039565b1461080f5760405162461bcd60e51b815260206004820152601660248201527f526566756e6473206e6f7420617661696c61626c652e0000000000000000000060448201526064016105b8565b335f908152600660205260409020548061086b5760405162461bcd60e51b815260206004820152601960248201527f4e6f20636f6e747269627574696f6e20746f20726566756e640000000000000060448201526064016105b8565b335f818152600660205260408082208290555183156108fc0291849190818181858888f19350505050158015610796573d5f803e3d5ffd5b6001805461049990611213565b6004546001600160a01b031633146108fa5760405162461bcd60e51b815260206004820152600d60248201526c2737ba103a34329037bbb732b960991b60448201526064016105b8565b600554811061094b5760405162461bcd60e51b815260206004820152601460248201527f5469657220646f6573206e6f742065786973742e00000000000000000000000060448201526064016105b8565b6005805461095b90600190611289565b8154811061096b5761096b61129c565b905f5260205f2090600302016005828154811061098a5761098a61129c565b5f9182526020909120600390910201806109a483826112fc565b506001828101549082015560029182015491015560058054806109c9576109c96113d1565b5f828152602081205f19909201916003830201906109e78282610f6d565b505f60018201819055600290910155905550565b6001600160a01b0382165f90815260066020908152604080832084845260010190915290205460ff165b92915050565b6004546001600160a01b03163314610a755760405162461bcd60e51b815260206004820152600d60248201526c2737ba103a34329037bbb732b960991b60448201526064016105b8565b5f8111610ac45760405162461bcd60e51b815260206004820152601e60248201527f416d6f756e74206d7573742062652067726561746572207468616e20302e000060448201526064016105b8565b60408051606081018252838152602081018390525f918101829052600580546001810182559252805190916003027f036b6384b5eca791c62761152d0c79bb0604c104a5fb6f4eb0703f3154bb3db001908190610b2190826113e5565b50602082015181600101556040820151816002015550505050565b6004546001600160a01b03163314610b865760405162461bcd60e51b815260206004820152600d60248201526c2737ba103a34329037bbb732b960991b60448201526064016105b8565b600480547fffffffffffffffffffffff00ffffffffffffffffffffffffffffffffffffffff8116600160a01b9182900460ff1615909102179055565b5f600454600160a81b900460ff166002811115610be157610be1611039565b14610c2e5760405162461bcd60e51b815260206004820152601760248201527f43616d706169676e206973206e6f74206163746976652e00000000000000000060448201526064016105b8565b600454600160a01b900460ff1615610c885760405162461bcd60e51b815260206004820152601360248201527f436f6e7472616374206973207061757365642e0000000000000000000000000060448201526064016105b8565b6005548110610cd95760405162461bcd60e51b815260206004820152600d60248201527f496e76616c696420746965722e0000000000000000000000000000000000000060448201526064016105b8565b60058181548110610cec57610cec61129c565b905f5260205f209060030201600101543414610d4a5760405162461bcd60e51b815260206004820152601160248201527f496e636f727265637420616d6f756e742e00000000000000000000000000000060448201526064016105b8565b60058181548110610d5d57610d5d61129c565b5f91825260208220600260039092020101805491610d7a8361149f565b9091555050335f9081526006602052604081208054349290610d9d908490611276565b9091555050335f9081526006602090815260408083208484526001908101909252909120805460ff19169091179055610dd4610ed6565b50565b60606005805480602002602001604051908101604052809291908181526020015f905b82821015610ecd578382905f5260205f2090600302016040518060600160405290815f82018054610e2a90611213565b80601f0160208091040260200160405190810160405280929190818152602001828054610e5690611213565b8015610ea15780601f10610e7857610100808354040283529160200191610ea1565b820191905f5260205f20905b815481529060010190602001808311610e8457829003601f168201915b505050505081526020016001820154815260200160028201548152505081526020019060010190610dfa565b50505050905090565b5f600454600160a81b900460ff166002811115610ef557610ef5611039565b03610f6b576003544210610f5b57600254471015610f14576002610f17565b60015b600480547fffffffffffffffffffff00ffffffffffffffffffffffffffffffffffffffffff16600160a81b836002811115610f5457610f54611039565b0217905550565b600254471015610f14575f610f17565b565b508054610f7990611213565b5f825580601f10610f88575050565b601f0160209004905f5260205f2090810190610dd491905b80821115610fb3575f8155600101610fa0565b5090565b5f60208284031215610fc7575f80fd5b5035919050565b5f81518084528060208401602086015e5f602082860101526020601f19601f83011685010191505092915050565b606081525f61100e6060830186610fce565b60208301949094525060400152919050565b602081525f6110326020830184610fce565b9392505050565b634e487b7160e01b5f52602160045260245ffd5b602081016003831061106d57634e487b7160e01b5f52602160045260245ffd5b91905290565b80356001600160a01b0381168114611089575f80fd5b919050565b5f806040838503121561109f575f80fd5b6110a883611073565b946020939093013593505050565b634e487b7160e01b5f52604160045260245ffd5b5f80604083850312156110db575f80fd5b823567ffffffffffffffff808211156110f2575f80fd5b818501915085601f830112611105575f80fd5b813581811115611117576111176110b6565b604051601f8201601f19908116603f0116810190838211818310171561113f5761113f6110b6565b81604052828152886020848701011115611157575f80fd5b826020860160208301375f602093820184015298969091013596505050505050565b5f60208284031215611189575f80fd5b61103282611073565b5f60208083018184528085518083526040925060408601915060408160051b8701018488015f5b8381101561120557603f198984030185528151606081518186526111df82870182610fce565b838b0151878c0152928901519589019590955250948701949250908601906001016111b9565b509098975050505050505050565b600181811c9082168061122757607f821691505b60208210810361124557634e487b7160e01b5f52602260045260245ffd5b50919050565b634e487b7160e01b5f52601160045260245ffd5b8082028115828204841417610a2557610a2561124b565b80820180821115610a2557610a2561124b565b81810381811115610a2557610a2561124b565b634e487b7160e01b5f52603260045260245ffd5b601f8211156112f757805f5260205f20601f840160051c810160208510156112d55750805b601f840160051c820191505b818110156112f4575f81556001016112e1565b50505b505050565b818103611307575050565b6113118254611213565b67ffffffffffffffff811115611329576113296110b6565b61133d816113378454611213565b846112b0565b5f601f82116001811461136e575f83156113575750848201545b5f19600385901b1c1916600184901b1784556112f4565b5f8581526020808220868352908220601f198616925b838110156113a45782860154825560019586019590910190602001611384565b50858310156113c157818501545f19600388901b60f8161c191681555b5050505050600190811b01905550565b634e487b7160e01b5f52603160045260245ffd5b815167ffffffffffffffff8111156113ff576113ff6110b6565b61140d816113378454611213565b602080601f831160018114611440575f84156114295750858301515b5f19600386901b1c1916600185901b178555611497565b5f85815260208120601f198616915b8281101561146e5788860151825594840194600190910190840161144f565b508582101561148b57878501515f19600388901b60f8161c191681555b505060018460011b0185555b505050505050565b5f600182016114b0576114b061124b565b506001019056fea26469706673582212201a96b14f53ac88a69e0140dfc98db7ca694a5750e6210036edfd49f0e2c57f4d64736f6c63430008190033",
      "opcodes": "PUSH1 0x80 PUSH1 0x40 MSTORE CALLVALUE DUP1 ISZERO PUSH2 0xF JUMPI PUSH0 DUP1 REVERT JUMPDEST POP PUSH1 0x40 MLOAD PUSH2 0x183D CODESIZE SUB DUP1 PUSH2 0x183D DUP4 CODECOPY DUP2 ADD PUSH1 0x40 DUP2 SWAP1 MSTORE PUSH2 0x2E SWAP2 PUSH2 0x12E JUMP JUMPDEST PUSH0 PUSH2 0x39 DUP6 DUP3 PUSH2 0x240 JUMP JUMPDEST POP PUSH1 0x1 PUSH2 0x46 DUP5 DUP3 PUSH2 0x240 JUMP JUMPDEST POP PUSH1 0x2 DUP3 SWAP1 SSTORE PUSH2 0x59 DUP2 PUSH3 0x15180 PUSH2 0x313 JUMP JUMPDEST PUSH2 0x63 SWAP1 TIMESTAMP PUSH2 0x330 JUMP JUMPDEST PUSH1 0x3 SSTORE POP POP PUSH1 0x4 DUP1 SLOAD PUSH1 0x1 PUSH2 0xFF01 PUSH1 0xA0 SHL SUB NOT AND PUSH1 0x1 PUSH1 0x1 PUSH1 0xA0 SHL SUB SWAP5 SWAP1 SWAP5 AND SWAP4 SWAP1 SWAP4 OR SWAP1 SWAP3 SSTORE POP PUSH2 0x343 SWAP1 POP JUMP JUMPDEST PUSH4 0x4E487B71 PUSH1 0xE0 SHL PUSH0 MSTORE PUSH1 0x41 PUSH1 0x4 MSTORE PUSH1 0x24 PUSH0 REVERT JUMPDEST PUSH0 DUP3 PUSH1 0x1F DUP4 ADD SLT PUSH2 0xB5 JUMPI PUSH0 DUP1 REVERT JUMPDEST DUP2 MLOAD PUSH1 0x1 PUSH1 0x1 PUSH1 0x40 SHL SUB DUP1 DUP3 GT ISZERO PUSH2 0xCF JUMPI PUSH2 0xCF PUSH2 0x92 JUMP JUMPDEST PUSH1 0x40 MLOAD PUSH1 0x1F DUP4 ADD PUSH1 0x1F NOT SWAP1 DUP2 AND PUSH1 0x3F ADD AND DUP2 ADD SWAP1 DUP3 DUP3 GT DUP2 DUP4 LT OR ISZERO PUSH2 0xF7 JUMPI PUSH2 0xF7 PUSH2 0x92 JUMP JUMPDEST DUP2 PUSH1 0x40 MSTORE DUP4 DUP2 MSTORE DUP7 PUSH1 0x20 DUP6 DUP9 ADD ADD GT ISZERO PUSH2 0x10F JUMPI PUSH0 DUP1 REVERT JUMPDEST DUP4 PUSH1 0x20 DUP8 ADD PUSH1 0x20 DUP4 ADD MCOPY PUSH0 PUSH1 0x20 DUP6 DUP4 ADD ADD MSTORE DUP1 SWAP5 POP POP POP POP POP SWAP3 SWAP2 POP POP JUMP JUMPDEST PUSH0 DUP1 PUSH0 DUP1 PUSH0 PUSH1 0xA0 DUP7 DUP9 SUB SLT ISZERO PUSH2 0x142 JUMPI PUSH0 DUP1 REVERT JUMPDEST DUP6 MLOAD PUSH1 0x1 PUSH1 0x1 PUSH1 0xA0 SHL SUB DUP2 AND DUP2 EQ PUSH2 0x158 JUMPI PUSH0 DUP1 REVERT JUMPDEST PUSH1 0x20 DUP8 ADD MLOAD SWAP1 SWAP6 POP PUSH1 0x1 PUSH1 0x1 PUSH1 0x40 SHL SUB DUP1 DUP3 GT ISZERO PUSH2 0x174 JUMPI PUSH0 DUP1 REVERT JUMPDEST PUSH2 0x180 DUP10 DUP4 DUP11 ADD PUSH2 0xA6 JUMP JUMPDEST SWAP6 POP PUSH1 0x40 DUP9 ADD MLOAD SWAP2 POP DUP1 DUP3 GT ISZERO PUSH2 0x195 JUMPI PUSH0 DUP1 REVERT JUMPDEST POP PUSH2 0x1A2 DUP9 DUP3 DUP10 ADD PUSH2 0xA6 JUMP JUMPDEST PUSH1 0x60 DUP9 ADD MLOAD PUSH1 0x80 SWAP1 SWAP9 ADD MLOAD SWAP7 SWAP10 SWAP6 SWAP9 POP SWAP7 SWAP6 SWAP5 SWAP4 POP POP POP POP JUMP JUMPDEST PUSH1 0x1 DUP2 DUP2 SHR SWAP1 DUP3 AND DUP1 PUSH2 0x1D0 JUMPI PUSH1 0x7F DUP3 AND SWAP2 POP JUMPDEST PUSH1 0x20 DUP3 LT DUP2 SUB PUSH2 0x1EE JUMPI PUSH4 0x4E487B71 PUSH1 0xE0 SHL PUSH0 MSTORE PUSH1 0x22 PUSH1 0x4 MSTORE PUSH1 0x24 PUSH0 REVERT JUMPDEST POP SWAP2 SWAP1 POP JUMP JUMPDEST PUSH1 0x1F DUP3 GT ISZERO PUSH2 0x23B JUMPI DUP1 PUSH0 MSTORE PUSH1 0x20 PUSH0 KECCAK256 PUSH1 0x1F DUP5 ADD PUSH1 0x5 SHR DUP2 ADD PUSH1 0x20 DUP6 LT ISZERO PUSH2 0x219 JUMPI POP DUP1 JUMPDEST PUSH1 0x1F DUP5 ADD PUSH1 0x5 SHR DUP3 ADD SWAP2 POP JUMPDEST DUP2 DUP2 LT ISZERO PUSH2 0x238 JUMPI PUSH0 DUP2 SSTORE PUSH1 0x1 ADD PUSH2 0x225 JUMP JUMPDEST POP POP JUMPDEST POP POP POP JUMP JUMPDEST DUP2 MLOAD PUSH1 0x1 PUSH1 0x1 PUSH1 0x40 SHL SUB DUP2 GT ISZERO PUSH2 0x259 JUMPI PUSH2 0x259 PUSH2 0x92 JUMP JUMPDEST PUSH2 0x26D DUP2 PUSH2 0x267 DUP5 SLOAD PUSH2 0x1BC JUMP JUMPDEST DUP5 PUSH2 0x1F4 JUMP JUMPDEST PUSH1 0x20 DUP1 PUSH1 0x1F DUP4 GT PUSH1 0x1 DUP2 EQ PUSH2 0x2A0 JUMPI PUSH0 DUP5 ISZERO PUSH2 0x289 JUMPI POP DUP6 DUP4 ADD MLOAD JUMPDEST PUSH0 NOT PUSH1 0x3 DUP7 SWAP1 SHL SHR NOT AND PUSH1 0x1 DUP6 SWAP1 SHL OR DUP6 SSTORE PUSH2 0x2F7 JUMP JUMPDEST PUSH0 DUP6 DUP2 MSTORE PUSH1 0x20 DUP2 KECCAK256 PUSH1 0x1F NOT DUP7 AND SWAP2 JUMPDEST DUP3 DUP2 LT ISZERO PUSH2 0x2CE JUMPI DUP9 DUP7 ADD MLOAD DUP3 SSTORE SWAP5 DUP5 ADD SWAP5 PUSH1 0x1 SWAP1 SWAP2 ADD SWAP1 DUP5 ADD PUSH2 0x2AF JUMP JUMPDEST POP DUP6 DUP3 LT ISZERO PUSH2 0x2EB JUMPI DUP8 DUP6 ADD MLOAD PUSH0 NOT PUSH1 0x3 DUP9 SWAP1 SHL PUSH1 0xF8 AND SHR NOT AND DUP2 SSTORE JUMPDEST POP POP PUSH1 0x1 DUP5 PUSH1 0x1 SHL ADD DUP6 SSTORE JUMPDEST POP POP POP POP POP POP JUMP JUMPDEST PUSH4 0x4E487B71 PUSH1 0xE0 SHL PUSH0 MSTORE PUSH1 0x11 PUSH1 0x4 MSTORE PUSH1 0x24 PUSH0 REVERT JUMPDEST DUP1 DUP3 MUL DUP2 ISZERO DUP3 DUP3 DIV DUP5 EQ OR PUSH2 0x32A JUMPI PUSH2 0x32A PUSH2 0x2FF JUMP JUMPDEST SWAP3 SWAP2 POP POP JUMP JUMPDEST DUP1 DUP3 ADD DUP1 DUP3 GT ISZERO PUSH2 0x32A JUMPI PUSH2 0x32A PUSH2 0x2FF JUMP JUMPDEST PUSH2 0x14ED DUP1 PUSH2 0x350 PUSH0 CODECOPY PUSH0 RETURN INVALID PUSH1 0x80 PUSH1 0x40 MSTORE PUSH1 0x4 CALLDATASIZE LT PUSH2 0x157 JUMPI PUSH0 CALLDATALOAD PUSH1 0xE0 SHR DUP1 PUSH4 0x7284E416 GT PUSH2 0xBB JUMPI DUP1 PUSH4 0xB85DFB80 GT PUSH2 0x71 JUMPI DUP1 PUSH4 0xC4AE3168 GT PUSH2 0x57 JUMPI DUP1 PUSH4 0xC4AE3168 EQ PUSH2 0x38A JUMPI DUP1 PUSH4 0xCA1D209D EQ PUSH2 0x39E JUMPI DUP1 PUSH4 0xDE170570 EQ PUSH2 0x3B1 JUMPI PUSH0 DUP1 REVERT JUMPDEST DUP1 PUSH4 0xB85DFB80 EQ PUSH2 0x33F JUMPI DUP1 PUSH4 0xC19D93FB EQ PUSH2 0x36A JUMPI PUSH0 DUP1 REVERT JUMPDEST DUP1 PUSH4 0x7ADBA527 GT PUSH2 0xA1 JUMPI DUP1 PUSH4 0x7ADBA527 EQ PUSH2 0x2CA JUMPI DUP1 PUSH4 0x8DA5CB5B EQ PUSH2 0x2E9 JUMPI DUP1 PUSH4 0x8ECE7B91 EQ PUSH2 0x320 JUMPI PUSH0 DUP1 REVERT JUMPDEST DUP1 PUSH4 0x7284E416 EQ PUSH2 0x297 JUMPI DUP1 PUSH4 0x7497211B EQ PUSH2 0x2AB JUMPI PUSH0 DUP1 REVERT JUMPDEST DUP1 PUSH4 0x3CCFD60B GT PUSH2 0x110 JUMPI DUP1 PUSH4 0x590E1AE3 GT PUSH2 0xF6 JUMPI DUP1 PUSH4 0x590E1AE3 EQ PUSH2 0x241 JUMPI DUP1 PUSH4 0x5C975ABB EQ PUSH2 0x255 JUMPI DUP1 PUSH4 0x6F9FB98A EQ PUSH2 0x285 JUMPI PUSH0 DUP1 REVERT JUMPDEST DUP1 PUSH4 0x3CCFD60B EQ PUSH2 0x218 JUMPI DUP1 PUSH4 0x40193883 EQ PUSH2 0x22C JUMPI PUSH0 DUP1 REVERT JUMPDEST DUP1 PUSH4 0x10550515 GT PUSH2 0x140 JUMPI DUP1 PUSH4 0x10550515 EQ PUSH2 0x1B3 JUMPI DUP1 PUSH4 0x29DCB0CF EQ PUSH2 0x1D4 JUMPI DUP1 PUSH4 0x389B7533 EQ PUSH2 0x1F7 JUMPI PUSH0 DUP1 REVERT JUMPDEST DUP1 PUSH4 0x39AF9EB EQ PUSH2 0x15B JUMPI DUP1 PUSH4 0x6FDDE03 EQ PUSH2 0x192 JUMPI JUMPDEST PUSH0 DUP1 REVERT JUMPDEST CALLVALUE DUP1 ISZERO PUSH2 0x166 JUMPI PUSH0 DUP1 REVERT JUMPDEST POP PUSH2 0x17A PUSH2 0x175 CALLDATASIZE PUSH1 0x4 PUSH2 0xFB7 JUMP JUMPDEST PUSH2 0x3D2 JUMP JUMPDEST PUSH1 0x40 MLOAD PUSH2 0x189 SWAP4 SWAP3 SWAP2 SWAP1 PUSH2 0xFFC JUMP JUMPDEST PUSH1 0x40 MLOAD DUP1 SWAP2 SUB SWAP1 RETURN JUMPDEST CALLVALUE DUP1 ISZERO PUSH2 0x19D JUMPI PUSH0 DUP1 REVERT JUMPDEST POP PUSH2 0x1A6 PUSH2 0x48D JUMP JUMPDEST PUSH1 0x40 MLOAD PUSH2 0x189 SWAP2 SWAP1 PUSH2 0x1020 JUMP JUMPDEST CALLVALUE DUP1 ISZERO PUSH2 0x1BE JUMPI PUSH0 DUP1 REVERT JUMPDEST POP PUSH2 0x1C7 PUSH2 0x518 JUMP JUMPDEST PUSH1 0x40 MLOAD PUSH2 0x189 SWAP2 SWAP1 PUSH2 0x104D JUMP JUMPDEST CALLVALUE DUP1 ISZERO PUSH2 0x1DF JUMPI PUSH0 DUP1 REVERT JUMPDEST POP PUSH2 0x1E9 PUSH1 0x3 SLOAD DUP2 JUMP JUMPDEST PUSH1 0x40 MLOAD SWAP1 DUP2 MSTORE PUSH1 0x20 ADD PUSH2 0x189 JUMP JUMPDEST CALLVALUE DUP1 ISZERO PUSH2 0x202 JUMPI PUSH0 DUP1 REVERT JUMPDEST POP PUSH2 0x216 PUSH2 0x211 CALLDATASIZE PUSH1 0x4 PUSH2 0xFB7 JUMP JUMPDEST PUSH2 0x572 JUMP JUMPDEST STOP JUMPDEST CALLVALUE DUP1 ISZERO PUSH2 0x223 JUMPI PUSH0 DUP1 REVERT JUMPDEST POP PUSH2 0x216 PUSH2 0x652 JUMP JUMPDEST CALLVALUE DUP1 ISZERO PUSH2 0x237 JUMPI PUSH0 DUP1 REVERT JUMPDEST POP PUSH2 0x1E9 PUSH1 0x2 SLOAD DUP2 JUMP JUMPDEST CALLVALUE DUP1 ISZERO PUSH2 0x24C JUMPI PUSH0 DUP1 REVERT JUMPDEST POP PUSH2 0x216 PUSH2 0x79A JUMP JUMPDEST CALLVALUE DUP1 ISZERO PUSH2 0x260 JUMPI PUSH0 DUP1 REVERT JUMPDEST POP PUSH1 0x4 SLOAD PUSH2 0x275 SWAP1 PUSH1 0x1 PUSH1 0xA0 SHL SWAP1 DIV PUSH1 0xFF AND DUP2 JUMP JUMPDEST PUSH1 0x40 MLOAD SWAP1 ISZERO ISZERO DUP2 MSTORE PUSH1 0x20 ADD PUSH2 0x189 JUMP JUMPDEST CALLVALUE DUP1 ISZERO PUSH2 0x290 JUMPI PUSH0 DUP1 REVERT JUMPDEST POP SELFBALANCE PUSH2 0x1E9 JUMP JUMPDEST CALLVALUE DUP1 ISZERO PUSH2 0x2A2 JUMPI PUSH0 DUP1 REVERT JUMPDEST POP PUSH2 0x1A6 PUSH2 0x8A3 JUMP JUMPDEST CALLVALUE DUP1 ISZERO PUSH2 0x2B6 JUMPI PUSH0 DUP1 REVERT JUMPDEST POP PUSH2 0x216 PUSH2 0x2C5 CALLDATASIZE PUSH1 0x4 PUSH2 0xFB7 JUMP JUMPDEST PUSH2 0x8B0 JUMP JUMPDEST CALLVALUE DUP1 ISZERO PUSH2 0x2D5 JUMPI PUSH0 DUP1 REVERT JUMPDEST POP PUSH2 0x275 PUSH2 0x2E4 CALLDATASIZE PUSH1 0x4 PUSH2 0x108E JUMP JUMPDEST PUSH2 0x9FB JUMP JUMPDEST CALLVALUE DUP1 ISZERO PUSH2 0x2F4 JUMPI PUSH0 DUP1 REVERT JUMPDEST POP PUSH1 0x4 SLOAD PUSH2 0x308 SWAP1 PUSH1 0x1 PUSH1 0x1 PUSH1 0xA0 SHL SUB AND DUP2 JUMP JUMPDEST PUSH1 0x40 MLOAD PUSH1 0x1 PUSH1 0x1 PUSH1 0xA0 SHL SUB SWAP1 SWAP2 AND DUP2 MSTORE PUSH1 0x20 ADD PUSH2 0x189 JUMP JUMPDEST CALLVALUE DUP1 ISZERO PUSH2 0x32B JUMPI PUSH0 DUP1 REVERT JUMPDEST POP PUSH2 0x216 PUSH2 0x33A CALLDATASIZE PUSH1 0x4 PUSH2 0x10CA JUMP JUMPDEST PUSH2 0xA2B JUMP JUMPDEST CALLVALUE DUP1 ISZERO PUSH2 0x34A JUMPI PUSH0 DUP1 REVERT JUMPDEST POP PUSH2 0x1E9 PUSH2 0x359 CALLDATASIZE PUSH1 0x4 PUSH2 0x1179 JUMP JUMPDEST PUSH1 0x6 PUSH1 0x20 MSTORE PUSH0 SWAP1 DUP2 MSTORE PUSH1 0x40 SWAP1 KECCAK256 SLOAD DUP2 JUMP JUMPDEST CALLVALUE DUP1 ISZERO PUSH2 0x375 JUMPI PUSH0 DUP1 REVERT JUMPDEST POP PUSH1 0x4 SLOAD PUSH2 0x1C7 SWAP1 PUSH1 0x1 PUSH1 0xA8 SHL SWAP1 DIV PUSH1 0xFF AND DUP2 JUMP JUMPDEST CALLVALUE DUP1 ISZERO PUSH2 0x395 JUMPI PUSH0 DUP1 REVERT JUMPDEST POP PUSH2 0x216 PUSH2 0xB3C JUMP JUMPDEST PUSH2 0x216 PUSH2 0x3AC CALLDATASIZE PUSH1 0x4 PUSH2 0xFB7 JUMP JUMPDEST PUSH2 0xBC2 JUMP JUMPDEST CALLVALUE DUP1 ISZERO PUSH2 0x3BC JUMPI PUSH0 DUP1 REVERT JUMPDEST POP PUSH2 0x3C5 PUSH2 0xDD7 JUMP JUMPDEST PUSH1 0x40 MLOAD PUSH2 0x189 SWAP2 SWAP1 PUSH2 0x1192 JUMP JUMPDEST PUSH1 0x5 DUP2 DUP2 SLOAD DUP2 LT PUSH2 0x3E1 JUMPI PUSH0 DUP1 REVERT JUMPDEST SWAP1 PUSH0 MSTORE PUSH1 0x20 PUSH0 KECCAK256 SWAP1 PUSH1 0x3 MUL ADD PUSH0 SWAP2 POP SWAP1 POP DUP1 PUSH0 ADD DUP1 SLOAD PUSH2 0x400 SWAP1 PUSH2 0x1213 JUMP JUMPDEST DUP1 PUSH1 0x1F ADD PUSH1 0x20 DUP1 SWAP2 DIV MUL PUSH1 0x20 ADD PUSH1 0x40 MLOAD SWAP1 DUP2 ADD PUSH1 0x40 MSTORE DUP1 SWAP3 SWAP2 SWAP1 DUP2 DUP2 MSTORE PUSH1 0x20 ADD DUP3 DUP1 SLOAD PUSH2 0x42C SWAP1 PUSH2 0x1213 JUMP JUMPDEST DUP1 ISZERO PUSH2 0x477 JUMPI DUP1 PUSH1 0x1F LT PUSH2 0x44E JUMPI PUSH2 0x100 DUP1 DUP4 SLOAD DIV MUL DUP4 MSTORE SWAP2 PUSH1 0x20 ADD SWAP2 PUSH2 0x477 JUMP JUMPDEST DUP3 ADD SWAP2 SWAP1 PUSH0 MSTORE PUSH1 0x20 PUSH0 KECCAK256 SWAP1 JUMPDEST DUP2 SLOAD DUP2 MSTORE SWAP1 PUSH1 0x1 ADD SWAP1 PUSH1 0x20 ADD DUP1 DUP4 GT PUSH2 0x45A JUMPI DUP3 SWAP1 SUB PUSH1 0x1F AND DUP3 ADD SWAP2 JUMPDEST POP POP POP POP POP SWAP1 DUP1 PUSH1 0x1 ADD SLOAD SWAP1 DUP1 PUSH1 0x2 ADD SLOAD SWAP1 POP DUP4 JUMP JUMPDEST PUSH0 DUP1 SLOAD PUSH2 0x499 SWAP1 PUSH2 0x1213 JUMP JUMPDEST DUP1 PUSH1 0x1F ADD PUSH1 0x20 DUP1 SWAP2 DIV MUL PUSH1 0x20 ADD PUSH1 0x40 MLOAD SWAP1 DUP2 ADD PUSH1 0x40 MSTORE DUP1 SWAP3 SWAP2 SWAP1 DUP2 DUP2 MSTORE PUSH1 0x20 ADD DUP3 DUP1 SLOAD PUSH2 0x4C5 SWAP1 PUSH2 0x1213 JUMP JUMPDEST DUP1 ISZERO PUSH2 0x510 JUMPI DUP1 PUSH1 0x1F LT PUSH2 0x4E7 JUMPI PUSH2 0x100 DUP1 DUP4 SLOAD DIV MUL DUP4 MSTORE SWAP2 PUSH1 0x20 ADD SWAP2 PUSH2 0x510 JUMP JUMPDEST DUP3 ADD SWAP2 SWAP1 PUSH0 MSTORE PUSH1 0x20 PUSH0 KECCAK256 SWAP1 JUMPDEST DUP2 SLOAD DUP2 MSTORE SWAP1 PUSH1 0x1 ADD SWAP1 PUSH1 0x20 ADD DUP1 DUP4 GT PUSH2 0x4F3 JUMPI DUP3 SWAP1 SUB PUSH1 0x1F AND DUP3 ADD SWAP2 JUMPDEST POP POP POP POP POP DUP2 JUMP JUMPDEST PUSH0 DUP1 PUSH1 0x4 SLOAD PUSH1 0x1 PUSH1 0xA8 SHL SWAP1 DIV PUSH1 0xFF AND PUSH1 0x2 DUP2 GT ISZERO PUSH2 0x538 JUMPI PUSH2 0x538 PUSH2 0x1039 JUMP JUMPDEST EQ DUP1 ISZERO PUSH2 0x546 JUMPI POP PUSH1 0x3 SLOAD TIMESTAMP GT JUMPDEST ISZERO PUSH2 0x561 JUMPI PUSH1 0x2 SLOAD SELFBALANCE LT ISZERO PUSH2 0x55B JUMPI POP PUSH1 0x2 SWAP1 JUMP JUMPDEST POP PUSH1 0x1 SWAP1 JUMP JUMPDEST POP PUSH1 0x4 SLOAD PUSH1 0x1 PUSH1 0xA8 SHL SWAP1 DIV PUSH1 0xFF AND SWAP1 JUMP JUMPDEST PUSH1 0x4 SLOAD PUSH1 0x1 PUSH1 0x1 PUSH1 0xA0 SHL SUB AND CALLER EQ PUSH2 0x5C1 JUMPI PUSH1 0x40 MLOAD PUSH3 0x461BCD PUSH1 0xE5 SHL DUP2 MSTORE PUSH1 0x20 PUSH1 0x4 DUP3 ADD MSTORE PUSH1 0xD PUSH1 0x24 DUP3 ADD MSTORE PUSH13 0x2737BA103A34329037BBB732B9 PUSH1 0x99 SHL PUSH1 0x44 DUP3 ADD MSTORE PUSH1 0x64 ADD JUMPDEST PUSH1 0x40 MLOAD DUP1 SWAP2 SUB SWAP1 REVERT JUMPDEST PUSH0 PUSH1 0x4 SLOAD PUSH1 0x1 PUSH1 0xA8 SHL SWAP1 DIV PUSH1 0xFF AND PUSH1 0x2 DUP2 GT ISZERO PUSH2 0x5E0 JUMPI PUSH2 0x5E0 PUSH2 0x1039 JUMP JUMPDEST EQ PUSH2 0x62D JUMPI PUSH1 0x40 MLOAD PUSH3 0x461BCD PUSH1 0xE5 SHL DUP2 MSTORE PUSH1 0x20 PUSH1 0x4 DUP3 ADD MSTORE PUSH1 0x17 PUSH1 0x24 DUP3 ADD MSTORE PUSH32 0x43616D706169676E206973206E6F74206163746976652E000000000000000000 PUSH1 0x44 DUP3 ADD MSTORE PUSH1 0x64 ADD PUSH2 0x5B8 JUMP JUMPDEST PUSH2 0x63A DUP2 PUSH3 0x15180 PUSH2 0x125F JUMP JUMPDEST PUSH1 0x3 PUSH0 DUP3 DUP3 SLOAD PUSH2 0x64A SWAP2 SWAP1 PUSH2 0x1276 JUMP JUMPDEST SWAP1 SWAP2 SSTORE POP POP POP JUMP JUMPDEST PUSH1 0x4 SLOAD PUSH1 0x1 PUSH1 0x1 PUSH1 0xA0 SHL SUB AND CALLER EQ PUSH2 0x69C JUMPI PUSH1 0x40 MLOAD PUSH3 0x461BCD PUSH1 0xE5 SHL DUP2 MSTORE PUSH1 0x20 PUSH1 0x4 DUP3 ADD MSTORE PUSH1 0xD PUSH1 0x24 DUP3 ADD MSTORE PUSH13 0x2737BA103A34329037BBB732B9 PUSH1 0x99 SHL PUSH1 0x44 DUP3 ADD MSTORE PUSH1 0x64 ADD PUSH2 0x5B8 JUMP JUMPDEST PUSH2 0x6A4 PUSH2 0xED6 JUMP JUMPDEST PUSH1 0x1 PUSH1 0x4 SLOAD PUSH1 0x1 PUSH1 0xA8 SHL SWAP1 DIV PUSH1 0xFF AND PUSH1 0x2 DUP2 GT ISZERO PUSH2 0x6C4 JUMPI PUSH2 0x6C4 PUSH2 0x1039 JUMP JUMPDEST EQ PUSH2 0x711 JUMPI PUSH1 0x40 MLOAD PUSH3 0x461BCD PUSH1 0xE5 SHL DUP2 MSTORE PUSH1 0x20 PUSH1 0x4 DUP3 ADD MSTORE PUSH1 0x18 PUSH1 0x24 DUP3 ADD MSTORE PUSH32 0x43616D706169676E206E6F74207375636365737366756C2E0000000000000000 PUSH1 0x44 DUP3 ADD MSTORE PUSH1 0x64 ADD PUSH2 0x5B8 JUMP JUMPDEST SELFBALANCE DUP1 PUSH2 0x75F JUMPI PUSH1 0x40 MLOAD PUSH3 0x461BCD PUSH1 0xE5 SHL DUP2 MSTORE PUSH1 0x20 PUSH1 0x4 DUP3 ADD MSTORE PUSH1 0x16 PUSH1 0x24 DUP3 ADD MSTORE PUSH32 0x4E6F2062616C616E636520746F20776974686472617700000000000000000000 PUSH1 0x44 DUP3 ADD MSTORE PUSH1 0x64 ADD PUSH2 0x5B8 JUMP JUMPDEST PUSH1 0x4 SLOAD PUSH1 0x40 MLOAD PUSH1 0x1 PUSH1 0x1 PUSH1 0xA0 SHL SUB SWAP1 SWAP2 AND SWAP1 DUP3 ISZERO PUSH2 0x8FC MUL SWAP1 DUP4 SWAP1 PUSH0 DUP2 DUP2 DUP2 DUP6 DUP9 DUP9 CALL SWAP4 POP POP POP POP ISZERO DUP1 ISZERO PUSH2 0x796 JUMPI RETURNDATASIZE PUSH0 DUP1 RETURNDATACOPY RETURNDATASIZE PUSH0 REVERT JUMPDEST POP POP JUMP JUMPDEST PUSH2 0x7A2 PUSH2 0xED6 JUMP JUMPDEST PUSH1 0x2 PUSH1 0x4 SLOAD PUSH1 0x1 PUSH1 0xA8 SHL SWAP1 DIV PUSH1 0xFF AND PUSH1 0x2 DUP2 GT ISZERO PUSH2 0x7C2 JUMPI PUSH2 0x7C2 PUSH2 0x1039 JUMP JUMPDEST EQ PUSH2 0x80F JUMPI PUSH1 0x40 MLOAD PUSH3 0x461BCD PUSH1 0xE5 SHL DUP2 MSTORE PUSH1 0x20 PUSH1 0x4 DUP3 ADD MSTORE PUSH1 0x16 PUSH1 0x24 DUP3 ADD MSTORE PUSH32 0x526566756E6473206E6F7420617661696C61626C652E00000000000000000000 PUSH1 0x44 DUP3 ADD MSTORE PUSH1 0x64 ADD PUSH2 0x5B8 JUMP JUMPDEST CALLER PUSH0 SWAP1 DUP2 MSTORE PUSH1 0x6 PUSH1 0x20 MSTORE PUSH1 0x40 SWAP1 KECCAK256 SLOAD DUP1 PUSH2 0x86B JUMPI PUSH1 0x40 MLOAD PUSH3 0x461BCD PUSH1 0xE5 SHL DUP2 MSTORE PUSH1 0x20 PUSH1 0x4 DUP3 ADD MSTORE PUSH1 0x19 PUSH1 0x24 DUP3 ADD MSTORE PUSH32 0x4E6F20636F6E747269627574696F6E20746F20726566756E6400000000000000 PUSH1 0x44 DUP3 ADD MSTORE PUSH1 0x64 ADD PUSH2 0x5B8 JUMP JUMPDEST CALLER PUSH0 DUP2 DUP2 MSTORE PUSH1 0x6 PUSH1 0x20 MSTORE PUSH1 0x40 DUP1 DUP3 KECCAK256 DUP3 SWAP1 SSTORE MLOAD DUP4 ISZERO PUSH2 0x8FC MUL SWAP2 DUP5 SWAP2 SWAP1 DUP2 DUP2 DUP2 DUP6 DUP9 DUP9 CALL SWAP4 POP POP POP POP ISZERO DUP1 ISZERO PUSH2 0x796 JUMPI RETURNDATASIZE PUSH0 DUP1 RETURNDATACOPY RETURNDATASIZE PUSH0 REVERT JUMPDEST PUSH1 0x1 DUP1 SLOAD PUSH2 0x499 SWAP1 PUSH2 0x1213 JUMP JUMPDEST PUSH1 0x4 SLOAD PUSH1 0x1 PUSH1 0x1 PUSH1 0xA0 SHL SUB AND CALLER EQ PUSH2 0x8FA JUMPI PUSH1 0x40 MLOAD PUSH3 0x461BCD PUSH1 0xE5 SHL DUP2 MSTORE PUSH1 0x20 PUSH1 0x4 DUP3 ADD MSTORE PUSH1 0xD PUSH1 0x24 DUP3 ADD MSTORE PUSH13 0x2737BA103A34329037BBB732B9 PUSH1 0x99 SHL PUSH1 0x44 DUP3 ADD MSTORE PUSH1 0x64 ADD PUSH2 0x5B8 JUMP JUMPDEST PUSH1 0x5 SLOAD DUP2 LT PUSH2 0x94B JUMPI PUSH1 0x40 MLOAD PUSH3 0x461BCD PUSH1 0xE5 SHL DUP2 MSTORE PUSH1 0x20 PUSH1 0x4 DUP3 ADD MSTORE PUSH1 0x14 PUSH1 0x24 DUP3 ADD MSTORE PUSH32 0x5469657220646F6573206E6F742065786973742E000000000000000000000000 PUSH1 0x44 DUP3 ADD MSTORE PUSH1 0x64 ADD PUSH2 0x5B8 JUMP JUMPDEST PUSH1 0x5 DUP1 SLOAD PUSH2 0x95B SWAP1 PUSH1 0x1 SWAP1 PUSH2 0x1289 JUMP JUMPDEST DUP2 SLOAD DUP2 LT PUSH2 0x96B JUMPI PUSH2 0x96B PUSH2 0x129C JUMP JUMPDEST SWAP1 PUSH0 MSTORE PUSH1 0x20 PUSH0 KECCAK256 SWAP1 PUSH1 0x3 MUL ADD PUSH1 0x5 DUP3 DUP2 SLOAD DUP2 LT PUSH2 0x98A JUMPI PUSH2 0x98A PUSH2 0x129C JUMP JUMPDEST PUSH0 SWAP2 DUP3 MSTORE PUSH1 0x20 SWAP1 SWAP2 KECCAK256 PUSH1 0x3 SWAP1 SWAP2 MUL ADD DUP1 PUSH2 0x9A4 DUP4 DUP3 PUSH2 0x12FC JUMP JUMPDEST POP PUSH1 0x1 DUP3 DUP2 ADD SLOAD SWAP1 DUP3 ADD SSTORE PUSH1 0x2 SWAP2 DUP3 ADD SLOAD SWAP2 ADD SSTORE PUSH1 0x5 DUP1 SLOAD DUP1 PUSH2 0x9C9 JUMPI PUSH2 0x9C9 PUSH2 0x13D1 JUMP JUMPDEST PUSH0 DUP3 DUP2 MSTORE PUSH1 0x20 DUP2 KECCAK256 PUSH0 NOT SWAP1 SWAP3 ADD SWAP2 PUSH1 0x3 DUP4 MUL ADD SWAP1 PUSH2 0x9E7 DUP3 DUP3 PUSH2 0xF6D JUMP JUMPDEST POP PUSH0 PUSH1 0x1 DUP3 ADD DUP2 SWAP1 SSTORE PUSH1 0x2 SWAP1 SWAP2 ADD SSTORE SWAP1 SSTORE POP JUMP JUMPDEST PUSH1 0x1 PUSH1 0x1 PUSH1 0xA0 SHL SUB DUP3 AND PUSH0 SWAP1 DUP2 MSTORE PUSH1 0x6 PUSH1 0x20 SWAP1 DUP2 MSTORE PUSH1 0x40 DUP1 DUP4 KECCAK256 DUP5 DUP5 MSTORE PUSH1 0x1 ADD SWAP1 SWAP2 MSTORE SWAP1 KECCAK256 SLOAD PUSH1 0xFF AND JUMPDEST SWAP3 SWAP2 POP POP JUMP JUMPDEST PUSH1 0x4 SLOAD PUSH1 0x1 PUSH1 0x1 PUSH1 0xA0 SHL SUB AND CALLER EQ PUSH2 0xA75 JUMPI PUSH1 0x40 MLOAD PUSH3 0x461BCD PUSH1 0xE5 SHL DUP2 MSTORE PUSH1 0x20 PUSH1 0x4 DUP3 ADD MSTORE PUSH1 0xD PUSH1 0x24 DUP3 ADD MSTORE PUSH13 0x2737BA103A34329037BBB732B9 PUSH1 0x99 SHL PUSH1 0x44 DUP3 ADD MSTORE PUSH1 0x64 ADD PUSH2 0x5B8 JUMP JUMPDEST PUSH0 DUP2 GT PUSH2 0xAC4 JUMPI PUSH1 0x40 MLOAD PUSH3 0x461BCD PUSH1 0xE5 SHL DUP2 MSTORE PUSH1 0x20 PUSH1 0x4 DUP3 ADD MSTORE PUSH1 0x1E PUSH1 0x24 DUP3 ADD MSTORE PUSH32 0x416D6F756E74206D7573742062652067726561746572207468616E20302E0000 PUSH1 0x44 DUP3 ADD MSTORE PUSH1 0x64 ADD PUSH2 0x5B8 JUMP JUMPDEST PUSH1 0x40 DUP1 MLOAD PUSH1 0x60 DUP2 ADD DUP3 MSTORE DUP4 DUP2 MSTORE PUSH1 0x20 DUP2 ADD DUP4 SWAP1 MSTORE PUSH0 SWAP2 DUP2 ADD DUP3 SWAP1 MSTORE PUSH1 0x5 DUP1 SLOAD PUSH1 0x1 DUP2 ADD DUP3 SSTORE SWAP3 MSTORE DUP1 MLOAD SWAP1 SWAP2 PUSH1 0x3 MUL PUSH32 0x36B6384B5ECA791C62761152D0C79BB0604C104A5FB6F4EB0703F3154BB3DB0 ADD SWAP1 DUP2 SWAP1 PUSH2 0xB21 SWAP1 DUP3 PUSH2 0x13E5 JUMP JUMPDEST POP PUSH1 0x20 DUP3 ADD MLOAD DUP2 PUSH1 0x1 ADD SSTORE PUSH1 0x40 DUP3 ADD MLOAD DUP2 PUSH1 0x2 ADD SSTORE POP POP POP POP JUMP JUMPDEST PUSH1 0x4 SLOAD PUSH1 0x1 PUSH1 0x1 PUSH1 0xA0 SHL SUB AND CALLER EQ PUSH2 0xB86 JUMPI PUSH1 0x40 MLOAD PUSH3 0x461BCD PUSH1 0xE5 SHL DUP2 MSTORE PUSH1 0x20 PUSH1 0x4 DUP3 ADD MSTORE PUSH1 0xD PUSH1 0x24 DUP3 ADD MSTORE PUSH13 0x2737BA103A34329037BBB732B9 PUSH1 0x99 SHL PUSH1 0x44 DUP3 ADD MSTORE PUSH1 0x64 ADD PUSH2 0x5B8 JUMP JUMPDEST PUSH1 0x4 DUP1 SLOAD PUSH32 0xFFFFFFFFFFFFFFFFFFFFFF00FFFFFFFFFFFFFFFFFFFFFFFFFFFFFFFFFFFFFFFF DUP2 AND PUSH1 0x1 PUSH1 0xA0 SHL SWAP2 DUP3 SWAP1 DIV PUSH1 0xFF AND ISZERO SWAP1 SWAP2 MUL OR SWAP1 SSTORE JUMP JUMPDEST PUSH0 PUSH1 0x4 SLOAD PUSH1 0x1 PUSH1 0xA8 SHL SWAP1 DIV PUSH1 0xFF AND PUSH1 0x2 DUP2 GT ISZERO PUSH2 0xBE1 JUMPI PUSH2 0xBE1 PUSH2 0x1039 JUMP JUMPDEST EQ PUSH2 0xC2E JUMPI PUSH1 0x40 MLOAD PUSH3 0x461BCD PUSH1 0xE5 SHL DUP2 MSTORE PUSH1 0x20 PUSH1 0x4 DUP3 ADD MSTORE PUSH1 0x17 PUSH1 0x24 DUP3 ADD MSTORE PUSH32 0x43616D706169676E206973206E6F74206163746976652E000000000000000000 PUSH1 0x44 DUP3 ADD MSTORE PUSH1 0x64 ADD PUSH2 0x5B8 JUMP JUMPDEST PUSH1 0x4 SLOAD PUSH1 0x1 PUSH1 0xA0 SHL SWAP1 DIV PUSH1 0xFF AND ISZERO PUSH2 0xC88 JUMPI PUSH1 0x40 MLOAD PUSH3 0x461BCD PUSH1 0xE5 SHL DUP2 MSTORE PUSH1 0x20 PUSH1 0x4 DUP3 ADD MSTORE PUSH1 0x13 PUSH1 0x24 DUP3 ADD MSTORE PUSH32 0x436F6E7472616374206973207061757365642E00000000000000000000000000 PUSH1 0x44 DUP3 ADD MSTORE PUSH1 0x64 ADD PUSH2 0x5B8 JUMP JUMPDEST PUSH1 0x5 SLOAD DUP2 LT PUSH2 0xCD9 JUMPI PUSH1 0x40 MLOAD PUSH3 0x461BCD PUSH1 0xE5 SHL DUP2 MSTORE PUSH1 0x20 PUSH1 0x4 DUP3 ADD MSTORE PUSH1 0xD PUSH1 0x24 DUP3 ADD MSTORE PUSH32 0x496E76616C696420746965722E00000000000000000000000000000000000000 PUSH1 0x44 DUP3 ADD MSTORE PUSH1 0x64 ADD PUSH2 0x5B8 JUMP JUMPDEST PUSH1 0x5 DUP2 DUP2 SLOAD DUP2 LT PUSH2 0xCEC JUMPI PUSH2 0xCEC PUSH2 0x129C JUMP JUMPDEST SWAP1 PUSH0 MSTORE PUSH1 0x20 PUSH0 KECCAK256 SWAP1 PUSH1 0x3 MUL ADD PUSH1 0x1 ADD SLOAD CALLVALUE EQ PUSH2 0xD4A JUMPI PUSH1 0x40 MLOAD PUSH3 0x461BCD PUSH1 0xE5 SHL DUP2 MSTORE PUSH1 0x20 PUSH1 0x4 DUP3 ADD MSTORE PUSH1 0x11 PUSH1 0x24 DUP3 ADD MSTORE PUSH32 0x496E636F727265637420616D6F756E742E000000000000000000000000000000 PUSH1 0x44 DUP3 ADD MSTORE PUSH1 0x64 ADD PUSH2 0x5B8 JUMP JUMPDEST PUSH1 0x5 DUP2 DUP2 SLOAD DUP2 LT PUSH2 0xD5D JUMPI PUSH2 0xD5D PUSH2 0x129C JUMP JUMPDEST PUSH0 SWAP2 DUP3 MSTORE PUSH1 0x20 DUP3 KECCAK256 PUSH1 0x2 PUSH1 0x3 SWAP1 SWAP3 MUL ADD ADD DUP1 SLOAD SWAP2 PUSH2 0xD7A DUP4 PUSH2 0x149F JUMP JUMPDEST SWAP1 SWAP2 SSTORE POP POP CALLER PUSH0 SWAP1 DUP2 MSTORE PUSH1 0x6 PUSH1 0x20 MSTORE PUSH1 0x40 DUP2 KECCAK256 DUP1 SLOAD CALLVALUE SWAP3 SWAP1 PUSH2 0xD9D SWAP1 DUP5 SWAP1 PUSH2 0x1276 JUMP JUMPDEST SWAP1 SWAP2 SSTORE POP POP CALLER PUSH0 SWAP1 DUP2 MSTORE PUSH1 0x6 PUSH1 0x20 SWAP1 DUP2 MSTORE PUSH1 0x40 DUP1 DUP4 KECCAK256 DUP5 DUP5 MSTORE PUSH1 0x1 SWAP1 DUP2 ADD SWAP1 SWAP3 MSTORE SWAP1 SWAP2 KECCAK256 DUP1 SLOAD PUSH1 0xFF NOT AND SWAP1 SWAP2 OR SWAP1 SSTORE PUSH2 0xDD4 PUSH2 0xED6 JUMP JUMPDEST POP JUMP JUMPDEST PUSH1 0x60 PUSH1 0x5 DUP1 SLOAD DUP1 PUSH1 0x20 MUL PUSH1 0x20 ADD PUSH1 0x40 MLOAD SWAP1 DUP2 ADD PUSH1 0x40 MSTORE DUP1 SWAP3 SWAP2 SWAP1 DUP2 DUP2 MSTORE PUSH1 0x20 ADD PUSH0 SWAP1 JUMPDEST DUP3 DUP3 LT ISZERO PUSH2 0xECD JUMPI DUP4 DUP3 SWAP1 PUSH0 MSTORE PUSH1 0x20 PUSH0 KECCAK256 SWAP1 PUSH1 0x3 MUL ADD PUSH1 0x40 MLOAD DUP1 PUSH1 0x60 ADD PUSH1 0x40 MSTORE SWAP1 DUP2 PUSH0 DUP3 ADD DUP1 SLOAD PUSH2 0xE2A SWAP1 PUSH2 0x1213 JUMP JUMPDEST DUP1 PUSH1 0x1F ADD PUSH1 0x20 DUP1 SWAP2 DIV MUL PUSH1 0x20 ADD PUSH1 0x40 MLOAD SWAP1 DUP2 ADD PUSH1 0x40 MSTORE DUP1 SWAP3 SWAP2 SWAP1 DUP2 DUP2 MSTORE PUSH1 0x20 ADD DUP3 DUP1 SLOAD PUSH2 0xE56 SWAP1 PUSH2 0x1213 JUMP JUMPDEST DUP1 ISZERO PUSH2 0xEA1 JUMPI DUP1 PUSH1 0x1F LT PUSH2 0xE78 JUMPI PUSH2 0x100 DUP1 DUP4 SLOAD DIV MUL DUP4 MSTORE SWAP2 PUSH1 0x20 ADD SWAP2 PUSH2 0xEA1 JUMP JUMPDEST DUP3 ADD SWAP2 SWAP1 PUSH0 MSTORE PUSH1 0x20 PUSH0 KECCAK256 SWAP1 JUMPDEST DUP2 SLOAD DUP2 MSTORE SWAP1 PUSH1 0x1 ADD SWAP1 PUSH1 0x20 ADD DUP1 DUP4 GT PUSH2 0xE84 JUMPI DUP3 SWAP1 SUB PUSH1 0x1F AND DUP3 ADD SWAP2 JUMPDEST POP POP POP POP POP DUP2 MSTORE PUSH1 0x20 ADD PUSH1 0x1 DUP3 ADD SLOAD DUP2 MSTORE PUSH1 0x20 ADD PUSH1 0x2 DUP3 ADD SLOAD DUP2 MSTORE POP POP DUP2 MSTORE PUSH1 0x20 ADD SWAP1 PUSH1 0x1 ADD SWAP1 PUSH2 0xDFA JUMP JUMPDEST POP POP POP POP SWAP1 POP SWAP1 JUMP JUMPDEST PUSH0 PUSH1 0x4 SLOAD PUSH1 0x1 PUSH1 0xA8 SHL SWAP1 DIV PUSH1 0xFF AND PUSH1 0x2 DUP2 GT ISZERO PUSH2 0xEF5 JUMPI PUSH2 0xEF5 PUSH2 0x1039 JUMP JUMPDEST SUB PUSH2 0xF6B JUMPI PUSH1 0x3 SLOAD TIMESTAMP LT PUSH2 0xF5B JUMPI PUSH1 0x2 SLOAD SELFBALANCE LT ISZERO PUSH2 0xF14 JUMPI PUSH1 0x2 PUSH2 0xF17 JUMP JUMPDEST PUSH1 0x1 JUMPDEST PUSH1 0x4 DUP1 SLOAD PUSH32 0xFFFFFFFFFFFFFFFFFFFF00FFFFFFFFFFFFFFFFFFFFFFFFFFFFFFFFFFFFFFFFFF AND PUSH1 0x1 PUSH1 0xA8 SHL DUP4 PUSH1 0x2 DUP2 GT ISZERO PUSH2 0xF54 JUMPI PUSH2 0xF54 PUSH2 0x1039 JUMP JUMPDEST MUL OR SWAP1 SSTORE POP JUMP JUMPDEST PUSH1 0x2 SLOAD SELFBALANCE LT ISZERO PUSH2 0xF14 JUMPI PUSH0 PUSH2 0xF17 JUMP JUMPDEST JUMP JUMPDEST POP DUP1 SLOAD PUSH2 0xF79 SWAP1 PUSH2 0x1213 JUMP JUMPDEST PUSH0 DUP3 SSTORE DUP1 PUSH1 0x1F LT PUSH2 0xF88 JUMPI POP POP JUMP JUMPDEST PUSH1 0x1F ADD PUSH1 0x20 SWAP1 DIV SWAP1 PUSH0 MSTORE PUSH1 0x20 PUSH0 KECCAK256 SWAP1 DUP2 ADD SWAP1 PUSH2 0xDD4 SWAP2 SWAP1 JUMPDEST DUP1 DUP3 GT ISZERO PUSH2 0xFB3 JUMPI PUSH0 DUP2 SSTORE PUSH1 0x1 ADD PUSH2 0xFA0 JUMP JUMPDEST POP SWAP1 JUMP JUMPDEST PUSH0 PUSH1 0x20 DUP3 DUP5 SUB SLT ISZERO PUSH2 0xFC7 JUMPI PUSH0 DUP1 REVERT JUMPDEST POP CALLDATALOAD SWAP2 SWAP1 POP JUMP JUMPDEST PUSH0 DUP2 MLOAD DUP1 DUP5 MSTORE DUP1 PUSH1 0x20 DUP5 ADD PUSH1 0x20 DUP7 ADD MCOPY PUSH0 PUSH1 0x20 DUP3 DUP7 ADD ADD MSTORE PUSH1 0x20 PUSH1 0x1F NOT PUSH1 0x1F DUP4 ADD AND DUP6 ADD ADD SWAP2 POP POP SWAP3 SWAP2 POP POP JUMP JUMPDEST PUSH1 0x60 DUP2 MSTORE PUSH0 PUSH2 0x100E PUSH1 0x60 DUP4 ADD DUP7 PUSH2 0xFCE JUMP JUMPDEST PUSH1 0x20 DUP4 ADD SWAP5 SWAP1 SWAP5 MSTORE POP PUSH1 0x40 ADD MSTORE SWAP2 SWAP1 POP JUMP JUMPDEST PUSH1 0x20 DUP2 MSTORE PUSH0 PUSH2 0x1032 PUSH1 0x20 DUP4 ADD DUP5 PUSH2 0xFCE JUMP JUMPDEST SWAP4 SWAP3 POP POP POP JUMP JUMPDEST PUSH4 0x4E487B71 PUSH1 0xE0 SHL PUSH0 MSTORE PUSH1 0x21 PUSH1 0x4 MSTORE PUSH1 0x24 PUSH0 REVERT JUMPDEST PUSH1 0x20 DUP2 ADD PUSH1 0x3 DUP4 LT PUSH2 0x106D JUMPI PUSH4 0x4E487B71 PUSH1 0xE0 SHL PUSH0 MSTORE PUSH1 0x21 PUSH1 0x4 MSTORE PUSH1 0x24 PUSH0 REVERT JUMPDEST SWAP2 SWAP1 MSTORE SWAP1 JUMP JUMPDEST DUP1 CALLDATALOAD PUSH1 0x1 PUSH1 0x1 PUSH1 0xA0 SHL SUB DUP2 AND DUP2 EQ PUSH2 0x1089 JUMPI PUSH0 DUP1 REVERT JUMPDEST SWAP2 SWAP1 POP JUMP JUMPDEST PUSH0 DUP1 PUSH1 0x40 DUP4 DUP6 SUB SLT ISZERO PUSH2 0x109F JUMPI PUSH0 DUP1 REVERT JUMPDEST PUSH2 0x10A8 DUP4 PUSH2 0x1073 JUMP JUMPDEST SWAP5 PUSH1 0x20 SWAP4 SWAP1 SWAP4 ADD CALLDATALOAD SWAP4 POP POP POP JUMP JUMPDEST PUSH4 0x4E487B71 PUSH1 0xE0 SHL PUSH0 MSTORE PUSH1 0x41 PUSH1 0x4 MSTORE PUSH1 0x24 PUSH0 REVERT JUMPDEST PUSH0 DUP1 PUSH1 0x40 DUP4 DUP6 SUB SLT ISZERO PUSH2 0x10DB JUMPI PUSH0 DUP1 REVERT JUMPDEST DUP3 CALLDATALOAD PUSH8 0xFFFFFFFFFFFFFFFF DUP1 DUP3 GT ISZERO PUSH2 0x10F2 JUMPI PUSH0 DUP1 REVERT JUMPDEST DUP2 DUP6 ADD SWAP2 POP DUP6 PUSH1 0x1F DUP4 ADD SLT PUSH2 0x1105 JUMPI PUSH0 DUP1 REVERT JUMPDEST DUP2 CALLDATALOAD DUP2 DUP2 GT ISZERO PUSH2 0x1117 JUMPI PUSH2 0x1117 PUSH2 0x10B6 JUMP JUMPDEST PUSH1 0x40 MLOAD PUSH1 0x1F DUP3 ADD PUSH1 0x1F NOT SWAP1 DUP2 AND PUSH1 0x3F ADD AND DUP2 ADD SWAP1 DUP4 DUP3 GT DUP2 DUP4 LT OR ISZERO PUSH2 0x113F JUMPI PUSH2 0x113F PUSH2 0x10B6 JUMP JUMPDEST DUP2 PUSH1 0x40 MSTORE DUP3 DUP2 MSTORE DUP9 PUSH1 0x20 DUP5 DUP8 ADD ADD GT ISZERO PUSH2 0x1157 JUMPI PUSH0 DUP1 REVERT JUMPDEST DUP3 PUSH1 0x20 DUP7 ADD PUSH1 0x20 DUP4 ADD CALLDATACOPY PUSH0 PUSH1 0x20 SWAP4 DUP3 ADD DUP5 ADD MSTORE SWAP9 SWAP7 SWAP1 SWAP2 ADD CALLDATALOAD SWAP7 POP POP POP POP POP POP JUMP JUMPDEST PUSH0 PUSH1 0x20 DUP3 DUP5 SUB SLT ISZERO PUSH2 0x1189 JUMPI PUSH0 DUP1 REVERT JUMPDEST PUSH2 0x1032 DUP3 PUSH2 0x1073 JUMP JUMPDEST PUSH0 PUSH1 0x20 DUP1 DUP4 ADD DUP2 DUP5 MSTORE DUP1 DUP6 MLOAD DUP1 DUP4 MSTORE PUSH1 0x40 SWAP3 POP PUSH1 0x40 DUP7 ADD SWAP2 POP PUSH1 0x40 DUP2 PUSH1 0x5 SHL DUP8 ADD ADD DUP5 DUP9 ADD PUSH0 JUMPDEST DUP4 DUP2 LT ISZERO PUSH2 0x1205 JUMPI PUSH1 0x3F NOT DUP10 DUP5 SUB ADD DUP6 MSTORE DUP2 MLOAD PUSH1 0x60 DUP2 MLOAD DUP2 DUP7 MSTORE PUSH2 0x11DF DUP3 DUP8 ADD DUP3 PUSH2 0xFCE JUMP JUMPDEST DUP4 DUP12 ADD MLOAD DUP8 DUP13 ADD MSTORE SWAP3 DUP10 ADD MLOAD SWAP6 DUP10 ADD SWAP6 SWAP1 SWAP6 MSTORE POP SWAP5 DUP8 ADD SWAP5 SWAP3 POP SWAP1 DUP7 ADD SWAP1 PUSH1 0x1 ADD PUSH2 0x11B9 JUMP JUMPDEST POP SWAP1 SWAP9 SWAP8 POP POP POP POP POP POP POP POP JUMP JUMPDEST PUSH1 0x1 DUP2 DUP2 SHR SWAP1 DUP3 AND DUP1 PUSH2 0x1227 JUMPI PUSH1 0x7F DUP3 AND SWAP2 POP JUMPDEST PUSH1 0x20 DUP3 LT DUP2 SUB PUSH2 0x1245 JUMPI PUSH4 0x4E487B71 PUSH1 0xE0 SHL PUSH0 MSTORE PUSH1 0x22 PUSH1 0x4 MSTORE PUSH1 0x24 PUSH0 REVERT JUMPDEST POP SWAP2 SWAP1 POP JUMP JUMPDEST PUSH4 0x4E487B71 PUSH1 0xE0 SHL PUSH0 MSTORE PUSH1 0x11 PUSH1 0x4 MSTORE PUSH1 0x24 PUSH0 REVERT JUMPDEST DUP1 DUP3 MUL DUP2 ISZERO DUP3 DUP3 DIV DUP5 EQ OR PUSH2 0xA25 JUMPI PUSH2 0xA25 PUSH2 0x124B JUMP JUMPDEST DUP1 DUP3 ADD DUP1 DUP3 GT ISZERO PUSH2 0xA25 JUMPI PUSH2 0xA25 PUSH2 0x124B JUMP JUMPDEST DUP2 DUP2 SUB DUP2 DUP2 GT ISZERO PUSH2 0xA25 JUMPI PUSH2 0xA25 PUSH2 0x124B JUMP JUMPDEST PUSH4 0x4E487B71 PUSH1 0xE0 SHL PUSH0 MSTORE PUSH1 0x32 PUSH1 0x4 MSTORE PUSH1 0x24 PUSH0 REVERT JUMPDEST PUSH1 0x1F DUP3 GT ISZERO PUSH2 0x12F7 JUMPI DUP1 PUSH0 MSTORE PUSH1 0x20 PUSH0 KECCAK256 PUSH1 0x1F DUP5 ADD PUSH1 0x5 SHR DUP2 ADD PUSH1 0x20 DUP6 LT ISZERO PUSH2 0x12D5 JUMPI POP DUP1 JUMPDEST PUSH1 0x1F DUP5 ADD PUSH1 0x5 SHR DUP3 ADD SWAP2 POP JUMPDEST DUP2 DUP2 LT ISZERO PUSH2 0x12F4 JUMPI PUSH0 DUP2 SSTORE PUSH1 0x1 ADD PUSH2 0x12E1 JUMP JUMPDEST POP POP JUMPDEST POP POP POP JUMP JUMPDEST DUP2 DUP2 SUB PUSH2 0x1307 JUMPI POP POP JUMP JUMPDEST PUSH2 0x1311 DUP3 SLOAD PUSH2 0x1213 JUMP JUMPDEST PUSH8 0xFFFFFFFFFFFFFFFF DUP2 GT ISZERO PUSH2 0x1329 JUMPI PUSH2 0x1329 PUSH2 0x10B6 JUMP JUMPDEST PUSH2 0x133D DUP2 PUSH2 0x1337 DUP5 SLOAD PUSH2 0x1213 JUMP JUMPDEST DUP5 PUSH2 0x12B0 JUMP JUMPDEST PUSH0 PUSH1 0x1F DUP3 GT PUSH1 0x1 DUP2 EQ PUSH2 0x136E JUMPI PUSH0 DUP4 ISZERO PUSH2 0x1357 JUMPI POP DUP5 DUP3 ADD SLOAD JUMPDEST PUSH0 NOT PUSH1 0x3 DUP6 SWAP1 SHL SHR NOT AND PUSH1 0x1 DUP5 SWAP1 SHL OR DUP5 SSTORE PUSH2 0x12F4 JUMP JUMPDEST PUSH0 DUP6 DUP2 MSTORE PUSH1 0x20 DUP1 DUP3 KECCAK256 DUP7 DUP4 MSTORE SWAP1 DUP3 KECCAK256 PUSH1 0x1F NOT DUP7 AND SWAP3 JUMPDEST DUP4 DUP2 LT ISZERO PUSH2 0x13A4 JUMPI DUP3 DUP7 ADD SLOAD DUP3 SSTORE PUSH1 0x1 SWAP6 DUP7 ADD SWAP6 SWAP1 SWAP2 ADD SWAP1 PUSH1 0x20 ADD PUSH2 0x1384 JUMP JUMPDEST POP DUP6 DUP4 LT ISZERO PUSH2 0x13C1 JUMPI DUP2 DUP6 ADD SLOAD PUSH0 NOT PUSH1 0x3 DUP9 SWAP1 SHL PUSH1 0xF8 AND SHR NOT AND DUP2 SSTORE JUMPDEST POP POP POP POP POP PUSH1 0x1 SWAP1 DUP2 SHL ADD SWAP1 SSTORE POP JUMP JUMPDEST PUSH4 0x4E487B71 PUSH1 0xE0 SHL PUSH0 MSTORE PUSH1 0x31 PUSH1 0x4 MSTORE PUSH1 0x24 PUSH0 REVERT JUMPDEST DUP2 MLOAD PUSH8 0xFFFFFFFFFFFFFFFF DUP2 GT ISZERO PUSH2 0x13FF JUMPI PUSH2 0x13FF PUSH2 0x10B6 JUMP JUMPDEST PUSH2 0x140D DUP2 PUSH2 0x1337 DUP5 SLOAD PUSH2 0x1213 JUMP JUMPDEST PUSH1 0x20 DUP1 PUSH1 0x1F DUP4 GT PUSH1 0x1 DUP2 EQ PUSH2 0x1440 JUMPI PUSH0 DUP5 ISZERO PUSH2 0x1429 JUMPI POP DUP6 DUP4 ADD MLOAD JUMPDEST PUSH0 NOT PUSH1 0x3 DUP7 SWAP1 SHL SHR NOT AND PUSH1 0x1 DUP6 SWAP1 SHL OR DUP6 SSTORE PUSH2 0x1497 JUMP JUMPDEST PUSH0 DUP6 DUP2 MSTORE PUSH1 0x20 DUP2 KECCAK256 PUSH1 0x1F NOT DUP7 AND SWAP2 JUMPDEST DUP3 DUP2 LT ISZERO PUSH2 0x146E JUMPI DUP9 DUP7 ADD MLOAD DUP3 SSTORE SWAP5 DUP5 ADD SWAP5 PUSH1 0x1 SWAP1 SWAP2 ADD SWAP1 DUP5 ADD PUSH2 0x144F JUMP JUMPDEST POP DUP6 DUP3 LT ISZERO PUSH2 0x148B JUMPI DUP8 DUP6 ADD MLOAD PUSH0 NOT PUSH1 0x3 DUP9 SWAP1 SHL PUSH1 0xF8 AND SHR NOT AND DUP2 SSTORE JUMPDEST POP POP PUSH1 0x1 DUP5 PUSH1 0x1 SHL ADD DUP6 SSTORE JUMPDEST POP POP POP POP POP POP JUMP JUMPDEST PUSH0 PUSH1 0x1 DUP3 ADD PUSH2 0x14B0 JUMPI PUSH2 0x14B0 PUSH2 0x124B JUMP JUMPDEST POP PUSH1 0x1 ADD SWAP1 JUMP INVALID LOG2 PUSH5 0x6970667358 0x22 SLT KECCAK256 BYTE SWAP7 0xB1 0x4F MSTORE8 0xAC DUP9 0xA6 SWAP15 ADD BLOCKHASH 0xDF 0xC9 DUP14 0xB7 0xCA PUSH10 0x4A5750E6210036EDFD49 CREATE 0xE2 0xC5 PUSH32 0x4D64736F6C634300081900330000000000000000000000000000000000000000 "
    },
    "gasEstimates": {
      "creation": {
        "codeDepositCost": "1071400",
        "executionCost": "infinite",
        "totalCost": "infinite"
      },
      "external": {
        "addTier(string,uint256)": "infinite",
        "backers(address)": "2561",
        "deadline()": "2362",
        "description()": "infinite",
        "extendDeadline(uint256)": "infinite",
        "fund(uint256)": "116971",
        "getCampaignStatus()": "6735",
        "getContractBalance()": "282",
        "getTiers()": "infinite",
        "goal()": "2362",
        "hasFundedTier(address,uint256)": "2713",
        "name()": "infinite",
        "owner()": "2403",
        "paused()": "2393",
        "refund()": "infinite",
        "removeTier(uint256)": "infinite",
        "state()": "2434",
        "tiers(uint256)": "infinite",
        "togglePause()": "26591",
        "withdraw()": "infinite"
      },
      "internal": {
        "checkAndUpdateCampaignState()": "30705"
      }
    },
    "methodIdentifiers": {
      "addTier(string,uint256)": "8ece7b91",
      "backers(address)": "b85dfb80",
      "deadline()": "29dcb0cf",
      "description()": "7284e416",
      "extendDeadline(uint256)": "389b7533",
      "fund(uint256)": "ca1d209d",
      "getCampaignStatus()": "10550515",
      "getContractBalance()": "6f9fb98a",
      "getTiers()": "de170570",
      "goal()": "40193883",
      "hasFundedTier(address,uint256)": "7adba527",
      "name()": "06fdde03",
      "owner()": "8da5cb5b",
      "paused()": "5c975abb",
      "refund()": "590e1ae3",
      "removeTier(uint256)": "7497211b",
      "state()": "c19d93fb",
      "tiers(uint256)": "039af9eb",
      "togglePause()": "c4ae3168",
      "withdraw()": "3ccfd60b"
    }
  },
  "storageLayout": {
    "storage": [
      {
        "astId": 1026,
        "contract": "EtherFund.sol:EtherFund",
        "label": "name",
        "offset": 0,
        "slot": "0",
        "type": "t_string_storage"
      },
      {
        "astId": 1028,
        "contract": "EtherFund.sol:EtherFund",
        "label": "description",
        "offset": 0,
        "slot": "1",
        "type": "t_string_storage"
      },
      {
        "astId": 1030,
        "contract": "EtherFund.sol:EtherFund",
        "label": "goal",
        "offset": 0,
        "slot": "2",
        "type": "t_uint256"
      },
      {
        "astId": 1032,
        "contract": "EtherFund.sol:EtherFund",
        "label": "deadline",
        "offset": 0,
        "slot": "3",
        "type": "t_uint256"
      },
      {
        "astId": 1034,
        "contract": "EtherFund.sol:EtherFund",
        "label": "owner",
        "offset": 0,
        "slot": "4",
        "type": "t_address"
      },
      {
        "astId": 1036,
        "contract": "EtherFund.sol:EtherFund",
        "label": "paused",
        "offset": 20,
        "slot": "4",
        "type": "t_bool"
      },
      {
        "astId": 1043,
        "contract": "EtherFund.sol:EtherFund",
        "label": "state",
        "offset": 21,
        "slot": "4",
        "type": "t_enum(CampaignState)1040"
      },
      {
        "astId": 1061,
        "contract": "EtherFund.sol:EtherFund",
        "label": "tiers",
        "offset": 0,
        "slot": "5",
        "type": "t_array(t_struct(Tier)1050_storage)dyn_storage"
      },
      {
        "astId": 1066,
        "contract": "EtherFund.sol:EtherFund",
        "label": "backers",
        "offset": 0,
        "slot": "6",
        "type": "t_mapping(t_address,t_struct(Backer)1057_storage)"
      }
    ],
    "types": {
      "t_address": {
        "encoding": "inplace",
        "label": "address",
        "numberOfBytes": "20"
      },
      "t_array(t_struct(Tier)1050_storage)dyn_storage": {
        "base": "t_struct(Tier)1050_storage",
        "encoding": "dynamic_array",
        "label": "struct EtherFund.Tier[]",
        "numberOfBytes": "32"
      },
      "t_bool": {
        "encoding": "inplace",
        "label": "bool",
        "numberOfBytes": "1"
      },
      "t_enum(CampaignState)1040": {
        "encoding": "inplace",
        "label": "enum EtherFund.CampaignState",
        "numberOfBytes": "1"
      },
      "t_mapping(t_address,t_struct(Backer)1057_storage)": {
        "encoding": "mapping",
        "key": "t_address",
        "label": "mapping(address => struct EtherFund.Backer)",
        "numberOfBytes": "32",
        "value": "t_struct(Backer)1057_storage"
      },
      "t_mapping(t_uint256,t_bool)": {
        "encoding": "mapping",
        "key": "t_uint256",
        "label": "mapping(uint256 => bool)",
        "numberOfBytes": "32",
        "value": "t_bool"
      },
      "t_string_storage": {
        "encoding": "bytes",
        "label": "string",
        "numberOfBytes": "32"
      },
      "t_struct(Backer)1057_storage": {
        "encoding": "inplace",
        "label": "struct EtherFund.Backer",
        "members": [
          {
            "astId": 1052,
            "contract": "EtherFund.sol:EtherFund",
            "label": "totalContribution",
            "offset": 0,
            "slot": "0",
            "type": "t_uint256"
          },
          {
            "astId": 1056,
            "contract": "EtherFund.sol:EtherFund",
            "label": "fundedTiers",
            "offset": 0,
            "slot": "1",
            "type": "t_mapping(t_uint256,t_bool)"
          }
        ],
        "numberOfBytes": "64"
      },
      "t_struct(Tier)1050_storage": {
        "encoding": "inplace",
        "label": "struct EtherFund.Tier",
        "members": [
          {
            "astId": 1045,
            "contract": "EtherFund.sol:EtherFund",
            "label": "name",
            "offset": 0,
            "slot": "0",
            "type": "t_string_storage"
          },
          {
            "astId": 1047,
            "contract": "EtherFund.sol:EtherFund",
            "label": "amount",
            "offset": 0,
            "slot": "1",
            "type": "t_uint256"
          },
          {
            "astId": 1049,
            "contract": "EtherFund.sol:EtherFund",
            "label": "backers",
            "offset": 0,
            "slot": "2",
            "type": "t_uint256"
          }
        ],
        "numberOfBytes": "96"
      },
      "t_uint256": {
        "encoding": "inplace",
        "label": "uint256",
        "numberOfBytes": "32"
      }
    }
  },
  "userdoc": {
    "kind": "user",
    "methods": {},
    "version": 1
  }
}